{
	"data": {
		"bytecode": {
			"linkReferences": {},
			"object": "60806040526c01431e0fae6d7217caa0000000600019620000219190620007fb565b60001962000030919062000862565b6006556001600955600e600a556001600b556018600c55600b54600d55600c54600e55600d54600f55600e546010557397d81049398454a7184f4b651c5ff7de3ec3ba8f601360006101000a81548173ffffffffffffffffffffffffffffffffffffffff021916908373ffffffffffffffffffffffffffffffffffffffff16021790555073efdcf937e28d04bb8a3e837157cd99ac9c72c91f601460006101000a81548173ffffffffffffffffffffffffffffffffffffffff021916908373ffffffffffffffffffffffffffffffffffffffff1602179055506000601660156101000a81548160ff02191690831515021790555060016016806101000a81548160ff0219169083151502179055506b019d971e4fe8410748a510006017556b019d971e4fe8410748a510006018556a084595161401484a0000006019553480156200017a57600080fd5b5060006200018d6200079160201b60201c565b9050806000806101000a81548173ffffffffffffffffffffffffffffffffffffffff021916908373ffffffffffffffffffffffffffffffffffffffff1602179055508073ffffffffffffffffffffffffffffffffffffffff16600073ffffffffffffffffffffffffffffffffffffffff167f8be0079c531659141344cd1fd0a4f28419497f9722a3daafe3b4186f6b6457e060405160405180910390a35060065460026000620002426200079160201b60201c565b73ffffffffffffffffffffffffffffffffffffffff1673ffffffffffffffffffffffffffffffffffffffff168152602001908152602001600020819055506000737a250d5630b4cf539739df2c5dacb4c659f2488d905080601560006101000a81548173ffffffffffffffffffffffffffffffffffffffff021916908373ffffffffffffffffffffffffffffffffffffffff1602179055508073ffffffffffffffffffffffffffffffffffffffff1663c45a01556040518163ffffffff1660e01b8152600401602060405180830381865afa15801562000326573d6000803e3d6000fd5b505050506040513d601f19601f820116820180604052508101906200034c919062000907565b73ffffffffffffffffffffffffffffffffffffffff1663c9c65396308373ffffffffffffffffffffffffffffffffffffffff1663ad5c46486040518163ffffffff1660e01b8152600401602060405180830381865afa158015620003b4573d6000803e3d6000fd5b505050506040513d601f19601f82011682018060405250810190620003da919062000907565b6040518363ffffffff1660e01b8152600401620003f99291906200094a565b6020604051808303816000875af115801562000419573d6000803e3d6000fd5b505050506040513d601f19601f820116820180604052508101906200043f919062000907565b601660006101000a81548173ffffffffffffffffffffffffffffffffffffffff021916908373ffffffffffffffffffffffffffffffffffffffff160217905550600160056000620004956200079960201b60201c565b73ffffffffffffffffffffffffffffffffffffffff1673ffffffffffffffffffffffffffffffffffffffff16815260200190815260200160002060006101000a81548160ff0219169083151502179055506001600560003073ffffffffffffffffffffffffffffffffffffffff1673ffffffffffffffffffffffffffffffffffffffff16815260200190815260200160002060006101000a81548160ff021916908315150217905550600160056000601360009054906101000a900473ffffffffffffffffffffffffffffffffffffffff1673ffffffffffffffffffffffffffffffffffffffff1673ffffffffffffffffffffffffffffffffffffffff16815260200190815260200160002060006101000a81548160ff021916908315150217905550600160056000601460009054906101000a900473ffffffffffffffffffffffffffffffffffffffff1673ffffffffffffffffffffffffffffffffffffffff1673ffffffffffffffffffffffffffffffffffffffff16815260200190815260200160002060006101000a81548160ff0219169083151502179055506001601160007366f049111958809841bbe4b81c034da2d953aa0c73ffffffffffffffffffffffffffffffffffffffff1673ffffffffffffffffffffffffffffffffffffffff16815260200190815260200160002060006101000a81548160ff0219169083151502179055506001601160006f5736775feb0c8568e7dee77222a2688073ffffffffffffffffffffffffffffffffffffffff1673ffffffffffffffffffffffffffffffffffffffff16815260200190815260200160002060006101000a81548160ff021916908315150217905550620007166200079160201b60201c565b73ffffffffffffffffffffffffffffffffffffffff16600073ffffffffffffffffffffffffffffffffffffffff167fddf252ad1be2c89b69c2b068fc378daa952ba7f163c4a11628f55a4df523b3ef6c01431e0fae6d7217caa000000060405162000782919062000988565b60405180910390a350620009a5565b600033905090565b60008060009054906101000a900473ffffffffffffffffffffffffffffffffffffffff16905090565b6000819050919050565b7f4e487b7100000000000000000000000000000000000000000000000000000000600052601260045260246000fd5b60006200080882620007c2565b91506200081583620007c2565b925082620008285762000827620007cc565b5b828206905092915050565b7f4e487b7100000000000000000000000000000000000000000000000000000000600052601160045260246000fd5b60006200086f82620007c2565b91506200087c83620007c2565b92508282101562000892576200089162000833565b5b828203905092915050565b600080fd5b600073ffffffffffffffffffffffffffffffffffffffff82169050919050565b6000620008cf82620008a2565b9050919050565b620008e181620008c2565b8114620008ed57600080fd5b50565b6000815190506200090181620008d6565b92915050565b60006020828403121562000920576200091f6200089d565b5b60006200093084828501620008f0565b91505092915050565b6200094481620008c2565b82525050565b600060408201905062000961600083018562000939565b62000970602083018462000939565b9392505050565b6200098281620007c2565b82525050565b60006020820190506200099f600083018462000977565b92915050565b613fa780620009b56000396000f3fe6080604052600436106101d05760003560e01c80637d1db4a5116100f7578063a9059cbb11610095578063d00efb2f11610064578063d00efb2f14610648578063dd62ed3e14610673578063ea1644d5146106b0578063f2fde38b146106d9576101d7565b8063a9059cbb1461058e578063bfd79284146105cb578063c3c8cd8014610608578063c492f0461461061f576101d7565b80638f9a55c0116100d15780638f9a55c0146104e657806395d89b411461051157806398a5c3151461053c578063a2a957bb14610565576101d7565b80637d1db4a5146104675780638da5cb5b146104925780638f70ccf7146104bd576101d7565b8063313ce5671161016f5780636fc3eaec1161013e5780636fc3eaec146103d357806370a08231146103ea578063715018a61461042757806374010ece1461043e576101d7565b8063313ce5671461032b57806349bd5a5e146103565780636b999053146103815780636d8aa8f8146103aa576101d7565b80631694505e116101ab5780631694505e1461026d57806318160ddd1461029857806323b872dd146102c35780632fd689e314610300576101d7565b8062b8cf2a146101dc57806306fdde0314610205578063095ea7b314610230576101d7565b366101d757005b600080fd5b3480156101e857600080fd5b5061020360048036038101906101fe9190612f33565b610702565b005b34801561021157600080fd5b5061021a61082c565b6040516102279190613004565b60405180910390f35b34801561023c57600080fd5b506102576004803603810190610252919061305c565b610869565b60405161026491906130b7565b60405180910390f35b34801561027957600080fd5b50610282610887565b60405161028f9190613131565b60405180910390f35b3480156102a457600080fd5b506102ad6108ad565b6040516102ba919061315b565b60405180910390f35b3480156102cf57600080fd5b506102ea60048036038101906102e59190613176565b6108c2565b6040516102f791906130b7565b60405180910390f35b34801561030c57600080fd5b5061031561099b565b604051610322919061315b565b60405180910390f35b34801561033757600080fd5b506103406109a1565b60405161034d91906131e5565b60405180910390f35b34801561036257600080fd5b5061036b6109aa565b604051610378919061320f565b60405180910390f35b34801561038d57600080fd5b506103a860048036038101906103a3919061322a565b6109d0565b005b3480156103b657600080fd5b506103d160048036038101906103cc9190613283565b610ac0565b005b3480156103df57600080fd5b506103e8610b71565b005b3480156103f657600080fd5b50610411600480360381019061040c919061322a565b610c42565b60405161041e919061315b565b60405180910390f35b34801561043357600080fd5b5061043c610c93565b005b34801561044a57600080fd5b50610465600480360381019061046091906132b0565b610de6565b005b34801561047357600080fd5b5061047c610e85565b604051610489919061315b565b60405180910390f35b34801561049e57600080fd5b506104a7610e8b565b6040516104b4919061320f565b60405180910390f35b3480156104c957600080fd5b506104e460048036038101906104df9190613283565b610eb4565b005b3480156104f257600080fd5b506104fb610f6d565b604051610508919061315b565b60405180910390f35b34801561051d57600080fd5b50610526610f73565b6040516105339190613004565b60405180910390f35b34801561054857600080fd5b50610563600480360381019061055e91906132b0565b610fb0565b005b34801561057157600080fd5b5061058c600480360381019061058791906132dd565b61104f565b005b34801561059a57600080fd5b506105b560048036038101906105b0919061305c565b611106565b6040516105c291906130b7565b60405180910390f35b3480156105d757600080fd5b506105f260048036038101906105ed919061322a565b611124565b6040516105ff91906130b7565b60405180910390f35b34801561061457600080fd5b5061061d611144565b005b34801561062b57600080fd5b506106466004803603810190610641919061339f565b61121d565b005b34801561065457600080fd5b5061065d611357565b60405161066a919061315b565b60405180910390f35b34801561067f57600080fd5b5061069a600480360381019061069591906133ff565b61135d565b6040516106a7919061315b565b60405180910390f35b3480156106bc57600080fd5b506106d760048036038101906106d291906132b0565b6113e4565b005b3480156106e557600080fd5b5061070060048036038101906106fb919061322a565b611483565b005b61070a611645565b73ffffffffffffffffffffffffffffffffffffffff1660008054906101000a900473ffffffffffffffffffffffffffffffffffffffff1673ffffffffffffffffffffffffffffffffffffffff1614610797576040517f08c379a000000000000000000000000000000000000000000000000000000000815260040161078e9061348b565b60405180910390fd5b60005b8151811015610828576001601160008484815181106107bc576107bb6134ab565b5b602002602001015173ffffffffffffffffffffffffffffffffffffffff1673ffffffffffffffffffffffffffffffffffffffff16815260200190815260200160002060006101000a81548160ff021916908315150217905550808061082090613509565b91505061079a565b5050565b60606040518060400160405280600a81526020017f53717569646920496e7500000000000000000000000000000000000000000000815250905090565b600061087d610876611645565b848461164d565b6001905092915050565b601560009054906101000a900473ffffffffffffffffffffffffffffffffffffffff1681565b60006c01431e0fae6d7217caa0000000905090565b60006108cf848484611818565b610990846108db611645565b61098b85604051806060016040528060288152602001613f4a60289139600460008b73ffffffffffffffffffffffffffffffffffffffff1673ffffffffffffffffffffffffffffffffffffffff1681526020019081526020016000206000610941611645565b73ffffffffffffffffffffffffffffffffffffffff1673ffffffffffffffffffffffffffffffffffffffff168152602001908152602001600020546121ec9092919063ffffffff16565b61164d565b600190509392505050565b60195481565b60006009905090565b601660009054906101000a900473ffffffffffffffffffffffffffffffffffffffff1681565b6109d8611645565b73ffffffffffffffffffffffffffffffffffffffff1660008054906101000a900473ffffffffffffffffffffffffffffffffffffffff1673ffffffffffffffffffffffffffffffffffffffff1614610a65576040517f08c379a0000000000000000000000000000000000000000000000000000000008152600401610a5c9061348b565b60405180910390fd5b6000601160008373ffffffffffffffffffffffffffffffffffffffff1673ffffffffffffffffffffffffffffffffffffffff16815260200190815260200160002060006101000a81548160ff02191690831515021790555050565b610ac8611645565b73ffffffffffffffffffffffffffffffffffffffff1660008054906101000a900473ffffffffffffffffffffffffffffffffffffffff1673ffffffffffffffffffffffffffffffffffffffff1614610b55576040517f08c379a0000000000000000000000000000000000000000000000000000000008152600401610b4c9061348b565b60405180910390fd5b806016806101000a81548160ff02191690831515021790555050565b601360009054906101000a900473ffffffffffffffffffffffffffffffffffffffff1673ffffffffffffffffffffffffffffffffffffffff16610bb2611645565b73ffffffffffffffffffffffffffffffffffffffff161480610c285750601460009054906101000a900473ffffffffffffffffffffffffffffffffffffffff1673ffffffffffffffffffffffffffffffffffffffff16610c10611645565b73ffffffffffffffffffffffffffffffffffffffff16145b610c3157600080fd5b6000479050610c3f81612250565b50565b6000610c8c600260008473ffffffffffffffffffffffffffffffffffffffff1673ffffffffffffffffffffffffffffffffffffffff1681526020019081526020016000205461234b565b9050919050565b610c9b611645565b73ffffffffffffffffffffffffffffffffffffffff1660008054906101000a900473ffffffffffffffffffffffffffffffffffffffff1673ffffffffffffffffffffffffffffffffffffffff1614610d28576040517f08c379a0000000000000000000000000000000000000000000000000000000008152600401610d1f9061348b565b60405180910390fd5b600073ffffffffffffffffffffffffffffffffffffffff1660008054906101000a900473ffffffffffffffffffffffffffffffffffffffff1673ffffffffffffffffffffffffffffffffffffffff167f8be0079c531659141344cd1fd0a4f28419497f9722a3daafe3b4186f6b6457e060405160405180910390a360008060006101000a81548173ffffffffffffffffffffffffffffffffffffffff021916908373ffffffffffffffffffffffffffffffffffffffff160217905550565b610dee611645565b73ffffffffffffffffffffffffffffffffffffffff1660008054906101000a900473ffffffffffffffffffffffffffffffffffffffff1673ffffffffffffffffffffffffffffffffffffffff1614610e7b576040517f08c379a0000000000000000000000000000000000000000000000000000000008152600401610e729061348b565b60405180910390fd5b8060178190555050565b60175481565b60008060009054906101000a900473ffffffffffffffffffffffffffffffffffffffff16905090565b610ebc611645565b73ffffffffffffffffffffffffffffffffffffffff1660008054906101000a900473ffffffffffffffffffffffffffffffffffffffff1673ffffffffffffffffffffffffffffffffffffffff1614610f49576040517f08c379a0000000000000000000000000000000000000000000000000000000008152600401610f409061348b565b60405180910390fd5b80601660146101000a81548160ff0219169083151502179055504360088190555050565b60185481565b60606040518060400160405280600681526020017f5351554944490000000000000000000000000000000000000000000000000000815250905090565b610fb8611645565b73ffffffffffffffffffffffffffffffffffffffff1660008054906101000a900473ffffffffffffffffffffffffffffffffffffffff1673ffffffffffffffffffffffffffffffffffffffff1614611045576040517f08c379a000000000000000000000000000000000000000000000000000000000815260040161103c9061348b565b60405180910390fd5b8060198190555050565b611057611645565b73ffffffffffffffffffffffffffffffffffffffff1660008054906101000a900473ffffffffffffffffffffffffffffffffffffffff1673ffffffffffffffffffffffffffffffffffffffff16146110e4576040517f08c379a00000000000000000000000000000000000000000000000000000000081526004016110db9061348b565b60405180910390fd5b8360098190555082600b8190555081600a8190555080600c8190555050505050565b600061111a611113611645565b8484611818565b6001905092915050565b60116020528060005260406000206000915054906101000a900460ff1681565b601360009054906101000a900473ffffffffffffffffffffffffffffffffffffffff1673ffffffffffffffffffffffffffffffffffffffff16611185611645565b73ffffffffffffffffffffffffffffffffffffffff1614806111fb5750601460009054906101000a900473ffffffffffffffffffffffffffffffffffffffff1673ffffffffffffffffffffffffffffffffffffffff166111e3611645565b73ffffffffffffffffffffffffffffffffffffffff16145b61120457600080fd5b600061120f30610c42565b905061121a816123b9565b50565b611225611645565b73ffffffffffffffffffffffffffffffffffffffff1660008054906101000a900473ffffffffffffffffffffffffffffffffffffffff1673ffffffffffffffffffffffffffffffffffffffff16146112b2576040517f08c379a00000000000000000000000000000000000000000000000000000000081526004016112a99061348b565b60405180910390fd5b60005b838390508110156113515781600560008686858181106112d8576112d76134ab565b5b90506020020160208101906112ed919061322a565b73ffffffffffffffffffffffffffffffffffffffff1673ffffffffffffffffffffffffffffffffffffffff16815260200190815260200160002060006101000a81548160ff021916908315150217905550808061134990613509565b9150506112b5565b50505050565b60085481565b6000600460008473ffffffffffffffffffffffffffffffffffffffff1673ffffffffffffffffffffffffffffffffffffffff16815260200190815260200160002060008373ffffffffffffffffffffffffffffffffffffffff1673ffffffffffffffffffffffffffffffffffffffff16815260200190815260200160002054905092915050565b6113ec611645565b73ffffffffffffffffffffffffffffffffffffffff1660008054906101000a900473ffffffffffffffffffffffffffffffffffffffff1673ffffffffffffffffffffffffffffffffffffffff1614611479576040517f08c379a00000000000000000000000000000000000000000000000000000000081526004016114709061348b565b60405180910390fd5b8060188190555050565b61148b611645565b73ffffffffffffffffffffffffffffffffffffffff1660008054906101000a900473ffffffffffffffffffffffffffffffffffffffff1673ffffffffffffffffffffffffffffffffffffffff1614611518576040517f08c379a000000000000000000000000000000000000000000000000000000000815260040161150f9061348b565b60405180910390fd5b600073ffffffffffffffffffffffffffffffffffffffff168173ffffffffffffffffffffffffffffffffffffffff161415611588576040517f08c379a000000000000000000000000000000000000000000000000000000000815260040161157f906135c4565b60405180910390fd5b8073ffffffffffffffffffffffffffffffffffffffff1660008054906101000a900473ffffffffffffffffffffffffffffffffffffffff1673ffffffffffffffffffffffffffffffffffffffff167f8be0079c531659141344cd1fd0a4f28419497f9722a3daafe3b4186f6b6457e060405160405180910390a3806000806101000a81548173ffffffffffffffffffffffffffffffffffffffff021916908373ffffffffffffffffffffffffffffffffffffffff16021790555050565b600033905090565b600073ffffffffffffffffffffffffffffffffffffffff168373ffffffffffffffffffffffffffffffffffffffff1614156116bd576040517f08c379a00000000000000000000000000000000000000000000000000000000081526004016116b490613656565b60405180910390fd5b600073ffffffffffffffffffffffffffffffffffffffff168273ffffffffffffffffffffffffffffffffffffffff16141561172d576040517f08c379a0000000000000000000000000000000000000000000000000000000008152600401611724906136e8565b60405180910390fd5b80600460008573ffffffffffffffffffffffffffffffffffffffff1673ffffffffffffffffffffffffffffffffffffffff16815260200190815260200160002060008473ffffffffffffffffffffffffffffffffffffffff1673ffffffffffffffffffffffffffffffffffffffff168152602001908152602001600020819055508173ffffffffffffffffffffffffffffffffffffffff168373ffffffffffffffffffffffffffffffffffffffff167f8c5be1e5ebec7d5bd14f71427d1e84f3dd0314c0f7b2291e5b200ac8c7c3b9258360405161180b919061315b565b60405180910390a3505050565b600073ffffffffffffffffffffffffffffffffffffffff168373ffffffffffffffffffffffffffffffffffffffff161415611888576040517f08c379a000000000000000000000000000000000000000000000000000000000815260040161187f9061377a565b60405180910390fd5b600073ffffffffffffffffffffffffffffffffffffffff168273ffffffffffffffffffffffffffffffffffffffff1614156118f8576040517f08c379a00000000000000000000000000000000000000000000000000000000081526004016118ef9061380c565b60405180910390fd5b6000811161193b576040517f08c379a00000000000000000000000000000000000000000000000000000000081526004016119329061389e565b60405180910390fd5b611943610e8b565b73ffffffffffffffffffffffffffffffffffffffff168373ffffffffffffffffffffffffffffffffffffffff16141580156119b15750611981610e8b565b73ffffffffffffffffffffffffffffffffffffffff168273ffffffffffffffffffffffffffffffffffffffff1614155b15611eeb57601660149054906101000a900460ff16611a40576119d2610e8b565b73ffffffffffffffffffffffffffffffffffffffff168373ffffffffffffffffffffffffffffffffffffffff1614611a3f576040517f08c379a0000000000000000000000000000000000000000000000000000000008152600401611a3690613930565b60405180910390fd5b5b601754811115611a85576040517f08c379a0000000000000000000000000000000000000000000000000000000008152600401611a7c9061399c565b60405180910390fd5b601160008473ffffffffffffffffffffffffffffffffffffffff1673ffffffffffffffffffffffffffffffffffffffff16815260200190815260200160002060009054906101000a900460ff16158015611b295750601160008373ffffffffffffffffffffffffffffffffffffffff1673ffffffffffffffffffffffffffffffffffffffff16815260200190815260200160002060009054906101000a900460ff16155b611b68576040517f08c379a0000000000000000000000000000000000000000000000000000000008152600401611b5f90613a2e565b60405180910390fd5b6008544311158015611bc75750601660009054906101000a900473ffffffffffffffffffffffffffffffffffffffff1673ffffffffffffffffffffffffffffffffffffffff168373ffffffffffffffffffffffffffffffffffffffff16145b8015611c215750601560009054906101000a900473ffffffffffffffffffffffffffffffffffffffff1673ffffffffffffffffffffffffffffffffffffffff168273ffffffffffffffffffffffffffffffffffffffff1614155b8015611c5957503073ffffffffffffffffffffffffffffffffffffffff168273ffffffffffffffffffffffffffffffffffffffff1614155b15611cb7576001601160008473ffffffffffffffffffffffffffffffffffffffff1673ffffffffffffffffffffffffffffffffffffffff16815260200190815260200160002060006101000a81548160ff0219169083151502179055505b601660009054906101000a900473ffffffffffffffffffffffffffffffffffffffff1673ffffffffffffffffffffffffffffffffffffffff168273ffffffffffffffffffffffffffffffffffffffff1614611d645760185481611d1984610c42565b611d239190613a4e565b10611d63576040517f08c379a0000000000000000000000000000000000000000000000000000000008152600401611d5a90613b16565b60405180910390fd5b5b6000611d6f30610c42565b9050600060195482101590506017548210611d8a5760175491505b808015611da45750601660159054906101000a900460ff16155b8015611dfe5750601660009054906101000a900473ffffffffffffffffffffffffffffffffffffffff1673ffffffffffffffffffffffffffffffffffffffff168573ffffffffffffffffffffffffffffffffffffffff1614155b8015611e14575060168054906101000a900460ff165b8015611e6a5750600560008673ffffffffffffffffffffffffffffffffffffffff1673ffffffffffffffffffffffffffffffffffffffff16815260200190815260200160002060009054906101000a900460ff16155b8015611ec05750600560008573ffffffffffffffffffffffffffffffffffffffff1673ffffffffffffffffffffffffffffffffffffffff16815260200190815260200160002060009054906101000a900460ff16155b15611ee857611ece826123b9565b60004790506000811115611ee657611ee547612250565b5b505b50505b600060019050600560008573ffffffffffffffffffffffffffffffffffffffff1673ffffffffffffffffffffffffffffffffffffffff16815260200190815260200160002060009054906101000a900460ff1680611f925750600560008473ffffffffffffffffffffffffffffffffffffffff1673ffffffffffffffffffffffffffffffffffffffff16815260200190815260200160002060009054906101000a900460ff165b806120455750601660009054906101000a900473ffffffffffffffffffffffffffffffffffffffff1673ffffffffffffffffffffffffffffffffffffffff168473ffffffffffffffffffffffffffffffffffffffff16141580156120445750601660009054906101000a900473ffffffffffffffffffffffffffffffffffffffff1673ffffffffffffffffffffffffffffffffffffffff168373ffffffffffffffffffffffffffffffffffffffff1614155b5b1561205357600090506121da565b601660009054906101000a900473ffffffffffffffffffffffffffffffffffffffff1673ffffffffffffffffffffffffffffffffffffffff168473ffffffffffffffffffffffffffffffffffffffff161480156120fe5750601560009054906101000a900473ffffffffffffffffffffffffffffffffffffffff1673ffffffffffffffffffffffffffffffffffffffff168373ffffffffffffffffffffffffffffffffffffffff1614155b1561211657600954600d81905550600a54600e819055505b601660009054906101000a900473ffffffffffffffffffffffffffffffffffffffff1673ffffffffffffffffffffffffffffffffffffffff168373ffffffffffffffffffffffffffffffffffffffff161480156121c15750601560009054906101000a900473ffffffffffffffffffffffffffffffffffffffff1673ffffffffffffffffffffffffffffffffffffffff168473ffffffffffffffffffffffffffffffffffffffff1614155b156121d957600b54600d81905550600c54600e819055505b5b6121e684848484612632565b50505050565b6000838311158290612234576040517f08c379a000000000000000000000000000000000000000000000000000000000815260040161222b9190613004565b60405180910390fd5b50600083856122439190613b36565b9050809150509392505050565b601360009054906101000a900473ffffffffffffffffffffffffffffffffffffffff1673ffffffffffffffffffffffffffffffffffffffff166108fc6122a060028461265f90919063ffffffff16565b9081150290604051600060405180830381858888f193505050501580156122cb573d6000803e3d6000fd5b50601460009054906101000a900473ffffffffffffffffffffffffffffffffffffffff1673ffffffffffffffffffffffffffffffffffffffff166108fc61231c60028461265f90919063ffffffff16565b9081150290604051600060405180830381858888f19350505050158015612347573d6000803e3d6000fd5b5050565b6000600654821115612392576040517f08c379a000000000000000000000000000000000000000000000000000000000815260040161238990613bdc565b60405180910390fd5b600061239c6126a9565b90506123b1818461265f90919063ffffffff16565b915050919050565b6001601660156101000a81548160ff0219169083151502179055506000600267ffffffffffffffff8111156123f1576123f0612d92565b5b60405190808252806020026020018201604052801561241f5781602001602082028036833780820191505090505b5090503081600081518110612437576124366134ab565b5b602002602001019073ffffffffffffffffffffffffffffffffffffffff16908173ffffffffffffffffffffffffffffffffffffffff1681525050601560009054906101000a900473ffffffffffffffffffffffffffffffffffffffff1673ffffffffffffffffffffffffffffffffffffffff1663ad5c46486040518163ffffffff1660e01b8152600401602060405180830381865afa1580156124de573d6000803e3d6000fd5b505050506040513d601f19601f820116820180604052508101906125029190613c11565b81600181518110612516576125156134ab565b5b602002602001019073ffffffffffffffffffffffffffffffffffffffff16908173ffffffffffffffffffffffffffffffffffffffff168152505061257d30601560009054906101000a900473ffffffffffffffffffffffffffffffffffffffff168461164d565b601560009054906101000a900473ffffffffffffffffffffffffffffffffffffffff1673ffffffffffffffffffffffffffffffffffffffff1663791ac9478360008430426040518663ffffffff1660e01b81526004016125e1959493929190613d37565b600060405180830381600087803b1580156125fb57600080fd5b505af115801561260f573d6000803e3d6000fd5b50505050506000601660156101000a81548160ff02191690831515021790555050565b806126405761263f6126d4565b5b61264b848484612717565b80612659576126586128e2565b5b50505050565b60006126a183836040518060400160405280601a81526020017f536166654d6174683a206469766973696f6e206279207a65726f0000000000008152506128f6565b905092915050565b60008060006126b6612959565b915091506126cd818361265f90919063ffffffff16565b9250505090565b6000600d541480156126e857506000600e54145b156126f257612715565b600d54600f81905550600e546010819055506000600d819055506000600e819055505b565b600080600080600080612729876129c7565b95509550955095509550955061278786600260008c73ffffffffffffffffffffffffffffffffffffffff1673ffffffffffffffffffffffffffffffffffffffff16815260200190815260200160002054612a2f90919063ffffffff16565b600260008b73ffffffffffffffffffffffffffffffffffffffff1673ffffffffffffffffffffffffffffffffffffffff1681526020019081526020016000208190555061281c85600260008b73ffffffffffffffffffffffffffffffffffffffff1673ffffffffffffffffffffffffffffffffffffffff16815260200190815260200160002054612a7990919063ffffffff16565b600260008a73ffffffffffffffffffffffffffffffffffffffff1673ffffffffffffffffffffffffffffffffffffffff1681526020019081526020016000208190555061286881612ad7565b6128728483612b94565b8773ffffffffffffffffffffffffffffffffffffffff168973ffffffffffffffffffffffffffffffffffffffff167fddf252ad1be2c89b69c2b068fc378daa952ba7f163c4a11628f55a4df523b3ef856040516128cf919061315b565b60405180910390a3505050505050505050565b600f54600d81905550601054600e81905550565b6000808311829061293d576040517f08c379a00000000000000000000000000000000000000000000000000000000081526004016129349190613004565b60405180910390fd5b506000838561294c9190613dc0565b9050809150509392505050565b6000806000600654905060006c01431e0fae6d7217caa000000090506129976c01431e0fae6d7217caa000000060065461265f90919063ffffffff16565b8210156129ba576006546c01431e0fae6d7217caa00000009350935050506129c3565b81819350935050505b9091565b60008060008060008060008060006129e48a600d54600e54612bce565b92509250925060006129f46126a9565b90506000806000612a078e878787612c64565b9250925092508282828989899c509c509c509c509c509c505050505050505091939550919395565b6000612a7183836040518060400160405280601e81526020017f536166654d6174683a207375627472616374696f6e206f766572666c6f7700008152506121ec565b905092915050565b6000808284612a889190613a4e565b905083811015612acd576040517f08c379a0000000000000000000000000000000000000000000000000000000008152600401612ac490613e3d565b60405180910390fd5b8091505092915050565b6000612ae16126a9565b90506000612af88284612ced90919063ffffffff16565b9050612b4c81600260003073ffffffffffffffffffffffffffffffffffffffff1673ffffffffffffffffffffffffffffffffffffffff16815260200190815260200160002054612a7990919063ffffffff16565b600260003073ffffffffffffffffffffffffffffffffffffffff1673ffffffffffffffffffffffffffffffffffffffff16815260200190815260200160002081905550505050565b612ba982600654612a2f90919063ffffffff16565b600681905550612bc481600754612a7990919063ffffffff16565b6007819055505050565b600080600080612bfa6064612bec888a612ced90919063ffffffff16565b61265f90919063ffffffff16565b90506000612c246064612c16888b612ced90919063ffffffff16565b61265f90919063ffffffff16565b90506000612c4d82612c3f858c612a2f90919063ffffffff16565b612a2f90919063ffffffff16565b905080838395509550955050505093509350939050565b600080600080612c7d8589612ced90919063ffffffff16565b90506000612c948689612ced90919063ffffffff16565b90506000612cab8789612ced90919063ffffffff16565b90506000612cd482612cc68587612a2f90919063ffffffff16565b612a2f90919063ffffffff16565b9050838184965096509650505050509450945094915050565b600080831415612d005760009050612d62565b60008284612d0e9190613e5d565b9050828482612d1d9190613dc0565b14612d5d576040517f08c379a0000000000000000000000000000000000000000000000000000000008152600401612d5490613f29565b60405180910390fd5b809150505b92915050565b6000604051905090565b600080fd5b600080fd5b600080fd5b6000601f19601f8301169050919050565b7f4e487b7100000000000000000000000000000000000000000000000000000000600052604160045260246000fd5b612dca82612d81565b810181811067ffffffffffffffff82111715612de957612de8612d92565b5b80604052505050565b6000612dfc612d68565b9050612e088282612dc1565b919050565b600067ffffffffffffffff821115612e2857612e27612d92565b5b602082029050602081019050919050565b600080fd5b600073ffffffffffffffffffffffffffffffffffffffff82169050919050565b6000612e6982612e3e565b9050919050565b612e7981612e5e565b8114612e8457600080fd5b50565b600081359050612e9681612e70565b92915050565b6000612eaf612eaa84612e0d565b612df2565b90508083825260208201905060208402830185811115612ed257612ed1612e39565b5b835b81811015612efb5780612ee78882612e87565b845260208401935050602081019050612ed4565b5050509392505050565b600082601f830112612f1a57612f19612d7c565b5b8135612f2a848260208601612e9c565b91505092915050565b600060208284031215612f4957612f48612d72565b5b600082013567ffffffffffffffff811115612f6757612f66612d77565b5b612f7384828501612f05565b91505092915050565b600081519050919050565b600082825260208201905092915050565b60005b83811015612fb6578082015181840152602081019050612f9b565b83811115612fc5576000848401525b50505050565b6000612fd682612f7c565b612fe08185612f87565b9350612ff0818560208601612f98565b612ff981612d81565b840191505092915050565b6000602082019050818103600083015261301e8184612fcb565b905092915050565b6000819050919050565b61303981613026565b811461304457600080fd5b50565b60008135905061305681613030565b92915050565b6000806040838503121561307357613072612d72565b5b600061308185828601612e87565b925050602061309285828601613047565b9150509250929050565b60008115159050919050565b6130b18161309c565b82525050565b60006020820190506130cc60008301846130a8565b92915050565b6000819050919050565b60006130f76130f26130ed84612e3e565b6130d2565b612e3e565b9050919050565b6000613109826130dc565b9050919050565b600061311b826130fe565b9050919050565b61312b81613110565b82525050565b60006020820190506131466000830184613122565b92915050565b61315581613026565b82525050565b6000602082019050613170600083018461314c565b92915050565b60008060006060848603121561318f5761318e612d72565b5b600061319d86828701612e87565b93505060206131ae86828701612e87565b92505060406131bf86828701613047565b9150509250925092565b600060ff82169050919050565b6131df816131c9565b82525050565b60006020820190506131fa60008301846131d6565b92915050565b61320981612e5e565b82525050565b60006020820190506132246000830184613200565b92915050565b6000602082840312156132405761323f612d72565b5b600061324e84828501612e87565b91505092915050565b6132608161309c565b811461326b57600080fd5b50565b60008135905061327d81613257565b92915050565b60006020828403121561329957613298612d72565b5b60006132a78482850161326e565b91505092915050565b6000602082840312156132c6576132c5612d72565b5b60006132d484828501613047565b91505092915050565b600080600080608085870312156132f7576132f6612d72565b5b600061330587828801613047565b945050602061331687828801613047565b935050604061332787828801613047565b925050606061333887828801613047565b91505092959194509250565b600080fd5b60008083601f84011261335f5761335e612d7c565b5b8235905067ffffffffffffffff81111561337c5761337b613344565b5b60208301915083602082028301111561339857613397612e39565b5b9250929050565b6000806000604084860312156133b8576133b7612d72565b5b600084013567ffffffffffffffff8111156133d6576133d5612d77565b5b6133e286828701613349565b935093505060206133f58682870161326e565b9150509250925092565b6000806040838503121561341657613415612d72565b5b600061342485828601612e87565b925050602061343585828601612e87565b9150509250929050565b7f4f776e61626c653a2063616c6c6572206973206e6f7420746865206f776e6572600082015250565b6000613475602083612f87565b91506134808261343f565b602082019050919050565b600060208201905081810360008301526134a481613468565b9050919050565b7f4e487b7100000000000000000000000000000000000000000000000000000000600052603260045260246000fd5b7f4e487b7100000000000000000000000000000000000000000000000000000000600052601160045260246000fd5b600061351482613026565b91507fffffffffffffffffffffffffffffffffffffffffffffffffffffffffffffffff821415613547576135466134da565b5b600182019050919050565b7f4f776e61626c653a206e6577206f776e657220697320746865207a65726f206160008201527f6464726573730000000000000000000000000000000000000000000000000000602082015250565b60006135ae602683612f87565b91506135b982613552565b604082019050919050565b600060208201905081810360008301526135dd816135a1565b9050919050565b7f45524332303a20617070726f76652066726f6d20746865207a65726f2061646460008201527f7265737300000000000000000000000000000000000000000000000000000000602082015250565b6000613640602483612f87565b915061364b826135e4565b604082019050919050565b6000602082019050818103600083015261366f81613633565b9050919050565b7f45524332303a20617070726f766520746f20746865207a65726f20616464726560008201527f7373000000000000000000000000000000000000000000000000000000000000602082015250565b60006136d2602283612f87565b91506136dd82613676565b604082019050919050565b60006020820190508181036000830152613701816136c5565b9050919050565b7f45524332303a207472616e736665722066726f6d20746865207a65726f20616460008201527f6472657373000000000000000000000000000000000000000000000000000000602082015250565b6000613764602583612f87565b915061376f82613708565b604082019050919050565b6000602082019050818103600083015261379381613757565b9050919050565b7f45524332303a207472616e7366657220746f20746865207a65726f206164647260008201527f6573730000000000000000000000000000000000000000000000000000000000602082015250565b60006137f6602383612f87565b91506138018261379a565b604082019050919050565b60006020820190508181036000830152613825816137e9565b9050919050565b7f5472616e7366657220616d6f756e74206d75737420626520677265617465722060008201527f7468616e207a65726f0000000000000000000000000000000000000000000000602082015250565b6000613888602983612f87565b91506138938261382c565b604082019050919050565b600060208201905081810360008301526138b78161387b565b9050919050565b7f544f4b454e3a2054686973206163636f756e742063616e6e6f742073656e642060008201527f746f6b656e7320756e74696c2074726164696e6720697320656e61626c656400602082015250565b600061391a603f83612f87565b9150613925826138be565b604082019050919050565b600060208201905081810360008301526139498161390d565b9050919050565b7f544f4b454e3a204d6178205472616e73616374696f6e204c696d697400000000600082015250565b6000613986601c83612f87565b915061399182613950565b602082019050919050565b600060208201905081810360008301526139b581613979565b9050919050565b7f544f4b454e3a20596f7572206163636f756e7420697320626c61636b6c69737460008201527f6564210000000000000000000000000000000000000000000000000000000000602082015250565b6000613a18602383612f87565b9150613a23826139bc565b604082019050919050565b60006020820190508181036000830152613a4781613a0b565b9050919050565b6000613a5982613026565b9150613a6483613026565b9250827fffffffffffffffffffffffffffffffffffffffffffffffffffffffffffffffff03821115613a9957613a986134da565b5b828201905092915050565b7f544f4b454e3a2042616c616e636520657863656564732077616c6c657420736960008201527f7a65210000000000000000000000000000000000000000000000000000000000602082015250565b6000613b00602383612f87565b9150613b0b82613aa4565b604082019050919050565b60006020820190508181036000830152613b2f81613af3565b9050919050565b6000613b4182613026565b9150613b4c83613026565b925082821015613b5f57613b5e6134da565b5b828203905092915050565b7f416d6f756e74206d757374206265206c657373207468616e20746f74616c207260008201527f65666c656374696f6e7300000000000000000000000000000000000000000000602082015250565b6000613bc6602a83612f87565b9150613bd182613b6a565b604082019050919050565b60006020820190508181036000830152613bf581613bb9565b9050919050565b600081519050613c0b81612e70565b92915050565b600060208284031215613c2757613c26612d72565b5b6000613c3584828501613bfc565b91505092915050565b6000819050919050565b6000613c63613c5e613c5984613c3e565b6130d2565b613026565b9050919050565b613c7381613c48565b82525050565b600081519050919050565b600082825260208201905092915050565b6000819050602082019050919050565b613cae81612e5e565b82525050565b6000613cc08383613ca5565b60208301905092915050565b6000602082019050919050565b6000613ce482613c79565b613cee8185613c84565b9350613cf983613c95565b8060005b83811015613d2a578151613d118882613cb4565b9750613d1c83613ccc565b925050600181019050613cfd565b5085935050505092915050565b600060a082019050613d4c600083018861314c565b613d596020830187613c6a565b8181036040830152613d6b8186613cd9565b9050613d7a6060830185613200565b613d87608083018461314c565b9695505050505050565b7f4e487b7100000000000000000000000000000000000000000000000000000000600052601260045260246000fd5b6000613dcb82613026565b9150613dd683613026565b925082613de657613de5613d91565b5b828204905092915050565b7f536166654d6174683a206164646974696f6e206f766572666c6f770000000000600082015250565b6000613e27601b83612f87565b9150613e3282613df1565b602082019050919050565b60006020820190508181036000830152613e5681613e1a565b9050919050565b6000613e6882613026565b9150613e7383613026565b9250817fffffffffffffffffffffffffffffffffffffffffffffffffffffffffffffffff0483118215151615613eac57613eab6134da565b5b828202905092915050565b7f536166654d6174683a206d756c7469706c69636174696f6e206f766572666c6f60008201527f7700000000000000000000000000000000000000000000000000000000000000602082015250565b6000613f13602183612f87565b9150613f1e82613eb7565b604082019050919050565b60006020820190508181036000830152613f4281613f06565b905091905056fe45524332303a207472616e7366657220616d6f756e74206578636565647320616c6c6f77616e6365a26469706673582212201bbb753dcc27154c61adae298fda3c4fda0320752ef4c55d3f9810e73a374c3e64736f6c634300080c0033",
			"opcodes": "PUSH1 0x80 PUSH1 0x40 MSTORE PUSH13 0x1431E0FAE6D7217CAA0000000 PUSH1 0x0 NOT PUSH3 0x21 SWAP2 SWAP1 PUSH3 0x7FB JUMP JUMPDEST PUSH1 0x0 NOT PUSH3 0x30 SWAP2 SWAP1 PUSH3 0x862 JUMP JUMPDEST PUSH1 0x6 SSTORE PUSH1 0x1 PUSH1 0x9 SSTORE PUSH1 0xE PUSH1 0xA SSTORE PUSH1 0x1 PUSH1 0xB SSTORE PUSH1 0x18 PUSH1 0xC SSTORE PUSH1 0xB SLOAD PUSH1 0xD SSTORE PUSH1 0xC SLOAD PUSH1 0xE SSTORE PUSH1 0xD SLOAD PUSH1 0xF SSTORE PUSH1 0xE SLOAD PUSH1 0x10 SSTORE PUSH20 0x97D81049398454A7184F4B651C5FF7DE3EC3BA8F PUSH1 0x13 PUSH1 0x0 PUSH2 0x100 EXP DUP2 SLOAD DUP2 PUSH20 0xFFFFFFFFFFFFFFFFFFFFFFFFFFFFFFFFFFFFFFFF MUL NOT AND SWAP1 DUP4 PUSH20 0xFFFFFFFFFFFFFFFFFFFFFFFFFFFFFFFFFFFFFFFF AND MUL OR SWAP1 SSTORE POP PUSH20 0xEFDCF937E28D04BB8A3E837157CD99AC9C72C91F PUSH1 0x14 PUSH1 0x0 PUSH2 0x100 EXP DUP2 SLOAD DUP2 PUSH20 0xFFFFFFFFFFFFFFFFFFFFFFFFFFFFFFFFFFFFFFFF MUL NOT AND SWAP1 DUP4 PUSH20 0xFFFFFFFFFFFFFFFFFFFFFFFFFFFFFFFFFFFFFFFF AND MUL OR SWAP1 SSTORE POP PUSH1 0x0 PUSH1 0x16 PUSH1 0x15 PUSH2 0x100 EXP DUP2 SLOAD DUP2 PUSH1 0xFF MUL NOT AND SWAP1 DUP4 ISZERO ISZERO MUL OR SWAP1 SSTORE POP PUSH1 0x1 PUSH1 0x16 DUP1 PUSH2 0x100 EXP DUP2 SLOAD DUP2 PUSH1 0xFF MUL NOT AND SWAP1 DUP4 ISZERO ISZERO MUL OR SWAP1 SSTORE POP PUSH12 0x19D971E4FE8410748A51000 PUSH1 0x17 SSTORE PUSH12 0x19D971E4FE8410748A51000 PUSH1 0x18 SSTORE PUSH11 0x84595161401484A000000 PUSH1 0x19 SSTORE CALLVALUE DUP1 ISZERO PUSH3 0x17A JUMPI PUSH1 0x0 DUP1 REVERT JUMPDEST POP PUSH1 0x0 PUSH3 0x18D PUSH3 0x791 PUSH1 0x20 SHL PUSH1 0x20 SHR JUMP JUMPDEST SWAP1 POP DUP1 PUSH1 0x0 DUP1 PUSH2 0x100 EXP DUP2 SLOAD DUP2 PUSH20 0xFFFFFFFFFFFFFFFFFFFFFFFFFFFFFFFFFFFFFFFF MUL NOT AND SWAP1 DUP4 PUSH20 0xFFFFFFFFFFFFFFFFFFFFFFFFFFFFFFFFFFFFFFFF AND MUL OR SWAP1 SSTORE POP DUP1 PUSH20 0xFFFFFFFFFFFFFFFFFFFFFFFFFFFFFFFFFFFFFFFF AND PUSH1 0x0 PUSH20 0xFFFFFFFFFFFFFFFFFFFFFFFFFFFFFFFFFFFFFFFF AND PUSH32 0x8BE0079C531659141344CD1FD0A4F28419497F9722A3DAAFE3B4186F6B6457E0 PUSH1 0x40 MLOAD PUSH1 0x40 MLOAD DUP1 SWAP2 SUB SWAP1 LOG3 POP PUSH1 0x6 SLOAD PUSH1 0x2 PUSH1 0x0 PUSH3 0x242 PUSH3 0x791 PUSH1 0x20 SHL PUSH1 0x20 SHR JUMP JUMPDEST PUSH20 0xFFFFFFFFFFFFFFFFFFFFFFFFFFFFFFFFFFFFFFFF AND PUSH20 0xFFFFFFFFFFFFFFFFFFFFFFFFFFFFFFFFFFFFFFFF AND DUP2 MSTORE PUSH1 0x20 ADD SWAP1 DUP2 MSTORE PUSH1 0x20 ADD PUSH1 0x0 KECCAK256 DUP2 SWAP1 SSTORE POP PUSH1 0x0 PUSH20 0x7A250D5630B4CF539739DF2C5DACB4C659F2488D SWAP1 POP DUP1 PUSH1 0x15 PUSH1 0x0 PUSH2 0x100 EXP DUP2 SLOAD DUP2 PUSH20 0xFFFFFFFFFFFFFFFFFFFFFFFFFFFFFFFFFFFFFFFF MUL NOT AND SWAP1 DUP4 PUSH20 0xFFFFFFFFFFFFFFFFFFFFFFFFFFFFFFFFFFFFFFFF AND MUL OR SWAP1 SSTORE POP DUP1 PUSH20 0xFFFFFFFFFFFFFFFFFFFFFFFFFFFFFFFFFFFFFFFF AND PUSH4 0xC45A0155 PUSH1 0x40 MLOAD DUP2 PUSH4 0xFFFFFFFF AND PUSH1 0xE0 SHL DUP2 MSTORE PUSH1 0x4 ADD PUSH1 0x20 PUSH1 0x40 MLOAD DUP1 DUP4 SUB DUP2 DUP7 GAS STATICCALL ISZERO DUP1 ISZERO PUSH3 0x326 JUMPI RETURNDATASIZE PUSH1 0x0 DUP1 RETURNDATACOPY RETURNDATASIZE PUSH1 0x0 REVERT JUMPDEST POP POP POP POP PUSH1 0x40 MLOAD RETURNDATASIZE PUSH1 0x1F NOT PUSH1 0x1F DUP3 ADD AND DUP3 ADD DUP1 PUSH1 0x40 MSTORE POP DUP2 ADD SWAP1 PUSH3 0x34C SWAP2 SWAP1 PUSH3 0x907 JUMP JUMPDEST PUSH20 0xFFFFFFFFFFFFFFFFFFFFFFFFFFFFFFFFFFFFFFFF AND PUSH4 0xC9C65396 ADDRESS DUP4 PUSH20 0xFFFFFFFFFFFFFFFFFFFFFFFFFFFFFFFFFFFFFFFF AND PUSH4 0xAD5C4648 PUSH1 0x40 MLOAD DUP2 PUSH4 0xFFFFFFFF AND PUSH1 0xE0 SHL DUP2 MSTORE PUSH1 0x4 ADD PUSH1 0x20 PUSH1 0x40 MLOAD DUP1 DUP4 SUB DUP2 DUP7 GAS STATICCALL ISZERO DUP1 ISZERO PUSH3 0x3B4 JUMPI RETURNDATASIZE PUSH1 0x0 DUP1 RETURNDATACOPY RETURNDATASIZE PUSH1 0x0 REVERT JUMPDEST POP POP POP POP PUSH1 0x40 MLOAD RETURNDATASIZE PUSH1 0x1F NOT PUSH1 0x1F DUP3 ADD AND DUP3 ADD DUP1 PUSH1 0x40 MSTORE POP DUP2 ADD SWAP1 PUSH3 0x3DA SWAP2 SWAP1 PUSH3 0x907 JUMP JUMPDEST PUSH1 0x40 MLOAD DUP4 PUSH4 0xFFFFFFFF AND PUSH1 0xE0 SHL DUP2 MSTORE PUSH1 0x4 ADD PUSH3 0x3F9 SWAP3 SWAP2 SWAP1 PUSH3 0x94A JUMP JUMPDEST PUSH1 0x20 PUSH1 0x40 MLOAD DUP1 DUP4 SUB DUP2 PUSH1 0x0 DUP8 GAS CALL ISZERO DUP1 ISZERO PUSH3 0x419 JUMPI RETURNDATASIZE PUSH1 0x0 DUP1 RETURNDATACOPY RETURNDATASIZE PUSH1 0x0 REVERT JUMPDEST POP POP POP POP PUSH1 0x40 MLOAD RETURNDATASIZE PUSH1 0x1F NOT PUSH1 0x1F DUP3 ADD AND DUP3 ADD DUP1 PUSH1 0x40 MSTORE POP DUP2 ADD SWAP1 PUSH3 0x43F SWAP2 SWAP1 PUSH3 0x907 JUMP JUMPDEST PUSH1 0x16 PUSH1 0x0 PUSH2 0x100 EXP DUP2 SLOAD DUP2 PUSH20 0xFFFFFFFFFFFFFFFFFFFFFFFFFFFFFFFFFFFFFFFF MUL NOT AND SWAP1 DUP4 PUSH20 0xFFFFFFFFFFFFFFFFFFFFFFFFFFFFFFFFFFFFFFFF AND MUL OR SWAP1 SSTORE POP PUSH1 0x1 PUSH1 0x5 PUSH1 0x0 PUSH3 0x495 PUSH3 0x799 PUSH1 0x20 SHL PUSH1 0x20 SHR JUMP JUMPDEST PUSH20 0xFFFFFFFFFFFFFFFFFFFFFFFFFFFFFFFFFFFFFFFF AND PUSH20 0xFFFFFFFFFFFFFFFFFFFFFFFFFFFFFFFFFFFFFFFF AND DUP2 MSTORE PUSH1 0x20 ADD SWAP1 DUP2 MSTORE PUSH1 0x20 ADD PUSH1 0x0 KECCAK256 PUSH1 0x0 PUSH2 0x100 EXP DUP2 SLOAD DUP2 PUSH1 0xFF MUL NOT AND SWAP1 DUP4 ISZERO ISZERO MUL OR SWAP1 SSTORE POP PUSH1 0x1 PUSH1 0x5 PUSH1 0x0 ADDRESS PUSH20 0xFFFFFFFFFFFFFFFFFFFFFFFFFFFFFFFFFFFFFFFF AND PUSH20 0xFFFFFFFFFFFFFFFFFFFFFFFFFFFFFFFFFFFFFFFF AND DUP2 MSTORE PUSH1 0x20 ADD SWAP1 DUP2 MSTORE PUSH1 0x20 ADD PUSH1 0x0 KECCAK256 PUSH1 0x0 PUSH2 0x100 EXP DUP2 SLOAD DUP2 PUSH1 0xFF MUL NOT AND SWAP1 DUP4 ISZERO ISZERO MUL OR SWAP1 SSTORE POP PUSH1 0x1 PUSH1 0x5 PUSH1 0x0 PUSH1 0x13 PUSH1 0x0 SWAP1 SLOAD SWAP1 PUSH2 0x100 EXP SWAP1 DIV PUSH20 0xFFFFFFFFFFFFFFFFFFFFFFFFFFFFFFFFFFFFFFFF AND PUSH20 0xFFFFFFFFFFFFFFFFFFFFFFFFFFFFFFFFFFFFFFFF AND PUSH20 0xFFFFFFFFFFFFFFFFFFFFFFFFFFFFFFFFFFFFFFFF AND DUP2 MSTORE PUSH1 0x20 ADD SWAP1 DUP2 MSTORE PUSH1 0x20 ADD PUSH1 0x0 KECCAK256 PUSH1 0x0 PUSH2 0x100 EXP DUP2 SLOAD DUP2 PUSH1 0xFF MUL NOT AND SWAP1 DUP4 ISZERO ISZERO MUL OR SWAP1 SSTORE POP PUSH1 0x1 PUSH1 0x5 PUSH1 0x0 PUSH1 0x14 PUSH1 0x0 SWAP1 SLOAD SWAP1 PUSH2 0x100 EXP SWAP1 DIV PUSH20 0xFFFFFFFFFFFFFFFFFFFFFFFFFFFFFFFFFFFFFFFF AND PUSH20 0xFFFFFFFFFFFFFFFFFFFFFFFFFFFFFFFFFFFFFFFF AND PUSH20 0xFFFFFFFFFFFFFFFFFFFFFFFFFFFFFFFFFFFFFFFF AND DUP2 MSTORE PUSH1 0x20 ADD SWAP1 DUP2 MSTORE PUSH1 0x20 ADD PUSH1 0x0 KECCAK256 PUSH1 0x0 PUSH2 0x100 EXP DUP2 SLOAD DUP2 PUSH1 0xFF MUL NOT AND SWAP1 DUP4 ISZERO ISZERO MUL OR SWAP1 SSTORE POP PUSH1 0x1 PUSH1 0x11 PUSH1 0x0 PUSH20 0x66F049111958809841BBE4B81C034DA2D953AA0C PUSH20 0xFFFFFFFFFFFFFFFFFFFFFFFFFFFFFFFFFFFFFFFF AND PUSH20 0xFFFFFFFFFFFFFFFFFFFFFFFFFFFFFFFFFFFFFFFF AND DUP2 MSTORE PUSH1 0x20 ADD SWAP1 DUP2 MSTORE PUSH1 0x20 ADD PUSH1 0x0 KECCAK256 PUSH1 0x0 PUSH2 0x100 EXP DUP2 SLOAD DUP2 PUSH1 0xFF MUL NOT AND SWAP1 DUP4 ISZERO ISZERO MUL OR SWAP1 SSTORE POP PUSH1 0x1 PUSH1 0x11 PUSH1 0x0 PUSH16 0x5736775FEB0C8568E7DEE77222A26880 PUSH20 0xFFFFFFFFFFFFFFFFFFFFFFFFFFFFFFFFFFFFFFFF AND PUSH20 0xFFFFFFFFFFFFFFFFFFFFFFFFFFFFFFFFFFFFFFFF AND DUP2 MSTORE PUSH1 0x20 ADD SWAP1 DUP2 MSTORE PUSH1 0x20 ADD PUSH1 0x0 KECCAK256 PUSH1 0x0 PUSH2 0x100 EXP DUP2 SLOAD DUP2 PUSH1 0xFF MUL NOT AND SWAP1 DUP4 ISZERO ISZERO MUL OR SWAP1 SSTORE POP PUSH3 0x716 PUSH3 0x791 PUSH1 0x20 SHL PUSH1 0x20 SHR JUMP JUMPDEST PUSH20 0xFFFFFFFFFFFFFFFFFFFFFFFFFFFFFFFFFFFFFFFF AND PUSH1 0x0 PUSH20 0xFFFFFFFFFFFFFFFFFFFFFFFFFFFFFFFFFFFFFFFF AND PUSH32 0xDDF252AD1BE2C89B69C2B068FC378DAA952BA7F163C4A11628F55A4DF523B3EF PUSH13 0x1431E0FAE6D7217CAA0000000 PUSH1 0x40 MLOAD PUSH3 0x782 SWAP2 SWAP1 PUSH3 0x988 JUMP JUMPDEST PUSH1 0x40 MLOAD DUP1 SWAP2 SUB SWAP1 LOG3 POP PUSH3 0x9A5 JUMP JUMPDEST PUSH1 0x0 CALLER SWAP1 POP SWAP1 JUMP JUMPDEST PUSH1 0x0 DUP1 PUSH1 0x0 SWAP1 SLOAD SWAP1 PUSH2 0x100 EXP SWAP1 DIV PUSH20 0xFFFFFFFFFFFFFFFFFFFFFFFFFFFFFFFFFFFFFFFF AND SWAP1 POP SWAP1 JUMP JUMPDEST PUSH1 0x0 DUP2 SWAP1 POP SWAP2 SWAP1 POP JUMP JUMPDEST PUSH32 0x4E487B7100000000000000000000000000000000000000000000000000000000 PUSH1 0x0 MSTORE PUSH1 0x12 PUSH1 0x4 MSTORE PUSH1 0x24 PUSH1 0x0 REVERT JUMPDEST PUSH1 0x0 PUSH3 0x808 DUP3 PUSH3 0x7C2 JUMP JUMPDEST SWAP2 POP PUSH3 0x815 DUP4 PUSH3 0x7C2 JUMP JUMPDEST SWAP3 POP DUP3 PUSH3 0x828 JUMPI PUSH3 0x827 PUSH3 0x7CC JUMP JUMPDEST JUMPDEST DUP3 DUP3 MOD SWAP1 POP SWAP3 SWAP2 POP POP JUMP JUMPDEST PUSH32 0x4E487B7100000000000000000000000000000000000000000000000000000000 PUSH1 0x0 MSTORE PUSH1 0x11 PUSH1 0x4 MSTORE PUSH1 0x24 PUSH1 0x0 REVERT JUMPDEST PUSH1 0x0 PUSH3 0x86F DUP3 PUSH3 0x7C2 JUMP JUMPDEST SWAP2 POP PUSH3 0x87C DUP4 PUSH3 0x7C2 JUMP JUMPDEST SWAP3 POP DUP3 DUP3 LT ISZERO PUSH3 0x892 JUMPI PUSH3 0x891 PUSH3 0x833 JUMP JUMPDEST JUMPDEST DUP3 DUP3 SUB SWAP1 POP SWAP3 SWAP2 POP POP JUMP JUMPDEST PUSH1 0x0 DUP1 REVERT JUMPDEST PUSH1 0x0 PUSH20 0xFFFFFFFFFFFFFFFFFFFFFFFFFFFFFFFFFFFFFFFF DUP3 AND SWAP1 POP SWAP2 SWAP1 POP JUMP JUMPDEST PUSH1 0x0 PUSH3 0x8CF DUP3 PUSH3 0x8A2 JUMP JUMPDEST SWAP1 POP SWAP2 SWAP1 POP JUMP JUMPDEST PUSH3 0x8E1 DUP2 PUSH3 0x8C2 JUMP JUMPDEST DUP2 EQ PUSH3 0x8ED JUMPI PUSH1 0x0 DUP1 REVERT JUMPDEST POP JUMP JUMPDEST PUSH1 0x0 DUP2 MLOAD SWAP1 POP PUSH3 0x901 DUP2 PUSH3 0x8D6 JUMP JUMPDEST SWAP3 SWAP2 POP POP JUMP JUMPDEST PUSH1 0x0 PUSH1 0x20 DUP3 DUP5 SUB SLT ISZERO PUSH3 0x920 JUMPI PUSH3 0x91F PUSH3 0x89D JUMP JUMPDEST JUMPDEST PUSH1 0x0 PUSH3 0x930 DUP5 DUP3 DUP6 ADD PUSH3 0x8F0 JUMP JUMPDEST SWAP2 POP POP SWAP3 SWAP2 POP POP JUMP JUMPDEST PUSH3 0x944 DUP2 PUSH3 0x8C2 JUMP JUMPDEST DUP3 MSTORE POP POP JUMP JUMPDEST PUSH1 0x0 PUSH1 0x40 DUP3 ADD SWAP1 POP PUSH3 0x961 PUSH1 0x0 DUP4 ADD DUP6 PUSH3 0x939 JUMP JUMPDEST PUSH3 0x970 PUSH1 0x20 DUP4 ADD DUP5 PUSH3 0x939 JUMP JUMPDEST SWAP4 SWAP3 POP POP POP JUMP JUMPDEST PUSH3 0x982 DUP2 PUSH3 0x7C2 JUMP JUMPDEST DUP3 MSTORE POP POP JUMP JUMPDEST PUSH1 0x0 PUSH1 0x20 DUP3 ADD SWAP1 POP PUSH3 0x99F PUSH1 0x0 DUP4 ADD DUP5 PUSH3 0x977 JUMP JUMPDEST SWAP3 SWAP2 POP POP JUMP JUMPDEST PUSH2 0x3FA7 DUP1 PUSH3 0x9B5 PUSH1 0x0 CODECOPY PUSH1 0x0 RETURN INVALID PUSH1 0x80 PUSH1 0x40 MSTORE PUSH1 0x4 CALLDATASIZE LT PUSH2 0x1D0 JUMPI PUSH1 0x0 CALLDATALOAD PUSH1 0xE0 SHR DUP1 PUSH4 0x7D1DB4A5 GT PUSH2 0xF7 JUMPI DUP1 PUSH4 0xA9059CBB GT PUSH2 0x95 JUMPI DUP1 PUSH4 0xD00EFB2F GT PUSH2 0x64 JUMPI DUP1 PUSH4 0xD00EFB2F EQ PUSH2 0x648 JUMPI DUP1 PUSH4 0xDD62ED3E EQ PUSH2 0x673 JUMPI DUP1 PUSH4 0xEA1644D5 EQ PUSH2 0x6B0 JUMPI DUP1 PUSH4 0xF2FDE38B EQ PUSH2 0x6D9 JUMPI PUSH2 0x1D7 JUMP JUMPDEST DUP1 PUSH4 0xA9059CBB EQ PUSH2 0x58E JUMPI DUP1 PUSH4 0xBFD79284 EQ PUSH2 0x5CB JUMPI DUP1 PUSH4 0xC3C8CD80 EQ PUSH2 0x608 JUMPI DUP1 PUSH4 0xC492F046 EQ PUSH2 0x61F JUMPI PUSH2 0x1D7 JUMP JUMPDEST DUP1 PUSH4 0x8F9A55C0 GT PUSH2 0xD1 JUMPI DUP1 PUSH4 0x8F9A55C0 EQ PUSH2 0x4E6 JUMPI DUP1 PUSH4 0x95D89B41 EQ PUSH2 0x511 JUMPI DUP1 PUSH4 0x98A5C315 EQ PUSH2 0x53C JUMPI DUP1 PUSH4 0xA2A957BB EQ PUSH2 0x565 JUMPI PUSH2 0x1D7 JUMP JUMPDEST DUP1 PUSH4 0x7D1DB4A5 EQ PUSH2 0x467 JUMPI DUP1 PUSH4 0x8DA5CB5B EQ PUSH2 0x492 JUMPI DUP1 PUSH4 0x8F70CCF7 EQ PUSH2 0x4BD JUMPI PUSH2 0x1D7 JUMP JUMPDEST DUP1 PUSH4 0x313CE567 GT PUSH2 0x16F JUMPI DUP1 PUSH4 0x6FC3EAEC GT PUSH2 0x13E JUMPI DUP1 PUSH4 0x6FC3EAEC EQ PUSH2 0x3D3 JUMPI DUP1 PUSH4 0x70A08231 EQ PUSH2 0x3EA JUMPI DUP1 PUSH4 0x715018A6 EQ PUSH2 0x427 JUMPI DUP1 PUSH4 0x74010ECE EQ PUSH2 0x43E JUMPI PUSH2 0x1D7 JUMP JUMPDEST DUP1 PUSH4 0x313CE567 EQ PUSH2 0x32B JUMPI DUP1 PUSH4 0x49BD5A5E EQ PUSH2 0x356 JUMPI DUP1 PUSH4 0x6B999053 EQ PUSH2 0x381 JUMPI DUP1 PUSH4 0x6D8AA8F8 EQ PUSH2 0x3AA JUMPI PUSH2 0x1D7 JUMP JUMPDEST DUP1 PUSH4 0x1694505E GT PUSH2 0x1AB JUMPI DUP1 PUSH4 0x1694505E EQ PUSH2 0x26D JUMPI DUP1 PUSH4 0x18160DDD EQ PUSH2 0x298 JUMPI DUP1 PUSH4 0x23B872DD EQ PUSH2 0x2C3 JUMPI DUP1 PUSH4 0x2FD689E3 EQ PUSH2 0x300 JUMPI PUSH2 0x1D7 JUMP JUMPDEST DUP1 PUSH3 0xB8CF2A EQ PUSH2 0x1DC JUMPI DUP1 PUSH4 0x6FDDE03 EQ PUSH2 0x205 JUMPI DUP1 PUSH4 0x95EA7B3 EQ PUSH2 0x230 JUMPI PUSH2 0x1D7 JUMP JUMPDEST CALLDATASIZE PUSH2 0x1D7 JUMPI STOP JUMPDEST PUSH1 0x0 DUP1 REVERT JUMPDEST CALLVALUE DUP1 ISZERO PUSH2 0x1E8 JUMPI PUSH1 0x0 DUP1 REVERT JUMPDEST POP PUSH2 0x203 PUSH1 0x4 DUP1 CALLDATASIZE SUB DUP2 ADD SWAP1 PUSH2 0x1FE SWAP2 SWAP1 PUSH2 0x2F33 JUMP JUMPDEST PUSH2 0x702 JUMP JUMPDEST STOP JUMPDEST CALLVALUE DUP1 ISZERO PUSH2 0x211 JUMPI PUSH1 0x0 DUP1 REVERT JUMPDEST POP PUSH2 0x21A PUSH2 0x82C JUMP JUMPDEST PUSH1 0x40 MLOAD PUSH2 0x227 SWAP2 SWAP1 PUSH2 0x3004 JUMP JUMPDEST PUSH1 0x40 MLOAD DUP1 SWAP2 SUB SWAP1 RETURN JUMPDEST CALLVALUE DUP1 ISZERO PUSH2 0x23C JUMPI PUSH1 0x0 DUP1 REVERT JUMPDEST POP PUSH2 0x257 PUSH1 0x4 DUP1 CALLDATASIZE SUB DUP2 ADD SWAP1 PUSH2 0x252 SWAP2 SWAP1 PUSH2 0x305C JUMP JUMPDEST PUSH2 0x869 JUMP JUMPDEST PUSH1 0x40 MLOAD PUSH2 0x264 SWAP2 SWAP1 PUSH2 0x30B7 JUMP JUMPDEST PUSH1 0x40 MLOAD DUP1 SWAP2 SUB SWAP1 RETURN JUMPDEST CALLVALUE DUP1 ISZERO PUSH2 0x279 JUMPI PUSH1 0x0 DUP1 REVERT JUMPDEST POP PUSH2 0x282 PUSH2 0x887 JUMP JUMPDEST PUSH1 0x40 MLOAD PUSH2 0x28F SWAP2 SWAP1 PUSH2 0x3131 JUMP JUMPDEST PUSH1 0x40 MLOAD DUP1 SWAP2 SUB SWAP1 RETURN JUMPDEST CALLVALUE DUP1 ISZERO PUSH2 0x2A4 JUMPI PUSH1 0x0 DUP1 REVERT JUMPDEST POP PUSH2 0x2AD PUSH2 0x8AD JUMP JUMPDEST PUSH1 0x40 MLOAD PUSH2 0x2BA SWAP2 SWAP1 PUSH2 0x315B JUMP JUMPDEST PUSH1 0x40 MLOAD DUP1 SWAP2 SUB SWAP1 RETURN JUMPDEST CALLVALUE DUP1 ISZERO PUSH2 0x2CF JUMPI PUSH1 0x0 DUP1 REVERT JUMPDEST POP PUSH2 0x2EA PUSH1 0x4 DUP1 CALLDATASIZE SUB DUP2 ADD SWAP1 PUSH2 0x2E5 SWAP2 SWAP1 PUSH2 0x3176 JUMP JUMPDEST PUSH2 0x8C2 JUMP JUMPDEST PUSH1 0x40 MLOAD PUSH2 0x2F7 SWAP2 SWAP1 PUSH2 0x30B7 JUMP JUMPDEST PUSH1 0x40 MLOAD DUP1 SWAP2 SUB SWAP1 RETURN JUMPDEST CALLVALUE DUP1 ISZERO PUSH2 0x30C JUMPI PUSH1 0x0 DUP1 REVERT JUMPDEST POP PUSH2 0x315 PUSH2 0x99B JUMP JUMPDEST PUSH1 0x40 MLOAD PUSH2 0x322 SWAP2 SWAP1 PUSH2 0x315B JUMP JUMPDEST PUSH1 0x40 MLOAD DUP1 SWAP2 SUB SWAP1 RETURN JUMPDEST CALLVALUE DUP1 ISZERO PUSH2 0x337 JUMPI PUSH1 0x0 DUP1 REVERT JUMPDEST POP PUSH2 0x340 PUSH2 0x9A1 JUMP JUMPDEST PUSH1 0x40 MLOAD PUSH2 0x34D SWAP2 SWAP1 PUSH2 0x31E5 JUMP JUMPDEST PUSH1 0x40 MLOAD DUP1 SWAP2 SUB SWAP1 RETURN JUMPDEST CALLVALUE DUP1 ISZERO PUSH2 0x362 JUMPI PUSH1 0x0 DUP1 REVERT JUMPDEST POP PUSH2 0x36B PUSH2 0x9AA JUMP JUMPDEST PUSH1 0x40 MLOAD PUSH2 0x378 SWAP2 SWAP1 PUSH2 0x320F JUMP JUMPDEST PUSH1 0x40 MLOAD DUP1 SWAP2 SUB SWAP1 RETURN JUMPDEST CALLVALUE DUP1 ISZERO PUSH2 0x38D JUMPI PUSH1 0x0 DUP1 REVERT JUMPDEST POP PUSH2 0x3A8 PUSH1 0x4 DUP1 CALLDATASIZE SUB DUP2 ADD SWAP1 PUSH2 0x3A3 SWAP2 SWAP1 PUSH2 0x322A JUMP JUMPDEST PUSH2 0x9D0 JUMP JUMPDEST STOP JUMPDEST CALLVALUE DUP1 ISZERO PUSH2 0x3B6 JUMPI PUSH1 0x0 DUP1 REVERT JUMPDEST POP PUSH2 0x3D1 PUSH1 0x4 DUP1 CALLDATASIZE SUB DUP2 ADD SWAP1 PUSH2 0x3CC SWAP2 SWAP1 PUSH2 0x3283 JUMP JUMPDEST PUSH2 0xAC0 JUMP JUMPDEST STOP JUMPDEST CALLVALUE DUP1 ISZERO PUSH2 0x3DF JUMPI PUSH1 0x0 DUP1 REVERT JUMPDEST POP PUSH2 0x3E8 PUSH2 0xB71 JUMP JUMPDEST STOP JUMPDEST CALLVALUE DUP1 ISZERO PUSH2 0x3F6 JUMPI PUSH1 0x0 DUP1 REVERT JUMPDEST POP PUSH2 0x411 PUSH1 0x4 DUP1 CALLDATASIZE SUB DUP2 ADD SWAP1 PUSH2 0x40C SWAP2 SWAP1 PUSH2 0x322A JUMP JUMPDEST PUSH2 0xC42 JUMP JUMPDEST PUSH1 0x40 MLOAD PUSH2 0x41E SWAP2 SWAP1 PUSH2 0x315B JUMP JUMPDEST PUSH1 0x40 MLOAD DUP1 SWAP2 SUB SWAP1 RETURN JUMPDEST CALLVALUE DUP1 ISZERO PUSH2 0x433 JUMPI PUSH1 0x0 DUP1 REVERT JUMPDEST POP PUSH2 0x43C PUSH2 0xC93 JUMP JUMPDEST STOP JUMPDEST CALLVALUE DUP1 ISZERO PUSH2 0x44A JUMPI PUSH1 0x0 DUP1 REVERT JUMPDEST POP PUSH2 0x465 PUSH1 0x4 DUP1 CALLDATASIZE SUB DUP2 ADD SWAP1 PUSH2 0x460 SWAP2 SWAP1 PUSH2 0x32B0 JUMP JUMPDEST PUSH2 0xDE6 JUMP JUMPDEST STOP JUMPDEST CALLVALUE DUP1 ISZERO PUSH2 0x473 JUMPI PUSH1 0x0 DUP1 REVERT JUMPDEST POP PUSH2 0x47C PUSH2 0xE85 JUMP JUMPDEST PUSH1 0x40 MLOAD PUSH2 0x489 SWAP2 SWAP1 PUSH2 0x315B JUMP JUMPDEST PUSH1 0x40 MLOAD DUP1 SWAP2 SUB SWAP1 RETURN JUMPDEST CALLVALUE DUP1 ISZERO PUSH2 0x49E JUMPI PUSH1 0x0 DUP1 REVERT JUMPDEST POP PUSH2 0x4A7 PUSH2 0xE8B JUMP JUMPDEST PUSH1 0x40 MLOAD PUSH2 0x4B4 SWAP2 SWAP1 PUSH2 0x320F JUMP JUMPDEST PUSH1 0x40 MLOAD DUP1 SWAP2 SUB SWAP1 RETURN JUMPDEST CALLVALUE DUP1 ISZERO PUSH2 0x4C9 JUMPI PUSH1 0x0 DUP1 REVERT JUMPDEST POP PUSH2 0x4E4 PUSH1 0x4 DUP1 CALLDATASIZE SUB DUP2 ADD SWAP1 PUSH2 0x4DF SWAP2 SWAP1 PUSH2 0x3283 JUMP JUMPDEST PUSH2 0xEB4 JUMP JUMPDEST STOP JUMPDEST CALLVALUE DUP1 ISZERO PUSH2 0x4F2 JUMPI PUSH1 0x0 DUP1 REVERT JUMPDEST POP PUSH2 0x4FB PUSH2 0xF6D JUMP JUMPDEST PUSH1 0x40 MLOAD PUSH2 0x508 SWAP2 SWAP1 PUSH2 0x315B JUMP JUMPDEST PUSH1 0x40 MLOAD DUP1 SWAP2 SUB SWAP1 RETURN JUMPDEST CALLVALUE DUP1 ISZERO PUSH2 0x51D JUMPI PUSH1 0x0 DUP1 REVERT JUMPDEST POP PUSH2 0x526 PUSH2 0xF73 JUMP JUMPDEST PUSH1 0x40 MLOAD PUSH2 0x533 SWAP2 SWAP1 PUSH2 0x3004 JUMP JUMPDEST PUSH1 0x40 MLOAD DUP1 SWAP2 SUB SWAP1 RETURN JUMPDEST CALLVALUE DUP1 ISZERO PUSH2 0x548 JUMPI PUSH1 0x0 DUP1 REVERT JUMPDEST POP PUSH2 0x563 PUSH1 0x4 DUP1 CALLDATASIZE SUB DUP2 ADD SWAP1 PUSH2 0x55E SWAP2 SWAP1 PUSH2 0x32B0 JUMP JUMPDEST PUSH2 0xFB0 JUMP JUMPDEST STOP JUMPDEST CALLVALUE DUP1 ISZERO PUSH2 0x571 JUMPI PUSH1 0x0 DUP1 REVERT JUMPDEST POP PUSH2 0x58C PUSH1 0x4 DUP1 CALLDATASIZE SUB DUP2 ADD SWAP1 PUSH2 0x587 SWAP2 SWAP1 PUSH2 0x32DD JUMP JUMPDEST PUSH2 0x104F JUMP JUMPDEST STOP JUMPDEST CALLVALUE DUP1 ISZERO PUSH2 0x59A JUMPI PUSH1 0x0 DUP1 REVERT JUMPDEST POP PUSH2 0x5B5 PUSH1 0x4 DUP1 CALLDATASIZE SUB DUP2 ADD SWAP1 PUSH2 0x5B0 SWAP2 SWAP1 PUSH2 0x305C JUMP JUMPDEST PUSH2 0x1106 JUMP JUMPDEST PUSH1 0x40 MLOAD PUSH2 0x5C2 SWAP2 SWAP1 PUSH2 0x30B7 JUMP JUMPDEST PUSH1 0x40 MLOAD DUP1 SWAP2 SUB SWAP1 RETURN JUMPDEST CALLVALUE DUP1 ISZERO PUSH2 0x5D7 JUMPI PUSH1 0x0 DUP1 REVERT JUMPDEST POP PUSH2 0x5F2 PUSH1 0x4 DUP1 CALLDATASIZE SUB DUP2 ADD SWAP1 PUSH2 0x5ED SWAP2 SWAP1 PUSH2 0x322A JUMP JUMPDEST PUSH2 0x1124 JUMP JUMPDEST PUSH1 0x40 MLOAD PUSH2 0x5FF SWAP2 SWAP1 PUSH2 0x30B7 JUMP JUMPDEST PUSH1 0x40 MLOAD DUP1 SWAP2 SUB SWAP1 RETURN JUMPDEST CALLVALUE DUP1 ISZERO PUSH2 0x614 JUMPI PUSH1 0x0 DUP1 REVERT JUMPDEST POP PUSH2 0x61D PUSH2 0x1144 JUMP JUMPDEST STOP JUMPDEST CALLVALUE DUP1 ISZERO PUSH2 0x62B JUMPI PUSH1 0x0 DUP1 REVERT JUMPDEST POP PUSH2 0x646 PUSH1 0x4 DUP1 CALLDATASIZE SUB DUP2 ADD SWAP1 PUSH2 0x641 SWAP2 SWAP1 PUSH2 0x339F JUMP JUMPDEST PUSH2 0x121D JUMP JUMPDEST STOP JUMPDEST CALLVALUE DUP1 ISZERO PUSH2 0x654 JUMPI PUSH1 0x0 DUP1 REVERT JUMPDEST POP PUSH2 0x65D PUSH2 0x1357 JUMP JUMPDEST PUSH1 0x40 MLOAD PUSH2 0x66A SWAP2 SWAP1 PUSH2 0x315B JUMP JUMPDEST PUSH1 0x40 MLOAD DUP1 SWAP2 SUB SWAP1 RETURN JUMPDEST CALLVALUE DUP1 ISZERO PUSH2 0x67F JUMPI PUSH1 0x0 DUP1 REVERT JUMPDEST POP PUSH2 0x69A PUSH1 0x4 DUP1 CALLDATASIZE SUB DUP2 ADD SWAP1 PUSH2 0x695 SWAP2 SWAP1 PUSH2 0x33FF JUMP JUMPDEST PUSH2 0x135D JUMP JUMPDEST PUSH1 0x40 MLOAD PUSH2 0x6A7 SWAP2 SWAP1 PUSH2 0x315B JUMP JUMPDEST PUSH1 0x40 MLOAD DUP1 SWAP2 SUB SWAP1 RETURN JUMPDEST CALLVALUE DUP1 ISZERO PUSH2 0x6BC JUMPI PUSH1 0x0 DUP1 REVERT JUMPDEST POP PUSH2 0x6D7 PUSH1 0x4 DUP1 CALLDATASIZE SUB DUP2 ADD SWAP1 PUSH2 0x6D2 SWAP2 SWAP1 PUSH2 0x32B0 JUMP JUMPDEST PUSH2 0x13E4 JUMP JUMPDEST STOP JUMPDEST CALLVALUE DUP1 ISZERO PUSH2 0x6E5 JUMPI PUSH1 0x0 DUP1 REVERT JUMPDEST POP PUSH2 0x700 PUSH1 0x4 DUP1 CALLDATASIZE SUB DUP2 ADD SWAP1 PUSH2 0x6FB SWAP2 SWAP1 PUSH2 0x322A JUMP JUMPDEST PUSH2 0x1483 JUMP JUMPDEST STOP JUMPDEST PUSH2 0x70A PUSH2 0x1645 JUMP JUMPDEST PUSH20 0xFFFFFFFFFFFFFFFFFFFFFFFFFFFFFFFFFFFFFFFF AND PUSH1 0x0 DUP1 SLOAD SWAP1 PUSH2 0x100 EXP SWAP1 DIV PUSH20 0xFFFFFFFFFFFFFFFFFFFFFFFFFFFFFFFFFFFFFFFF AND PUSH20 0xFFFFFFFFFFFFFFFFFFFFFFFFFFFFFFFFFFFFFFFF AND EQ PUSH2 0x797 JUMPI PUSH1 0x40 MLOAD PUSH32 0x8C379A000000000000000000000000000000000000000000000000000000000 DUP2 MSTORE PUSH1 0x4 ADD PUSH2 0x78E SWAP1 PUSH2 0x348B JUMP JUMPDEST PUSH1 0x40 MLOAD DUP1 SWAP2 SUB SWAP1 REVERT JUMPDEST PUSH1 0x0 JUMPDEST DUP2 MLOAD DUP2 LT ISZERO PUSH2 0x828 JUMPI PUSH1 0x1 PUSH1 0x11 PUSH1 0x0 DUP5 DUP5 DUP2 MLOAD DUP2 LT PUSH2 0x7BC JUMPI PUSH2 0x7BB PUSH2 0x34AB JUMP JUMPDEST JUMPDEST PUSH1 0x20 MUL PUSH1 0x20 ADD ADD MLOAD PUSH20 0xFFFFFFFFFFFFFFFFFFFFFFFFFFFFFFFFFFFFFFFF AND PUSH20 0xFFFFFFFFFFFFFFFFFFFFFFFFFFFFFFFFFFFFFFFF AND DUP2 MSTORE PUSH1 0x20 ADD SWAP1 DUP2 MSTORE PUSH1 0x20 ADD PUSH1 0x0 KECCAK256 PUSH1 0x0 PUSH2 0x100 EXP DUP2 SLOAD DUP2 PUSH1 0xFF MUL NOT AND SWAP1 DUP4 ISZERO ISZERO MUL OR SWAP1 SSTORE POP DUP1 DUP1 PUSH2 0x820 SWAP1 PUSH2 0x3509 JUMP JUMPDEST SWAP2 POP POP PUSH2 0x79A JUMP JUMPDEST POP POP JUMP JUMPDEST PUSH1 0x60 PUSH1 0x40 MLOAD DUP1 PUSH1 0x40 ADD PUSH1 0x40 MSTORE DUP1 PUSH1 0xA DUP2 MSTORE PUSH1 0x20 ADD PUSH32 0x53717569646920496E7500000000000000000000000000000000000000000000 DUP2 MSTORE POP SWAP1 POP SWAP1 JUMP JUMPDEST PUSH1 0x0 PUSH2 0x87D PUSH2 0x876 PUSH2 0x1645 JUMP JUMPDEST DUP5 DUP5 PUSH2 0x164D JUMP JUMPDEST PUSH1 0x1 SWAP1 POP SWAP3 SWAP2 POP POP JUMP JUMPDEST PUSH1 0x15 PUSH1 0x0 SWAP1 SLOAD SWAP1 PUSH2 0x100 EXP SWAP1 DIV PUSH20 0xFFFFFFFFFFFFFFFFFFFFFFFFFFFFFFFFFFFFFFFF AND DUP2 JUMP JUMPDEST PUSH1 0x0 PUSH13 0x1431E0FAE6D7217CAA0000000 SWAP1 POP SWAP1 JUMP JUMPDEST PUSH1 0x0 PUSH2 0x8CF DUP5 DUP5 DUP5 PUSH2 0x1818 JUMP JUMPDEST PUSH2 0x990 DUP5 PUSH2 0x8DB PUSH2 0x1645 JUMP JUMPDEST PUSH2 0x98B DUP6 PUSH1 0x40 MLOAD DUP1 PUSH1 0x60 ADD PUSH1 0x40 MSTORE DUP1 PUSH1 0x28 DUP2 MSTORE PUSH1 0x20 ADD PUSH2 0x3F4A PUSH1 0x28 SWAP2 CODECOPY PUSH1 0x4 PUSH1 0x0 DUP12 PUSH20 0xFFFFFFFFFFFFFFFFFFFFFFFFFFFFFFFFFFFFFFFF AND PUSH20 0xFFFFFFFFFFFFFFFFFFFFFFFFFFFFFFFFFFFFFFFF AND DUP2 MSTORE PUSH1 0x20 ADD SWAP1 DUP2 MSTORE PUSH1 0x20 ADD PUSH1 0x0 KECCAK256 PUSH1 0x0 PUSH2 0x941 PUSH2 0x1645 JUMP JUMPDEST PUSH20 0xFFFFFFFFFFFFFFFFFFFFFFFFFFFFFFFFFFFFFFFF AND PUSH20 0xFFFFFFFFFFFFFFFFFFFFFFFFFFFFFFFFFFFFFFFF AND DUP2 MSTORE PUSH1 0x20 ADD SWAP1 DUP2 MSTORE PUSH1 0x20 ADD PUSH1 0x0 KECCAK256 SLOAD PUSH2 0x21EC SWAP1 SWAP3 SWAP2 SWAP1 PUSH4 0xFFFFFFFF AND JUMP JUMPDEST PUSH2 0x164D JUMP JUMPDEST PUSH1 0x1 SWAP1 POP SWAP4 SWAP3 POP POP POP JUMP JUMPDEST PUSH1 0x19 SLOAD DUP2 JUMP JUMPDEST PUSH1 0x0 PUSH1 0x9 SWAP1 POP SWAP1 JUMP JUMPDEST PUSH1 0x16 PUSH1 0x0 SWAP1 SLOAD SWAP1 PUSH2 0x100 EXP SWAP1 DIV PUSH20 0xFFFFFFFFFFFFFFFFFFFFFFFFFFFFFFFFFFFFFFFF AND DUP2 JUMP JUMPDEST PUSH2 0x9D8 PUSH2 0x1645 JUMP JUMPDEST PUSH20 0xFFFFFFFFFFFFFFFFFFFFFFFFFFFFFFFFFFFFFFFF AND PUSH1 0x0 DUP1 SLOAD SWAP1 PUSH2 0x100 EXP SWAP1 DIV PUSH20 0xFFFFFFFFFFFFFFFFFFFFFFFFFFFFFFFFFFFFFFFF AND PUSH20 0xFFFFFFFFFFFFFFFFFFFFFFFFFFFFFFFFFFFFFFFF AND EQ PUSH2 0xA65 JUMPI PUSH1 0x40 MLOAD PUSH32 0x8C379A000000000000000000000000000000000000000000000000000000000 DUP2 MSTORE PUSH1 0x4 ADD PUSH2 0xA5C SWAP1 PUSH2 0x348B JUMP JUMPDEST PUSH1 0x40 MLOAD DUP1 SWAP2 SUB SWAP1 REVERT JUMPDEST PUSH1 0x0 PUSH1 0x11 PUSH1 0x0 DUP4 PUSH20 0xFFFFFFFFFFFFFFFFFFFFFFFFFFFFFFFFFFFFFFFF AND PUSH20 0xFFFFFFFFFFFFFFFFFFFFFFFFFFFFFFFFFFFFFFFF AND DUP2 MSTORE PUSH1 0x20 ADD SWAP1 DUP2 MSTORE PUSH1 0x20 ADD PUSH1 0x0 KECCAK256 PUSH1 0x0 PUSH2 0x100 EXP DUP2 SLOAD DUP2 PUSH1 0xFF MUL NOT AND SWAP1 DUP4 ISZERO ISZERO MUL OR SWAP1 SSTORE POP POP JUMP JUMPDEST PUSH2 0xAC8 PUSH2 0x1645 JUMP JUMPDEST PUSH20 0xFFFFFFFFFFFFFFFFFFFFFFFFFFFFFFFFFFFFFFFF AND PUSH1 0x0 DUP1 SLOAD SWAP1 PUSH2 0x100 EXP SWAP1 DIV PUSH20 0xFFFFFFFFFFFFFFFFFFFFFFFFFFFFFFFFFFFFFFFF AND PUSH20 0xFFFFFFFFFFFFFFFFFFFFFFFFFFFFFFFFFFFFFFFF AND EQ PUSH2 0xB55 JUMPI PUSH1 0x40 MLOAD PUSH32 0x8C379A000000000000000000000000000000000000000000000000000000000 DUP2 MSTORE PUSH1 0x4 ADD PUSH2 0xB4C SWAP1 PUSH2 0x348B JUMP JUMPDEST PUSH1 0x40 MLOAD DUP1 SWAP2 SUB SWAP1 REVERT JUMPDEST DUP1 PUSH1 0x16 DUP1 PUSH2 0x100 EXP DUP2 SLOAD DUP2 PUSH1 0xFF MUL NOT AND SWAP1 DUP4 ISZERO ISZERO MUL OR SWAP1 SSTORE POP POP JUMP JUMPDEST PUSH1 0x13 PUSH1 0x0 SWAP1 SLOAD SWAP1 PUSH2 0x100 EXP SWAP1 DIV PUSH20 0xFFFFFFFFFFFFFFFFFFFFFFFFFFFFFFFFFFFFFFFF AND PUSH20 0xFFFFFFFFFFFFFFFFFFFFFFFFFFFFFFFFFFFFFFFF AND PUSH2 0xBB2 PUSH2 0x1645 JUMP JUMPDEST PUSH20 0xFFFFFFFFFFFFFFFFFFFFFFFFFFFFFFFFFFFFFFFF AND EQ DUP1 PUSH2 0xC28 JUMPI POP PUSH1 0x14 PUSH1 0x0 SWAP1 SLOAD SWAP1 PUSH2 0x100 EXP SWAP1 DIV PUSH20 0xFFFFFFFFFFFFFFFFFFFFFFFFFFFFFFFFFFFFFFFF AND PUSH20 0xFFFFFFFFFFFFFFFFFFFFFFFFFFFFFFFFFFFFFFFF AND PUSH2 0xC10 PUSH2 0x1645 JUMP JUMPDEST PUSH20 0xFFFFFFFFFFFFFFFFFFFFFFFFFFFFFFFFFFFFFFFF AND EQ JUMPDEST PUSH2 0xC31 JUMPI PUSH1 0x0 DUP1 REVERT JUMPDEST PUSH1 0x0 SELFBALANCE SWAP1 POP PUSH2 0xC3F DUP2 PUSH2 0x2250 JUMP JUMPDEST POP JUMP JUMPDEST PUSH1 0x0 PUSH2 0xC8C PUSH1 0x2 PUSH1 0x0 DUP5 PUSH20 0xFFFFFFFFFFFFFFFFFFFFFFFFFFFFFFFFFFFFFFFF AND PUSH20 0xFFFFFFFFFFFFFFFFFFFFFFFFFFFFFFFFFFFFFFFF AND DUP2 MSTORE PUSH1 0x20 ADD SWAP1 DUP2 MSTORE PUSH1 0x20 ADD PUSH1 0x0 KECCAK256 SLOAD PUSH2 0x234B JUMP JUMPDEST SWAP1 POP SWAP2 SWAP1 POP JUMP JUMPDEST PUSH2 0xC9B PUSH2 0x1645 JUMP JUMPDEST PUSH20 0xFFFFFFFFFFFFFFFFFFFFFFFFFFFFFFFFFFFFFFFF AND PUSH1 0x0 DUP1 SLOAD SWAP1 PUSH2 0x100 EXP SWAP1 DIV PUSH20 0xFFFFFFFFFFFFFFFFFFFFFFFFFFFFFFFFFFFFFFFF AND PUSH20 0xFFFFFFFFFFFFFFFFFFFFFFFFFFFFFFFFFFFFFFFF AND EQ PUSH2 0xD28 JUMPI PUSH1 0x40 MLOAD PUSH32 0x8C379A000000000000000000000000000000000000000000000000000000000 DUP2 MSTORE PUSH1 0x4 ADD PUSH2 0xD1F SWAP1 PUSH2 0x348B JUMP JUMPDEST PUSH1 0x40 MLOAD DUP1 SWAP2 SUB SWAP1 REVERT JUMPDEST PUSH1 0x0 PUSH20 0xFFFFFFFFFFFFFFFFFFFFFFFFFFFFFFFFFFFFFFFF AND PUSH1 0x0 DUP1 SLOAD SWAP1 PUSH2 0x100 EXP SWAP1 DIV PUSH20 0xFFFFFFFFFFFFFFFFFFFFFFFFFFFFFFFFFFFFFFFF AND PUSH20 0xFFFFFFFFFFFFFFFFFFFFFFFFFFFFFFFFFFFFFFFF AND PUSH32 0x8BE0079C531659141344CD1FD0A4F28419497F9722A3DAAFE3B4186F6B6457E0 PUSH1 0x40 MLOAD PUSH1 0x40 MLOAD DUP1 SWAP2 SUB SWAP1 LOG3 PUSH1 0x0 DUP1 PUSH1 0x0 PUSH2 0x100 EXP DUP2 SLOAD DUP2 PUSH20 0xFFFFFFFFFFFFFFFFFFFFFFFFFFFFFFFFFFFFFFFF MUL NOT AND SWAP1 DUP4 PUSH20 0xFFFFFFFFFFFFFFFFFFFFFFFFFFFFFFFFFFFFFFFF AND MUL OR SWAP1 SSTORE POP JUMP JUMPDEST PUSH2 0xDEE PUSH2 0x1645 JUMP JUMPDEST PUSH20 0xFFFFFFFFFFFFFFFFFFFFFFFFFFFFFFFFFFFFFFFF AND PUSH1 0x0 DUP1 SLOAD SWAP1 PUSH2 0x100 EXP SWAP1 DIV PUSH20 0xFFFFFFFFFFFFFFFFFFFFFFFFFFFFFFFFFFFFFFFF AND PUSH20 0xFFFFFFFFFFFFFFFFFFFFFFFFFFFFFFFFFFFFFFFF AND EQ PUSH2 0xE7B JUMPI PUSH1 0x40 MLOAD PUSH32 0x8C379A000000000000000000000000000000000000000000000000000000000 DUP2 MSTORE PUSH1 0x4 ADD PUSH2 0xE72 SWAP1 PUSH2 0x348B JUMP JUMPDEST PUSH1 0x40 MLOAD DUP1 SWAP2 SUB SWAP1 REVERT JUMPDEST DUP1 PUSH1 0x17 DUP2 SWAP1 SSTORE POP POP JUMP JUMPDEST PUSH1 0x17 SLOAD DUP2 JUMP JUMPDEST PUSH1 0x0 DUP1 PUSH1 0x0 SWAP1 SLOAD SWAP1 PUSH2 0x100 EXP SWAP1 DIV PUSH20 0xFFFFFFFFFFFFFFFFFFFFFFFFFFFFFFFFFFFFFFFF AND SWAP1 POP SWAP1 JUMP JUMPDEST PUSH2 0xEBC PUSH2 0x1645 JUMP JUMPDEST PUSH20 0xFFFFFFFFFFFFFFFFFFFFFFFFFFFFFFFFFFFFFFFF AND PUSH1 0x0 DUP1 SLOAD SWAP1 PUSH2 0x100 EXP SWAP1 DIV PUSH20 0xFFFFFFFFFFFFFFFFFFFFFFFFFFFFFFFFFFFFFFFF AND PUSH20 0xFFFFFFFFFFFFFFFFFFFFFFFFFFFFFFFFFFFFFFFF AND EQ PUSH2 0xF49 JUMPI PUSH1 0x40 MLOAD PUSH32 0x8C379A000000000000000000000000000000000000000000000000000000000 DUP2 MSTORE PUSH1 0x4 ADD PUSH2 0xF40 SWAP1 PUSH2 0x348B JUMP JUMPDEST PUSH1 0x40 MLOAD DUP1 SWAP2 SUB SWAP1 REVERT JUMPDEST DUP1 PUSH1 0x16 PUSH1 0x14 PUSH2 0x100 EXP DUP2 SLOAD DUP2 PUSH1 0xFF MUL NOT AND SWAP1 DUP4 ISZERO ISZERO MUL OR SWAP1 SSTORE POP NUMBER PUSH1 0x8 DUP2 SWAP1 SSTORE POP POP JUMP JUMPDEST PUSH1 0x18 SLOAD DUP2 JUMP JUMPDEST PUSH1 0x60 PUSH1 0x40 MLOAD DUP1 PUSH1 0x40 ADD PUSH1 0x40 MSTORE DUP1 PUSH1 0x6 DUP2 MSTORE PUSH1 0x20 ADD PUSH32 0x5351554944490000000000000000000000000000000000000000000000000000 DUP2 MSTORE POP SWAP1 POP SWAP1 JUMP JUMPDEST PUSH2 0xFB8 PUSH2 0x1645 JUMP JUMPDEST PUSH20 0xFFFFFFFFFFFFFFFFFFFFFFFFFFFFFFFFFFFFFFFF AND PUSH1 0x0 DUP1 SLOAD SWAP1 PUSH2 0x100 EXP SWAP1 DIV PUSH20 0xFFFFFFFFFFFFFFFFFFFFFFFFFFFFFFFFFFFFFFFF AND PUSH20 0xFFFFFFFFFFFFFFFFFFFFFFFFFFFFFFFFFFFFFFFF AND EQ PUSH2 0x1045 JUMPI PUSH1 0x40 MLOAD PUSH32 0x8C379A000000000000000000000000000000000000000000000000000000000 DUP2 MSTORE PUSH1 0x4 ADD PUSH2 0x103C SWAP1 PUSH2 0x348B JUMP JUMPDEST PUSH1 0x40 MLOAD DUP1 SWAP2 SUB SWAP1 REVERT JUMPDEST DUP1 PUSH1 0x19 DUP2 SWAP1 SSTORE POP POP JUMP JUMPDEST PUSH2 0x1057 PUSH2 0x1645 JUMP JUMPDEST PUSH20 0xFFFFFFFFFFFFFFFFFFFFFFFFFFFFFFFFFFFFFFFF AND PUSH1 0x0 DUP1 SLOAD SWAP1 PUSH2 0x100 EXP SWAP1 DIV PUSH20 0xFFFFFFFFFFFFFFFFFFFFFFFFFFFFFFFFFFFFFFFF AND PUSH20 0xFFFFFFFFFFFFFFFFFFFFFFFFFFFFFFFFFFFFFFFF AND EQ PUSH2 0x10E4 JUMPI PUSH1 0x40 MLOAD PUSH32 0x8C379A000000000000000000000000000000000000000000000000000000000 DUP2 MSTORE PUSH1 0x4 ADD PUSH2 0x10DB SWAP1 PUSH2 0x348B JUMP JUMPDEST PUSH1 0x40 MLOAD DUP1 SWAP2 SUB SWAP1 REVERT JUMPDEST DUP4 PUSH1 0x9 DUP2 SWAP1 SSTORE POP DUP3 PUSH1 0xB DUP2 SWAP1 SSTORE POP DUP2 PUSH1 0xA DUP2 SWAP1 SSTORE POP DUP1 PUSH1 0xC DUP2 SWAP1 SSTORE POP POP POP POP POP JUMP JUMPDEST PUSH1 0x0 PUSH2 0x111A PUSH2 0x1113 PUSH2 0x1645 JUMP JUMPDEST DUP5 DUP5 PUSH2 0x1818 JUMP JUMPDEST PUSH1 0x1 SWAP1 POP SWAP3 SWAP2 POP POP JUMP JUMPDEST PUSH1 0x11 PUSH1 0x20 MSTORE DUP1 PUSH1 0x0 MSTORE PUSH1 0x40 PUSH1 0x0 KECCAK256 PUSH1 0x0 SWAP2 POP SLOAD SWAP1 PUSH2 0x100 EXP SWAP1 DIV PUSH1 0xFF AND DUP2 JUMP JUMPDEST PUSH1 0x13 PUSH1 0x0 SWAP1 SLOAD SWAP1 PUSH2 0x100 EXP SWAP1 DIV PUSH20 0xFFFFFFFFFFFFFFFFFFFFFFFFFFFFFFFFFFFFFFFF AND PUSH20 0xFFFFFFFFFFFFFFFFFFFFFFFFFFFFFFFFFFFFFFFF AND PUSH2 0x1185 PUSH2 0x1645 JUMP JUMPDEST PUSH20 0xFFFFFFFFFFFFFFFFFFFFFFFFFFFFFFFFFFFFFFFF AND EQ DUP1 PUSH2 0x11FB JUMPI POP PUSH1 0x14 PUSH1 0x0 SWAP1 SLOAD SWAP1 PUSH2 0x100 EXP SWAP1 DIV PUSH20 0xFFFFFFFFFFFFFFFFFFFFFFFFFFFFFFFFFFFFFFFF AND PUSH20 0xFFFFFFFFFFFFFFFFFFFFFFFFFFFFFFFFFFFFFFFF AND PUSH2 0x11E3 PUSH2 0x1645 JUMP JUMPDEST PUSH20 0xFFFFFFFFFFFFFFFFFFFFFFFFFFFFFFFFFFFFFFFF AND EQ JUMPDEST PUSH2 0x1204 JUMPI PUSH1 0x0 DUP1 REVERT JUMPDEST PUSH1 0x0 PUSH2 0x120F ADDRESS PUSH2 0xC42 JUMP JUMPDEST SWAP1 POP PUSH2 0x121A DUP2 PUSH2 0x23B9 JUMP JUMPDEST POP JUMP JUMPDEST PUSH2 0x1225 PUSH2 0x1645 JUMP JUMPDEST PUSH20 0xFFFFFFFFFFFFFFFFFFFFFFFFFFFFFFFFFFFFFFFF AND PUSH1 0x0 DUP1 SLOAD SWAP1 PUSH2 0x100 EXP SWAP1 DIV PUSH20 0xFFFFFFFFFFFFFFFFFFFFFFFFFFFFFFFFFFFFFFFF AND PUSH20 0xFFFFFFFFFFFFFFFFFFFFFFFFFFFFFFFFFFFFFFFF AND EQ PUSH2 0x12B2 JUMPI PUSH1 0x40 MLOAD PUSH32 0x8C379A000000000000000000000000000000000000000000000000000000000 DUP2 MSTORE PUSH1 0x4 ADD PUSH2 0x12A9 SWAP1 PUSH2 0x348B JUMP JUMPDEST PUSH1 0x40 MLOAD DUP1 SWAP2 SUB SWAP1 REVERT JUMPDEST PUSH1 0x0 JUMPDEST DUP4 DUP4 SWAP1 POP DUP2 LT ISZERO PUSH2 0x1351 JUMPI DUP2 PUSH1 0x5 PUSH1 0x0 DUP7 DUP7 DUP6 DUP2 DUP2 LT PUSH2 0x12D8 JUMPI PUSH2 0x12D7 PUSH2 0x34AB JUMP JUMPDEST JUMPDEST SWAP1 POP PUSH1 0x20 MUL ADD PUSH1 0x20 DUP2 ADD SWAP1 PUSH2 0x12ED SWAP2 SWAP1 PUSH2 0x322A JUMP JUMPDEST PUSH20 0xFFFFFFFFFFFFFFFFFFFFFFFFFFFFFFFFFFFFFFFF AND PUSH20 0xFFFFFFFFFFFFFFFFFFFFFFFFFFFFFFFFFFFFFFFF AND DUP2 MSTORE PUSH1 0x20 ADD SWAP1 DUP2 MSTORE PUSH1 0x20 ADD PUSH1 0x0 KECCAK256 PUSH1 0x0 PUSH2 0x100 EXP DUP2 SLOAD DUP2 PUSH1 0xFF MUL NOT AND SWAP1 DUP4 ISZERO ISZERO MUL OR SWAP1 SSTORE POP DUP1 DUP1 PUSH2 0x1349 SWAP1 PUSH2 0x3509 JUMP JUMPDEST SWAP2 POP POP PUSH2 0x12B5 JUMP JUMPDEST POP POP POP POP JUMP JUMPDEST PUSH1 0x8 SLOAD DUP2 JUMP JUMPDEST PUSH1 0x0 PUSH1 0x4 PUSH1 0x0 DUP5 PUSH20 0xFFFFFFFFFFFFFFFFFFFFFFFFFFFFFFFFFFFFFFFF AND PUSH20 0xFFFFFFFFFFFFFFFFFFFFFFFFFFFFFFFFFFFFFFFF AND DUP2 MSTORE PUSH1 0x20 ADD SWAP1 DUP2 MSTORE PUSH1 0x20 ADD PUSH1 0x0 KECCAK256 PUSH1 0x0 DUP4 PUSH20 0xFFFFFFFFFFFFFFFFFFFFFFFFFFFFFFFFFFFFFFFF AND PUSH20 0xFFFFFFFFFFFFFFFFFFFFFFFFFFFFFFFFFFFFFFFF AND DUP2 MSTORE PUSH1 0x20 ADD SWAP1 DUP2 MSTORE PUSH1 0x20 ADD PUSH1 0x0 KECCAK256 SLOAD SWAP1 POP SWAP3 SWAP2 POP POP JUMP JUMPDEST PUSH2 0x13EC PUSH2 0x1645 JUMP JUMPDEST PUSH20 0xFFFFFFFFFFFFFFFFFFFFFFFFFFFFFFFFFFFFFFFF AND PUSH1 0x0 DUP1 SLOAD SWAP1 PUSH2 0x100 EXP SWAP1 DIV PUSH20 0xFFFFFFFFFFFFFFFFFFFFFFFFFFFFFFFFFFFFFFFF AND PUSH20 0xFFFFFFFFFFFFFFFFFFFFFFFFFFFFFFFFFFFFFFFF AND EQ PUSH2 0x1479 JUMPI PUSH1 0x40 MLOAD PUSH32 0x8C379A000000000000000000000000000000000000000000000000000000000 DUP2 MSTORE PUSH1 0x4 ADD PUSH2 0x1470 SWAP1 PUSH2 0x348B JUMP JUMPDEST PUSH1 0x40 MLOAD DUP1 SWAP2 SUB SWAP1 REVERT JUMPDEST DUP1 PUSH1 0x18 DUP2 SWAP1 SSTORE POP POP JUMP JUMPDEST PUSH2 0x148B PUSH2 0x1645 JUMP JUMPDEST PUSH20 0xFFFFFFFFFFFFFFFFFFFFFFFFFFFFFFFFFFFFFFFF AND PUSH1 0x0 DUP1 SLOAD SWAP1 PUSH2 0x100 EXP SWAP1 DIV PUSH20 0xFFFFFFFFFFFFFFFFFFFFFFFFFFFFFFFFFFFFFFFF AND PUSH20 0xFFFFFFFFFFFFFFFFFFFFFFFFFFFFFFFFFFFFFFFF AND EQ PUSH2 0x1518 JUMPI PUSH1 0x40 MLOAD PUSH32 0x8C379A000000000000000000000000000000000000000000000000000000000 DUP2 MSTORE PUSH1 0x4 ADD PUSH2 0x150F SWAP1 PUSH2 0x348B JUMP JUMPDEST PUSH1 0x40 MLOAD DUP1 SWAP2 SUB SWAP1 REVERT JUMPDEST PUSH1 0x0 PUSH20 0xFFFFFFFFFFFFFFFFFFFFFFFFFFFFFFFFFFFFFFFF AND DUP2 PUSH20 0xFFFFFFFFFFFFFFFFFFFFFFFFFFFFFFFFFFFFFFFF AND EQ ISZERO PUSH2 0x1588 JUMPI PUSH1 0x40 MLOAD PUSH32 0x8C379A000000000000000000000000000000000000000000000000000000000 DUP2 MSTORE PUSH1 0x4 ADD PUSH2 0x157F SWAP1 PUSH2 0x35C4 JUMP JUMPDEST PUSH1 0x40 MLOAD DUP1 SWAP2 SUB SWAP1 REVERT JUMPDEST DUP1 PUSH20 0xFFFFFFFFFFFFFFFFFFFFFFFFFFFFFFFFFFFFFFFF AND PUSH1 0x0 DUP1 SLOAD SWAP1 PUSH2 0x100 EXP SWAP1 DIV PUSH20 0xFFFFFFFFFFFFFFFFFFFFFFFFFFFFFFFFFFFFFFFF AND PUSH20 0xFFFFFFFFFFFFFFFFFFFFFFFFFFFFFFFFFFFFFFFF AND PUSH32 0x8BE0079C531659141344CD1FD0A4F28419497F9722A3DAAFE3B4186F6B6457E0 PUSH1 0x40 MLOAD PUSH1 0x40 MLOAD DUP1 SWAP2 SUB SWAP1 LOG3 DUP1 PUSH1 0x0 DUP1 PUSH2 0x100 EXP DUP2 SLOAD DUP2 PUSH20 0xFFFFFFFFFFFFFFFFFFFFFFFFFFFFFFFFFFFFFFFF MUL NOT AND SWAP1 DUP4 PUSH20 0xFFFFFFFFFFFFFFFFFFFFFFFFFFFFFFFFFFFFFFFF AND MUL OR SWAP1 SSTORE POP POP JUMP JUMPDEST PUSH1 0x0 CALLER SWAP1 POP SWAP1 JUMP JUMPDEST PUSH1 0x0 PUSH20 0xFFFFFFFFFFFFFFFFFFFFFFFFFFFFFFFFFFFFFFFF AND DUP4 PUSH20 0xFFFFFFFFFFFFFFFFFFFFFFFFFFFFFFFFFFFFFFFF AND EQ ISZERO PUSH2 0x16BD JUMPI PUSH1 0x40 MLOAD PUSH32 0x8C379A000000000000000000000000000000000000000000000000000000000 DUP2 MSTORE PUSH1 0x4 ADD PUSH2 0x16B4 SWAP1 PUSH2 0x3656 JUMP JUMPDEST PUSH1 0x40 MLOAD DUP1 SWAP2 SUB SWAP1 REVERT JUMPDEST PUSH1 0x0 PUSH20 0xFFFFFFFFFFFFFFFFFFFFFFFFFFFFFFFFFFFFFFFF AND DUP3 PUSH20 0xFFFFFFFFFFFFFFFFFFFFFFFFFFFFFFFFFFFFFFFF AND EQ ISZERO PUSH2 0x172D JUMPI PUSH1 0x40 MLOAD PUSH32 0x8C379A000000000000000000000000000000000000000000000000000000000 DUP2 MSTORE PUSH1 0x4 ADD PUSH2 0x1724 SWAP1 PUSH2 0x36E8 JUMP JUMPDEST PUSH1 0x40 MLOAD DUP1 SWAP2 SUB SWAP1 REVERT JUMPDEST DUP1 PUSH1 0x4 PUSH1 0x0 DUP6 PUSH20 0xFFFFFFFFFFFFFFFFFFFFFFFFFFFFFFFFFFFFFFFF AND PUSH20 0xFFFFFFFFFFFFFFFFFFFFFFFFFFFFFFFFFFFFFFFF AND DUP2 MSTORE PUSH1 0x20 ADD SWAP1 DUP2 MSTORE PUSH1 0x20 ADD PUSH1 0x0 KECCAK256 PUSH1 0x0 DUP5 PUSH20 0xFFFFFFFFFFFFFFFFFFFFFFFFFFFFFFFFFFFFFFFF AND PUSH20 0xFFFFFFFFFFFFFFFFFFFFFFFFFFFFFFFFFFFFFFFF AND DUP2 MSTORE PUSH1 0x20 ADD SWAP1 DUP2 MSTORE PUSH1 0x20 ADD PUSH1 0x0 KECCAK256 DUP2 SWAP1 SSTORE POP DUP2 PUSH20 0xFFFFFFFFFFFFFFFFFFFFFFFFFFFFFFFFFFFFFFFF AND DUP4 PUSH20 0xFFFFFFFFFFFFFFFFFFFFFFFFFFFFFFFFFFFFFFFF AND PUSH32 0x8C5BE1E5EBEC7D5BD14F71427D1E84F3DD0314C0F7B2291E5B200AC8C7C3B925 DUP4 PUSH1 0x40 MLOAD PUSH2 0x180B SWAP2 SWAP1 PUSH2 0x315B JUMP JUMPDEST PUSH1 0x40 MLOAD DUP1 SWAP2 SUB SWAP1 LOG3 POP POP POP JUMP JUMPDEST PUSH1 0x0 PUSH20 0xFFFFFFFFFFFFFFFFFFFFFFFFFFFFFFFFFFFFFFFF AND DUP4 PUSH20 0xFFFFFFFFFFFFFFFFFFFFFFFFFFFFFFFFFFFFFFFF AND EQ ISZERO PUSH2 0x1888 JUMPI PUSH1 0x40 MLOAD PUSH32 0x8C379A000000000000000000000000000000000000000000000000000000000 DUP2 MSTORE PUSH1 0x4 ADD PUSH2 0x187F SWAP1 PUSH2 0x377A JUMP JUMPDEST PUSH1 0x40 MLOAD DUP1 SWAP2 SUB SWAP1 REVERT JUMPDEST PUSH1 0x0 PUSH20 0xFFFFFFFFFFFFFFFFFFFFFFFFFFFFFFFFFFFFFFFF AND DUP3 PUSH20 0xFFFFFFFFFFFFFFFFFFFFFFFFFFFFFFFFFFFFFFFF AND EQ ISZERO PUSH2 0x18F8 JUMPI PUSH1 0x40 MLOAD PUSH32 0x8C379A000000000000000000000000000000000000000000000000000000000 DUP2 MSTORE PUSH1 0x4 ADD PUSH2 0x18EF SWAP1 PUSH2 0x380C JUMP JUMPDEST PUSH1 0x40 MLOAD DUP1 SWAP2 SUB SWAP1 REVERT JUMPDEST PUSH1 0x0 DUP2 GT PUSH2 0x193B JUMPI PUSH1 0x40 MLOAD PUSH32 0x8C379A000000000000000000000000000000000000000000000000000000000 DUP2 MSTORE PUSH1 0x4 ADD PUSH2 0x1932 SWAP1 PUSH2 0x389E JUMP JUMPDEST PUSH1 0x40 MLOAD DUP1 SWAP2 SUB SWAP1 REVERT JUMPDEST PUSH2 0x1943 PUSH2 0xE8B JUMP JUMPDEST PUSH20 0xFFFFFFFFFFFFFFFFFFFFFFFFFFFFFFFFFFFFFFFF AND DUP4 PUSH20 0xFFFFFFFFFFFFFFFFFFFFFFFFFFFFFFFFFFFFFFFF AND EQ ISZERO DUP1 ISZERO PUSH2 0x19B1 JUMPI POP PUSH2 0x1981 PUSH2 0xE8B JUMP JUMPDEST PUSH20 0xFFFFFFFFFFFFFFFFFFFFFFFFFFFFFFFFFFFFFFFF AND DUP3 PUSH20 0xFFFFFFFFFFFFFFFFFFFFFFFFFFFFFFFFFFFFFFFF AND EQ ISZERO JUMPDEST ISZERO PUSH2 0x1EEB JUMPI PUSH1 0x16 PUSH1 0x14 SWAP1 SLOAD SWAP1 PUSH2 0x100 EXP SWAP1 DIV PUSH1 0xFF AND PUSH2 0x1A40 JUMPI PUSH2 0x19D2 PUSH2 0xE8B JUMP JUMPDEST PUSH20 0xFFFFFFFFFFFFFFFFFFFFFFFFFFFFFFFFFFFFFFFF AND DUP4 PUSH20 0xFFFFFFFFFFFFFFFFFFFFFFFFFFFFFFFFFFFFFFFF AND EQ PUSH2 0x1A3F JUMPI PUSH1 0x40 MLOAD PUSH32 0x8C379A000000000000000000000000000000000000000000000000000000000 DUP2 MSTORE PUSH1 0x4 ADD PUSH2 0x1A36 SWAP1 PUSH2 0x3930 JUMP JUMPDEST PUSH1 0x40 MLOAD DUP1 SWAP2 SUB SWAP1 REVERT JUMPDEST JUMPDEST PUSH1 0x17 SLOAD DUP2 GT ISZERO PUSH2 0x1A85 JUMPI PUSH1 0x40 MLOAD PUSH32 0x8C379A000000000000000000000000000000000000000000000000000000000 DUP2 MSTORE PUSH1 0x4 ADD PUSH2 0x1A7C SWAP1 PUSH2 0x399C JUMP JUMPDEST PUSH1 0x40 MLOAD DUP1 SWAP2 SUB SWAP1 REVERT JUMPDEST PUSH1 0x11 PUSH1 0x0 DUP5 PUSH20 0xFFFFFFFFFFFFFFFFFFFFFFFFFFFFFFFFFFFFFFFF AND PUSH20 0xFFFFFFFFFFFFFFFFFFFFFFFFFFFFFFFFFFFFFFFF AND DUP2 MSTORE PUSH1 0x20 ADD SWAP1 DUP2 MSTORE PUSH1 0x20 ADD PUSH1 0x0 KECCAK256 PUSH1 0x0 SWAP1 SLOAD SWAP1 PUSH2 0x100 EXP SWAP1 DIV PUSH1 0xFF AND ISZERO DUP1 ISZERO PUSH2 0x1B29 JUMPI POP PUSH1 0x11 PUSH1 0x0 DUP4 PUSH20 0xFFFFFFFFFFFFFFFFFFFFFFFFFFFFFFFFFFFFFFFF AND PUSH20 0xFFFFFFFFFFFFFFFFFFFFFFFFFFFFFFFFFFFFFFFF AND DUP2 MSTORE PUSH1 0x20 ADD SWAP1 DUP2 MSTORE PUSH1 0x20 ADD PUSH1 0x0 KECCAK256 PUSH1 0x0 SWAP1 SLOAD SWAP1 PUSH2 0x100 EXP SWAP1 DIV PUSH1 0xFF AND ISZERO JUMPDEST PUSH2 0x1B68 JUMPI PUSH1 0x40 MLOAD PUSH32 0x8C379A000000000000000000000000000000000000000000000000000000000 DUP2 MSTORE PUSH1 0x4 ADD PUSH2 0x1B5F SWAP1 PUSH2 0x3A2E JUMP JUMPDEST PUSH1 0x40 MLOAD DUP1 SWAP2 SUB SWAP1 REVERT JUMPDEST PUSH1 0x8 SLOAD NUMBER GT ISZERO DUP1 ISZERO PUSH2 0x1BC7 JUMPI POP PUSH1 0x16 PUSH1 0x0 SWAP1 SLOAD SWAP1 PUSH2 0x100 EXP SWAP1 DIV PUSH20 0xFFFFFFFFFFFFFFFFFFFFFFFFFFFFFFFFFFFFFFFF AND PUSH20 0xFFFFFFFFFFFFFFFFFFFFFFFFFFFFFFFFFFFFFFFF AND DUP4 PUSH20 0xFFFFFFFFFFFFFFFFFFFFFFFFFFFFFFFFFFFFFFFF AND EQ JUMPDEST DUP1 ISZERO PUSH2 0x1C21 JUMPI POP PUSH1 0x15 PUSH1 0x0 SWAP1 SLOAD SWAP1 PUSH2 0x100 EXP SWAP1 DIV PUSH20 0xFFFFFFFFFFFFFFFFFFFFFFFFFFFFFFFFFFFFFFFF AND PUSH20 0xFFFFFFFFFFFFFFFFFFFFFFFFFFFFFFFFFFFFFFFF AND DUP3 PUSH20 0xFFFFFFFFFFFFFFFFFFFFFFFFFFFFFFFFFFFFFFFF AND EQ ISZERO JUMPDEST DUP1 ISZERO PUSH2 0x1C59 JUMPI POP ADDRESS PUSH20 0xFFFFFFFFFFFFFFFFFFFFFFFFFFFFFFFFFFFFFFFF AND DUP3 PUSH20 0xFFFFFFFFFFFFFFFFFFFFFFFFFFFFFFFFFFFFFFFF AND EQ ISZERO JUMPDEST ISZERO PUSH2 0x1CB7 JUMPI PUSH1 0x1 PUSH1 0x11 PUSH1 0x0 DUP5 PUSH20 0xFFFFFFFFFFFFFFFFFFFFFFFFFFFFFFFFFFFFFFFF AND PUSH20 0xFFFFFFFFFFFFFFFFFFFFFFFFFFFFFFFFFFFFFFFF AND DUP2 MSTORE PUSH1 0x20 ADD SWAP1 DUP2 MSTORE PUSH1 0x20 ADD PUSH1 0x0 KECCAK256 PUSH1 0x0 PUSH2 0x100 EXP DUP2 SLOAD DUP2 PUSH1 0xFF MUL NOT AND SWAP1 DUP4 ISZERO ISZERO MUL OR SWAP1 SSTORE POP JUMPDEST PUSH1 0x16 PUSH1 0x0 SWAP1 SLOAD SWAP1 PUSH2 0x100 EXP SWAP1 DIV PUSH20 0xFFFFFFFFFFFFFFFFFFFFFFFFFFFFFFFFFFFFFFFF AND PUSH20 0xFFFFFFFFFFFFFFFFFFFFFFFFFFFFFFFFFFFFFFFF AND DUP3 PUSH20 0xFFFFFFFFFFFFFFFFFFFFFFFFFFFFFFFFFFFFFFFF AND EQ PUSH2 0x1D64 JUMPI PUSH1 0x18 SLOAD DUP2 PUSH2 0x1D19 DUP5 PUSH2 0xC42 JUMP JUMPDEST PUSH2 0x1D23 SWAP2 SWAP1 PUSH2 0x3A4E JUMP JUMPDEST LT PUSH2 0x1D63 JUMPI PUSH1 0x40 MLOAD PUSH32 0x8C379A000000000000000000000000000000000000000000000000000000000 DUP2 MSTORE PUSH1 0x4 ADD PUSH2 0x1D5A SWAP1 PUSH2 0x3B16 JUMP JUMPDEST PUSH1 0x40 MLOAD DUP1 SWAP2 SUB SWAP1 REVERT JUMPDEST JUMPDEST PUSH1 0x0 PUSH2 0x1D6F ADDRESS PUSH2 0xC42 JUMP JUMPDEST SWAP1 POP PUSH1 0x0 PUSH1 0x19 SLOAD DUP3 LT ISZERO SWAP1 POP PUSH1 0x17 SLOAD DUP3 LT PUSH2 0x1D8A JUMPI PUSH1 0x17 SLOAD SWAP2 POP JUMPDEST DUP1 DUP1 ISZERO PUSH2 0x1DA4 JUMPI POP PUSH1 0x16 PUSH1 0x15 SWAP1 SLOAD SWAP1 PUSH2 0x100 EXP SWAP1 DIV PUSH1 0xFF AND ISZERO JUMPDEST DUP1 ISZERO PUSH2 0x1DFE JUMPI POP PUSH1 0x16 PUSH1 0x0 SWAP1 SLOAD SWAP1 PUSH2 0x100 EXP SWAP1 DIV PUSH20 0xFFFFFFFFFFFFFFFFFFFFFFFFFFFFFFFFFFFFFFFF AND PUSH20 0xFFFFFFFFFFFFFFFFFFFFFFFFFFFFFFFFFFFFFFFF AND DUP6 PUSH20 0xFFFFFFFFFFFFFFFFFFFFFFFFFFFFFFFFFFFFFFFF AND EQ ISZERO JUMPDEST DUP1 ISZERO PUSH2 0x1E14 JUMPI POP PUSH1 0x16 DUP1 SLOAD SWAP1 PUSH2 0x100 EXP SWAP1 DIV PUSH1 0xFF AND JUMPDEST DUP1 ISZERO PUSH2 0x1E6A JUMPI POP PUSH1 0x5 PUSH1 0x0 DUP7 PUSH20 0xFFFFFFFFFFFFFFFFFFFFFFFFFFFFFFFFFFFFFFFF AND PUSH20 0xFFFFFFFFFFFFFFFFFFFFFFFFFFFFFFFFFFFFFFFF AND DUP2 MSTORE PUSH1 0x20 ADD SWAP1 DUP2 MSTORE PUSH1 0x20 ADD PUSH1 0x0 KECCAK256 PUSH1 0x0 SWAP1 SLOAD SWAP1 PUSH2 0x100 EXP SWAP1 DIV PUSH1 0xFF AND ISZERO JUMPDEST DUP1 ISZERO PUSH2 0x1EC0 JUMPI POP PUSH1 0x5 PUSH1 0x0 DUP6 PUSH20 0xFFFFFFFFFFFFFFFFFFFFFFFFFFFFFFFFFFFFFFFF AND PUSH20 0xFFFFFFFFFFFFFFFFFFFFFFFFFFFFFFFFFFFFFFFF AND DUP2 MSTORE PUSH1 0x20 ADD SWAP1 DUP2 MSTORE PUSH1 0x20 ADD PUSH1 0x0 KECCAK256 PUSH1 0x0 SWAP1 SLOAD SWAP1 PUSH2 0x100 EXP SWAP1 DIV PUSH1 0xFF AND ISZERO JUMPDEST ISZERO PUSH2 0x1EE8 JUMPI PUSH2 0x1ECE DUP3 PUSH2 0x23B9 JUMP JUMPDEST PUSH1 0x0 SELFBALANCE SWAP1 POP PUSH1 0x0 DUP2 GT ISZERO PUSH2 0x1EE6 JUMPI PUSH2 0x1EE5 SELFBALANCE PUSH2 0x2250 JUMP JUMPDEST JUMPDEST POP JUMPDEST POP POP JUMPDEST PUSH1 0x0 PUSH1 0x1 SWAP1 POP PUSH1 0x5 PUSH1 0x0 DUP6 PUSH20 0xFFFFFFFFFFFFFFFFFFFFFFFFFFFFFFFFFFFFFFFF AND PUSH20 0xFFFFFFFFFFFFFFFFFFFFFFFFFFFFFFFFFFFFFFFF AND DUP2 MSTORE PUSH1 0x20 ADD SWAP1 DUP2 MSTORE PUSH1 0x20 ADD PUSH1 0x0 KECCAK256 PUSH1 0x0 SWAP1 SLOAD SWAP1 PUSH2 0x100 EXP SWAP1 DIV PUSH1 0xFF AND DUP1 PUSH2 0x1F92 JUMPI POP PUSH1 0x5 PUSH1 0x0 DUP5 PUSH20 0xFFFFFFFFFFFFFFFFFFFFFFFFFFFFFFFFFFFFFFFF AND PUSH20 0xFFFFFFFFFFFFFFFFFFFFFFFFFFFFFFFFFFFFFFFF AND DUP2 MSTORE PUSH1 0x20 ADD SWAP1 DUP2 MSTORE PUSH1 0x20 ADD PUSH1 0x0 KECCAK256 PUSH1 0x0 SWAP1 SLOAD SWAP1 PUSH2 0x100 EXP SWAP1 DIV PUSH1 0xFF AND JUMPDEST DUP1 PUSH2 0x2045 JUMPI POP PUSH1 0x16 PUSH1 0x0 SWAP1 SLOAD SWAP1 PUSH2 0x100 EXP SWAP1 DIV PUSH20 0xFFFFFFFFFFFFFFFFFFFFFFFFFFFFFFFFFFFFFFFF AND PUSH20 0xFFFFFFFFFFFFFFFFFFFFFFFFFFFFFFFFFFFFFFFF AND DUP5 PUSH20 0xFFFFFFFFFFFFFFFFFFFFFFFFFFFFFFFFFFFFFFFF AND EQ ISZERO DUP1 ISZERO PUSH2 0x2044 JUMPI POP PUSH1 0x16 PUSH1 0x0 SWAP1 SLOAD SWAP1 PUSH2 0x100 EXP SWAP1 DIV PUSH20 0xFFFFFFFFFFFFFFFFFFFFFFFFFFFFFFFFFFFFFFFF AND PUSH20 0xFFFFFFFFFFFFFFFFFFFFFFFFFFFFFFFFFFFFFFFF AND DUP4 PUSH20 0xFFFFFFFFFFFFFFFFFFFFFFFFFFFFFFFFFFFFFFFF AND EQ ISZERO JUMPDEST JUMPDEST ISZERO PUSH2 0x2053 JUMPI PUSH1 0x0 SWAP1 POP PUSH2 0x21DA JUMP JUMPDEST PUSH1 0x16 PUSH1 0x0 SWAP1 SLOAD SWAP1 PUSH2 0x100 EXP SWAP1 DIV PUSH20 0xFFFFFFFFFFFFFFFFFFFFFFFFFFFFFFFFFFFFFFFF AND PUSH20 0xFFFFFFFFFFFFFFFFFFFFFFFFFFFFFFFFFFFFFFFF AND DUP5 PUSH20 0xFFFFFFFFFFFFFFFFFFFFFFFFFFFFFFFFFFFFFFFF AND EQ DUP1 ISZERO PUSH2 0x20FE JUMPI POP PUSH1 0x15 PUSH1 0x0 SWAP1 SLOAD SWAP1 PUSH2 0x100 EXP SWAP1 DIV PUSH20 0xFFFFFFFFFFFFFFFFFFFFFFFFFFFFFFFFFFFFFFFF AND PUSH20 0xFFFFFFFFFFFFFFFFFFFFFFFFFFFFFFFFFFFFFFFF AND DUP4 PUSH20 0xFFFFFFFFFFFFFFFFFFFFFFFFFFFFFFFFFFFFFFFF AND EQ ISZERO JUMPDEST ISZERO PUSH2 0x2116 JUMPI PUSH1 0x9 SLOAD PUSH1 0xD DUP2 SWAP1 SSTORE POP PUSH1 0xA SLOAD PUSH1 0xE DUP2 SWAP1 SSTORE POP JUMPDEST PUSH1 0x16 PUSH1 0x0 SWAP1 SLOAD SWAP1 PUSH2 0x100 EXP SWAP1 DIV PUSH20 0xFFFFFFFFFFFFFFFFFFFFFFFFFFFFFFFFFFFFFFFF AND PUSH20 0xFFFFFFFFFFFFFFFFFFFFFFFFFFFFFFFFFFFFFFFF AND DUP4 PUSH20 0xFFFFFFFFFFFFFFFFFFFFFFFFFFFFFFFFFFFFFFFF AND EQ DUP1 ISZERO PUSH2 0x21C1 JUMPI POP PUSH1 0x15 PUSH1 0x0 SWAP1 SLOAD SWAP1 PUSH2 0x100 EXP SWAP1 DIV PUSH20 0xFFFFFFFFFFFFFFFFFFFFFFFFFFFFFFFFFFFFFFFF AND PUSH20 0xFFFFFFFFFFFFFFFFFFFFFFFFFFFFFFFFFFFFFFFF AND DUP5 PUSH20 0xFFFFFFFFFFFFFFFFFFFFFFFFFFFFFFFFFFFFFFFF AND EQ ISZERO JUMPDEST ISZERO PUSH2 0x21D9 JUMPI PUSH1 0xB SLOAD PUSH1 0xD DUP2 SWAP1 SSTORE POP PUSH1 0xC SLOAD PUSH1 0xE DUP2 SWAP1 SSTORE POP JUMPDEST JUMPDEST PUSH2 0x21E6 DUP5 DUP5 DUP5 DUP5 PUSH2 0x2632 JUMP JUMPDEST POP POP POP POP JUMP JUMPDEST PUSH1 0x0 DUP4 DUP4 GT ISZERO DUP3 SWAP1 PUSH2 0x2234 JUMPI PUSH1 0x40 MLOAD PUSH32 0x8C379A000000000000000000000000000000000000000000000000000000000 DUP2 MSTORE PUSH1 0x4 ADD PUSH2 0x222B SWAP2 SWAP1 PUSH2 0x3004 JUMP JUMPDEST PUSH1 0x40 MLOAD DUP1 SWAP2 SUB SWAP1 REVERT JUMPDEST POP PUSH1 0x0 DUP4 DUP6 PUSH2 0x2243 SWAP2 SWAP1 PUSH2 0x3B36 JUMP JUMPDEST SWAP1 POP DUP1 SWAP2 POP POP SWAP4 SWAP3 POP POP POP JUMP JUMPDEST PUSH1 0x13 PUSH1 0x0 SWAP1 SLOAD SWAP1 PUSH2 0x100 EXP SWAP1 DIV PUSH20 0xFFFFFFFFFFFFFFFFFFFFFFFFFFFFFFFFFFFFFFFF AND PUSH20 0xFFFFFFFFFFFFFFFFFFFFFFFFFFFFFFFFFFFFFFFF AND PUSH2 0x8FC PUSH2 0x22A0 PUSH1 0x2 DUP5 PUSH2 0x265F SWAP1 SWAP2 SWAP1 PUSH4 0xFFFFFFFF AND JUMP JUMPDEST SWAP1 DUP2 ISZERO MUL SWAP1 PUSH1 0x40 MLOAD PUSH1 0x0 PUSH1 0x40 MLOAD DUP1 DUP4 SUB DUP2 DUP6 DUP9 DUP9 CALL SWAP4 POP POP POP POP ISZERO DUP1 ISZERO PUSH2 0x22CB JUMPI RETURNDATASIZE PUSH1 0x0 DUP1 RETURNDATACOPY RETURNDATASIZE PUSH1 0x0 REVERT JUMPDEST POP PUSH1 0x14 PUSH1 0x0 SWAP1 SLOAD SWAP1 PUSH2 0x100 EXP SWAP1 DIV PUSH20 0xFFFFFFFFFFFFFFFFFFFFFFFFFFFFFFFFFFFFFFFF AND PUSH20 0xFFFFFFFFFFFFFFFFFFFFFFFFFFFFFFFFFFFFFFFF AND PUSH2 0x8FC PUSH2 0x231C PUSH1 0x2 DUP5 PUSH2 0x265F SWAP1 SWAP2 SWAP1 PUSH4 0xFFFFFFFF AND JUMP JUMPDEST SWAP1 DUP2 ISZERO MUL SWAP1 PUSH1 0x40 MLOAD PUSH1 0x0 PUSH1 0x40 MLOAD DUP1 DUP4 SUB DUP2 DUP6 DUP9 DUP9 CALL SWAP4 POP POP POP POP ISZERO DUP1 ISZERO PUSH2 0x2347 JUMPI RETURNDATASIZE PUSH1 0x0 DUP1 RETURNDATACOPY RETURNDATASIZE PUSH1 0x0 REVERT JUMPDEST POP POP JUMP JUMPDEST PUSH1 0x0 PUSH1 0x6 SLOAD DUP3 GT ISZERO PUSH2 0x2392 JUMPI PUSH1 0x40 MLOAD PUSH32 0x8C379A000000000000000000000000000000000000000000000000000000000 DUP2 MSTORE PUSH1 0x4 ADD PUSH2 0x2389 SWAP1 PUSH2 0x3BDC JUMP JUMPDEST PUSH1 0x40 MLOAD DUP1 SWAP2 SUB SWAP1 REVERT JUMPDEST PUSH1 0x0 PUSH2 0x239C PUSH2 0x26A9 JUMP JUMPDEST SWAP1 POP PUSH2 0x23B1 DUP2 DUP5 PUSH2 0x265F SWAP1 SWAP2 SWAP1 PUSH4 0xFFFFFFFF AND JUMP JUMPDEST SWAP2 POP POP SWAP2 SWAP1 POP JUMP JUMPDEST PUSH1 0x1 PUSH1 0x16 PUSH1 0x15 PUSH2 0x100 EXP DUP2 SLOAD DUP2 PUSH1 0xFF MUL NOT AND SWAP1 DUP4 ISZERO ISZERO MUL OR SWAP1 SSTORE POP PUSH1 0x0 PUSH1 0x2 PUSH8 0xFFFFFFFFFFFFFFFF DUP2 GT ISZERO PUSH2 0x23F1 JUMPI PUSH2 0x23F0 PUSH2 0x2D92 JUMP JUMPDEST JUMPDEST PUSH1 0x40 MLOAD SWAP1 DUP1 DUP3 MSTORE DUP1 PUSH1 0x20 MUL PUSH1 0x20 ADD DUP3 ADD PUSH1 0x40 MSTORE DUP1 ISZERO PUSH2 0x241F JUMPI DUP2 PUSH1 0x20 ADD PUSH1 0x20 DUP3 MUL DUP1 CALLDATASIZE DUP4 CALLDATACOPY DUP1 DUP3 ADD SWAP2 POP POP SWAP1 POP JUMPDEST POP SWAP1 POP ADDRESS DUP2 PUSH1 0x0 DUP2 MLOAD DUP2 LT PUSH2 0x2437 JUMPI PUSH2 0x2436 PUSH2 0x34AB JUMP JUMPDEST JUMPDEST PUSH1 0x20 MUL PUSH1 0x20 ADD ADD SWAP1 PUSH20 0xFFFFFFFFFFFFFFFFFFFFFFFFFFFFFFFFFFFFFFFF AND SWAP1 DUP2 PUSH20 0xFFFFFFFFFFFFFFFFFFFFFFFFFFFFFFFFFFFFFFFF AND DUP2 MSTORE POP POP PUSH1 0x15 PUSH1 0x0 SWAP1 SLOAD SWAP1 PUSH2 0x100 EXP SWAP1 DIV PUSH20 0xFFFFFFFFFFFFFFFFFFFFFFFFFFFFFFFFFFFFFFFF AND PUSH20 0xFFFFFFFFFFFFFFFFFFFFFFFFFFFFFFFFFFFFFFFF AND PUSH4 0xAD5C4648 PUSH1 0x40 MLOAD DUP2 PUSH4 0xFFFFFFFF AND PUSH1 0xE0 SHL DUP2 MSTORE PUSH1 0x4 ADD PUSH1 0x20 PUSH1 0x40 MLOAD DUP1 DUP4 SUB DUP2 DUP7 GAS STATICCALL ISZERO DUP1 ISZERO PUSH2 0x24DE JUMPI RETURNDATASIZE PUSH1 0x0 DUP1 RETURNDATACOPY RETURNDATASIZE PUSH1 0x0 REVERT JUMPDEST POP POP POP POP PUSH1 0x40 MLOAD RETURNDATASIZE PUSH1 0x1F NOT PUSH1 0x1F DUP3 ADD AND DUP3 ADD DUP1 PUSH1 0x40 MSTORE POP DUP2 ADD SWAP1 PUSH2 0x2502 SWAP2 SWAP1 PUSH2 0x3C11 JUMP JUMPDEST DUP2 PUSH1 0x1 DUP2 MLOAD DUP2 LT PUSH2 0x2516 JUMPI PUSH2 0x2515 PUSH2 0x34AB JUMP JUMPDEST JUMPDEST PUSH1 0x20 MUL PUSH1 0x20 ADD ADD SWAP1 PUSH20 0xFFFFFFFFFFFFFFFFFFFFFFFFFFFFFFFFFFFFFFFF AND SWAP1 DUP2 PUSH20 0xFFFFFFFFFFFFFFFFFFFFFFFFFFFFFFFFFFFFFFFF AND DUP2 MSTORE POP POP PUSH2 0x257D ADDRESS PUSH1 0x15 PUSH1 0x0 SWAP1 SLOAD SWAP1 PUSH2 0x100 EXP SWAP1 DIV PUSH20 0xFFFFFFFFFFFFFFFFFFFFFFFFFFFFFFFFFFFFFFFF AND DUP5 PUSH2 0x164D JUMP JUMPDEST PUSH1 0x15 PUSH1 0x0 SWAP1 SLOAD SWAP1 PUSH2 0x100 EXP SWAP1 DIV PUSH20 0xFFFFFFFFFFFFFFFFFFFFFFFFFFFFFFFFFFFFFFFF AND PUSH20 0xFFFFFFFFFFFFFFFFFFFFFFFFFFFFFFFFFFFFFFFF AND PUSH4 0x791AC947 DUP4 PUSH1 0x0 DUP5 ADDRESS TIMESTAMP PUSH1 0x40 MLOAD DUP7 PUSH4 0xFFFFFFFF AND PUSH1 0xE0 SHL DUP2 MSTORE PUSH1 0x4 ADD PUSH2 0x25E1 SWAP6 SWAP5 SWAP4 SWAP3 SWAP2 SWAP1 PUSH2 0x3D37 JUMP JUMPDEST PUSH1 0x0 PUSH1 0x40 MLOAD DUP1 DUP4 SUB DUP2 PUSH1 0x0 DUP8 DUP1 EXTCODESIZE ISZERO DUP1 ISZERO PUSH2 0x25FB JUMPI PUSH1 0x0 DUP1 REVERT JUMPDEST POP GAS CALL ISZERO DUP1 ISZERO PUSH2 0x260F JUMPI RETURNDATASIZE PUSH1 0x0 DUP1 RETURNDATACOPY RETURNDATASIZE PUSH1 0x0 REVERT JUMPDEST POP POP POP POP POP PUSH1 0x0 PUSH1 0x16 PUSH1 0x15 PUSH2 0x100 EXP DUP2 SLOAD DUP2 PUSH1 0xFF MUL NOT AND SWAP1 DUP4 ISZERO ISZERO MUL OR SWAP1 SSTORE POP POP JUMP JUMPDEST DUP1 PUSH2 0x2640 JUMPI PUSH2 0x263F PUSH2 0x26D4 JUMP JUMPDEST JUMPDEST PUSH2 0x264B DUP5 DUP5 DUP5 PUSH2 0x2717 JUMP JUMPDEST DUP1 PUSH2 0x2659 JUMPI PUSH2 0x2658 PUSH2 0x28E2 JUMP JUMPDEST JUMPDEST POP POP POP POP JUMP JUMPDEST PUSH1 0x0 PUSH2 0x26A1 DUP4 DUP4 PUSH1 0x40 MLOAD DUP1 PUSH1 0x40 ADD PUSH1 0x40 MSTORE DUP1 PUSH1 0x1A DUP2 MSTORE PUSH1 0x20 ADD PUSH32 0x536166654D6174683A206469766973696F6E206279207A65726F000000000000 DUP2 MSTORE POP PUSH2 0x28F6 JUMP JUMPDEST SWAP1 POP SWAP3 SWAP2 POP POP JUMP JUMPDEST PUSH1 0x0 DUP1 PUSH1 0x0 PUSH2 0x26B6 PUSH2 0x2959 JUMP JUMPDEST SWAP2 POP SWAP2 POP PUSH2 0x26CD DUP2 DUP4 PUSH2 0x265F SWAP1 SWAP2 SWAP1 PUSH4 0xFFFFFFFF AND JUMP JUMPDEST SWAP3 POP POP POP SWAP1 JUMP JUMPDEST PUSH1 0x0 PUSH1 0xD SLOAD EQ DUP1 ISZERO PUSH2 0x26E8 JUMPI POP PUSH1 0x0 PUSH1 0xE SLOAD EQ JUMPDEST ISZERO PUSH2 0x26F2 JUMPI PUSH2 0x2715 JUMP JUMPDEST PUSH1 0xD SLOAD PUSH1 0xF DUP2 SWAP1 SSTORE POP PUSH1 0xE SLOAD PUSH1 0x10 DUP2 SWAP1 SSTORE POP PUSH1 0x0 PUSH1 0xD DUP2 SWAP1 SSTORE POP PUSH1 0x0 PUSH1 0xE DUP2 SWAP1 SSTORE POP JUMPDEST JUMP JUMPDEST PUSH1 0x0 DUP1 PUSH1 0x0 DUP1 PUSH1 0x0 DUP1 PUSH2 0x2729 DUP8 PUSH2 0x29C7 JUMP JUMPDEST SWAP6 POP SWAP6 POP SWAP6 POP SWAP6 POP SWAP6 POP SWAP6 POP PUSH2 0x2787 DUP7 PUSH1 0x2 PUSH1 0x0 DUP13 PUSH20 0xFFFFFFFFFFFFFFFFFFFFFFFFFFFFFFFFFFFFFFFF AND PUSH20 0xFFFFFFFFFFFFFFFFFFFFFFFFFFFFFFFFFFFFFFFF AND DUP2 MSTORE PUSH1 0x20 ADD SWAP1 DUP2 MSTORE PUSH1 0x20 ADD PUSH1 0x0 KECCAK256 SLOAD PUSH2 0x2A2F SWAP1 SWAP2 SWAP1 PUSH4 0xFFFFFFFF AND JUMP JUMPDEST PUSH1 0x2 PUSH1 0x0 DUP12 PUSH20 0xFFFFFFFFFFFFFFFFFFFFFFFFFFFFFFFFFFFFFFFF AND PUSH20 0xFFFFFFFFFFFFFFFFFFFFFFFFFFFFFFFFFFFFFFFF AND DUP2 MSTORE PUSH1 0x20 ADD SWAP1 DUP2 MSTORE PUSH1 0x20 ADD PUSH1 0x0 KECCAK256 DUP2 SWAP1 SSTORE POP PUSH2 0x281C DUP6 PUSH1 0x2 PUSH1 0x0 DUP12 PUSH20 0xFFFFFFFFFFFFFFFFFFFFFFFFFFFFFFFFFFFFFFFF AND PUSH20 0xFFFFFFFFFFFFFFFFFFFFFFFFFFFFFFFFFFFFFFFF AND DUP2 MSTORE PUSH1 0x20 ADD SWAP1 DUP2 MSTORE PUSH1 0x20 ADD PUSH1 0x0 KECCAK256 SLOAD PUSH2 0x2A79 SWAP1 SWAP2 SWAP1 PUSH4 0xFFFFFFFF AND JUMP JUMPDEST PUSH1 0x2 PUSH1 0x0 DUP11 PUSH20 0xFFFFFFFFFFFFFFFFFFFFFFFFFFFFFFFFFFFFFFFF AND PUSH20 0xFFFFFFFFFFFFFFFFFFFFFFFFFFFFFFFFFFFFFFFF AND DUP2 MSTORE PUSH1 0x20 ADD SWAP1 DUP2 MSTORE PUSH1 0x20 ADD PUSH1 0x0 KECCAK256 DUP2 SWAP1 SSTORE POP PUSH2 0x2868 DUP2 PUSH2 0x2AD7 JUMP JUMPDEST PUSH2 0x2872 DUP5 DUP4 PUSH2 0x2B94 JUMP JUMPDEST DUP8 PUSH20 0xFFFFFFFFFFFFFFFFFFFFFFFFFFFFFFFFFFFFFFFF AND DUP10 PUSH20 0xFFFFFFFFFFFFFFFFFFFFFFFFFFFFFFFFFFFFFFFF AND PUSH32 0xDDF252AD1BE2C89B69C2B068FC378DAA952BA7F163C4A11628F55A4DF523B3EF DUP6 PUSH1 0x40 MLOAD PUSH2 0x28CF SWAP2 SWAP1 PUSH2 0x315B JUMP JUMPDEST PUSH1 0x40 MLOAD DUP1 SWAP2 SUB SWAP1 LOG3 POP POP POP POP POP POP POP POP POP JUMP JUMPDEST PUSH1 0xF SLOAD PUSH1 0xD DUP2 SWAP1 SSTORE POP PUSH1 0x10 SLOAD PUSH1 0xE DUP2 SWAP1 SSTORE POP JUMP JUMPDEST PUSH1 0x0 DUP1 DUP4 GT DUP3 SWAP1 PUSH2 0x293D JUMPI PUSH1 0x40 MLOAD PUSH32 0x8C379A000000000000000000000000000000000000000000000000000000000 DUP2 MSTORE PUSH1 0x4 ADD PUSH2 0x2934 SWAP2 SWAP1 PUSH2 0x3004 JUMP JUMPDEST PUSH1 0x40 MLOAD DUP1 SWAP2 SUB SWAP1 REVERT JUMPDEST POP PUSH1 0x0 DUP4 DUP6 PUSH2 0x294C SWAP2 SWAP1 PUSH2 0x3DC0 JUMP JUMPDEST SWAP1 POP DUP1 SWAP2 POP POP SWAP4 SWAP3 POP POP POP JUMP JUMPDEST PUSH1 0x0 DUP1 PUSH1 0x0 PUSH1 0x6 SLOAD SWAP1 POP PUSH1 0x0 PUSH13 0x1431E0FAE6D7217CAA0000000 SWAP1 POP PUSH2 0x2997 PUSH13 0x1431E0FAE6D7217CAA0000000 PUSH1 0x6 SLOAD PUSH2 0x265F SWAP1 SWAP2 SWAP1 PUSH4 0xFFFFFFFF AND JUMP JUMPDEST DUP3 LT ISZERO PUSH2 0x29BA JUMPI PUSH1 0x6 SLOAD PUSH13 0x1431E0FAE6D7217CAA0000000 SWAP4 POP SWAP4 POP POP POP PUSH2 0x29C3 JUMP JUMPDEST DUP2 DUP2 SWAP4 POP SWAP4 POP POP POP JUMPDEST SWAP1 SWAP2 JUMP JUMPDEST PUSH1 0x0 DUP1 PUSH1 0x0 DUP1 PUSH1 0x0 DUP1 PUSH1 0x0 DUP1 PUSH1 0x0 PUSH2 0x29E4 DUP11 PUSH1 0xD SLOAD PUSH1 0xE SLOAD PUSH2 0x2BCE JUMP JUMPDEST SWAP3 POP SWAP3 POP SWAP3 POP PUSH1 0x0 PUSH2 0x29F4 PUSH2 0x26A9 JUMP JUMPDEST SWAP1 POP PUSH1 0x0 DUP1 PUSH1 0x0 PUSH2 0x2A07 DUP15 DUP8 DUP8 DUP8 PUSH2 0x2C64 JUMP JUMPDEST SWAP3 POP SWAP3 POP SWAP3 POP DUP3 DUP3 DUP3 DUP10 DUP10 DUP10 SWAP13 POP SWAP13 POP SWAP13 POP SWAP13 POP SWAP13 POP SWAP13 POP POP POP POP POP POP POP POP SWAP2 SWAP4 SWAP6 POP SWAP2 SWAP4 SWAP6 JUMP JUMPDEST PUSH1 0x0 PUSH2 0x2A71 DUP4 DUP4 PUSH1 0x40 MLOAD DUP1 PUSH1 0x40 ADD PUSH1 0x40 MSTORE DUP1 PUSH1 0x1E DUP2 MSTORE PUSH1 0x20 ADD PUSH32 0x536166654D6174683A207375627472616374696F6E206F766572666C6F770000 DUP2 MSTORE POP PUSH2 0x21EC JUMP JUMPDEST SWAP1 POP SWAP3 SWAP2 POP POP JUMP JUMPDEST PUSH1 0x0 DUP1 DUP3 DUP5 PUSH2 0x2A88 SWAP2 SWAP1 PUSH2 0x3A4E JUMP JUMPDEST SWAP1 POP DUP4 DUP2 LT ISZERO PUSH2 0x2ACD JUMPI PUSH1 0x40 MLOAD PUSH32 0x8C379A000000000000000000000000000000000000000000000000000000000 DUP2 MSTORE PUSH1 0x4 ADD PUSH2 0x2AC4 SWAP1 PUSH2 0x3E3D JUMP JUMPDEST PUSH1 0x40 MLOAD DUP1 SWAP2 SUB SWAP1 REVERT JUMPDEST DUP1 SWAP2 POP POP SWAP3 SWAP2 POP POP JUMP JUMPDEST PUSH1 0x0 PUSH2 0x2AE1 PUSH2 0x26A9 JUMP JUMPDEST SWAP1 POP PUSH1 0x0 PUSH2 0x2AF8 DUP3 DUP5 PUSH2 0x2CED SWAP1 SWAP2 SWAP1 PUSH4 0xFFFFFFFF AND JUMP JUMPDEST SWAP1 POP PUSH2 0x2B4C DUP2 PUSH1 0x2 PUSH1 0x0 ADDRESS PUSH20 0xFFFFFFFFFFFFFFFFFFFFFFFFFFFFFFFFFFFFFFFF AND PUSH20 0xFFFFFFFFFFFFFFFFFFFFFFFFFFFFFFFFFFFFFFFF AND DUP2 MSTORE PUSH1 0x20 ADD SWAP1 DUP2 MSTORE PUSH1 0x20 ADD PUSH1 0x0 KECCAK256 SLOAD PUSH2 0x2A79 SWAP1 SWAP2 SWAP1 PUSH4 0xFFFFFFFF AND JUMP JUMPDEST PUSH1 0x2 PUSH1 0x0 ADDRESS PUSH20 0xFFFFFFFFFFFFFFFFFFFFFFFFFFFFFFFFFFFFFFFF AND PUSH20 0xFFFFFFFFFFFFFFFFFFFFFFFFFFFFFFFFFFFFFFFF AND DUP2 MSTORE PUSH1 0x20 ADD SWAP1 DUP2 MSTORE PUSH1 0x20 ADD PUSH1 0x0 KECCAK256 DUP2 SWAP1 SSTORE POP POP POP POP JUMP JUMPDEST PUSH2 0x2BA9 DUP3 PUSH1 0x6 SLOAD PUSH2 0x2A2F SWAP1 SWAP2 SWAP1 PUSH4 0xFFFFFFFF AND JUMP JUMPDEST PUSH1 0x6 DUP2 SWAP1 SSTORE POP PUSH2 0x2BC4 DUP2 PUSH1 0x7 SLOAD PUSH2 0x2A79 SWAP1 SWAP2 SWAP1 PUSH4 0xFFFFFFFF AND JUMP JUMPDEST PUSH1 0x7 DUP2 SWAP1 SSTORE POP POP POP JUMP JUMPDEST PUSH1 0x0 DUP1 PUSH1 0x0 DUP1 PUSH2 0x2BFA PUSH1 0x64 PUSH2 0x2BEC DUP9 DUP11 PUSH2 0x2CED SWAP1 SWAP2 SWAP1 PUSH4 0xFFFFFFFF AND JUMP JUMPDEST PUSH2 0x265F SWAP1 SWAP2 SWAP1 PUSH4 0xFFFFFFFF AND JUMP JUMPDEST SWAP1 POP PUSH1 0x0 PUSH2 0x2C24 PUSH1 0x64 PUSH2 0x2C16 DUP9 DUP12 PUSH2 0x2CED SWAP1 SWAP2 SWAP1 PUSH4 0xFFFFFFFF AND JUMP JUMPDEST PUSH2 0x265F SWAP1 SWAP2 SWAP1 PUSH4 0xFFFFFFFF AND JUMP JUMPDEST SWAP1 POP PUSH1 0x0 PUSH2 0x2C4D DUP3 PUSH2 0x2C3F DUP6 DUP13 PUSH2 0x2A2F SWAP1 SWAP2 SWAP1 PUSH4 0xFFFFFFFF AND JUMP JUMPDEST PUSH2 0x2A2F SWAP1 SWAP2 SWAP1 PUSH4 0xFFFFFFFF AND JUMP JUMPDEST SWAP1 POP DUP1 DUP4 DUP4 SWAP6 POP SWAP6 POP SWAP6 POP POP POP POP SWAP4 POP SWAP4 POP SWAP4 SWAP1 POP JUMP JUMPDEST PUSH1 0x0 DUP1 PUSH1 0x0 DUP1 PUSH2 0x2C7D DUP6 DUP10 PUSH2 0x2CED SWAP1 SWAP2 SWAP1 PUSH4 0xFFFFFFFF AND JUMP JUMPDEST SWAP1 POP PUSH1 0x0 PUSH2 0x2C94 DUP7 DUP10 PUSH2 0x2CED SWAP1 SWAP2 SWAP1 PUSH4 0xFFFFFFFF AND JUMP JUMPDEST SWAP1 POP PUSH1 0x0 PUSH2 0x2CAB DUP8 DUP10 PUSH2 0x2CED SWAP1 SWAP2 SWAP1 PUSH4 0xFFFFFFFF AND JUMP JUMPDEST SWAP1 POP PUSH1 0x0 PUSH2 0x2CD4 DUP3 PUSH2 0x2CC6 DUP6 DUP8 PUSH2 0x2A2F SWAP1 SWAP2 SWAP1 PUSH4 0xFFFFFFFF AND JUMP JUMPDEST PUSH2 0x2A2F SWAP1 SWAP2 SWAP1 PUSH4 0xFFFFFFFF AND JUMP JUMPDEST SWAP1 POP DUP4 DUP2 DUP5 SWAP7 POP SWAP7 POP SWAP7 POP POP POP POP POP SWAP5 POP SWAP5 POP SWAP5 SWAP2 POP POP JUMP JUMPDEST PUSH1 0x0 DUP1 DUP4 EQ ISZERO PUSH2 0x2D00 JUMPI PUSH1 0x0 SWAP1 POP PUSH2 0x2D62 JUMP JUMPDEST PUSH1 0x0 DUP3 DUP5 PUSH2 0x2D0E SWAP2 SWAP1 PUSH2 0x3E5D JUMP JUMPDEST SWAP1 POP DUP3 DUP5 DUP3 PUSH2 0x2D1D SWAP2 SWAP1 PUSH2 0x3DC0 JUMP JUMPDEST EQ PUSH2 0x2D5D JUMPI PUSH1 0x40 MLOAD PUSH32 0x8C379A000000000000000000000000000000000000000000000000000000000 DUP2 MSTORE PUSH1 0x4 ADD PUSH2 0x2D54 SWAP1 PUSH2 0x3F29 JUMP JUMPDEST PUSH1 0x40 MLOAD DUP1 SWAP2 SUB SWAP1 REVERT JUMPDEST DUP1 SWAP2 POP POP JUMPDEST SWAP3 SWAP2 POP POP JUMP JUMPDEST PUSH1 0x0 PUSH1 0x40 MLOAD SWAP1 POP SWAP1 JUMP JUMPDEST PUSH1 0x0 DUP1 REVERT JUMPDEST PUSH1 0x0 DUP1 REVERT JUMPDEST PUSH1 0x0 DUP1 REVERT JUMPDEST PUSH1 0x0 PUSH1 0x1F NOT PUSH1 0x1F DUP4 ADD AND SWAP1 POP SWAP2 SWAP1 POP JUMP JUMPDEST PUSH32 0x4E487B7100000000000000000000000000000000000000000000000000000000 PUSH1 0x0 MSTORE PUSH1 0x41 PUSH1 0x4 MSTORE PUSH1 0x24 PUSH1 0x0 REVERT JUMPDEST PUSH2 0x2DCA DUP3 PUSH2 0x2D81 JUMP JUMPDEST DUP2 ADD DUP2 DUP2 LT PUSH8 0xFFFFFFFFFFFFFFFF DUP3 GT OR ISZERO PUSH2 0x2DE9 JUMPI PUSH2 0x2DE8 PUSH2 0x2D92 JUMP JUMPDEST JUMPDEST DUP1 PUSH1 0x40 MSTORE POP POP POP JUMP JUMPDEST PUSH1 0x0 PUSH2 0x2DFC PUSH2 0x2D68 JUMP JUMPDEST SWAP1 POP PUSH2 0x2E08 DUP3 DUP3 PUSH2 0x2DC1 JUMP JUMPDEST SWAP2 SWAP1 POP JUMP JUMPDEST PUSH1 0x0 PUSH8 0xFFFFFFFFFFFFFFFF DUP3 GT ISZERO PUSH2 0x2E28 JUMPI PUSH2 0x2E27 PUSH2 0x2D92 JUMP JUMPDEST JUMPDEST PUSH1 0x20 DUP3 MUL SWAP1 POP PUSH1 0x20 DUP2 ADD SWAP1 POP SWAP2 SWAP1 POP JUMP JUMPDEST PUSH1 0x0 DUP1 REVERT JUMPDEST PUSH1 0x0 PUSH20 0xFFFFFFFFFFFFFFFFFFFFFFFFFFFFFFFFFFFFFFFF DUP3 AND SWAP1 POP SWAP2 SWAP1 POP JUMP JUMPDEST PUSH1 0x0 PUSH2 0x2E69 DUP3 PUSH2 0x2E3E JUMP JUMPDEST SWAP1 POP SWAP2 SWAP1 POP JUMP JUMPDEST PUSH2 0x2E79 DUP2 PUSH2 0x2E5E JUMP JUMPDEST DUP2 EQ PUSH2 0x2E84 JUMPI PUSH1 0x0 DUP1 REVERT JUMPDEST POP JUMP JUMPDEST PUSH1 0x0 DUP2 CALLDATALOAD SWAP1 POP PUSH2 0x2E96 DUP2 PUSH2 0x2E70 JUMP JUMPDEST SWAP3 SWAP2 POP POP JUMP JUMPDEST PUSH1 0x0 PUSH2 0x2EAF PUSH2 0x2EAA DUP5 PUSH2 0x2E0D JUMP JUMPDEST PUSH2 0x2DF2 JUMP JUMPDEST SWAP1 POP DUP1 DUP4 DUP3 MSTORE PUSH1 0x20 DUP3 ADD SWAP1 POP PUSH1 0x20 DUP5 MUL DUP4 ADD DUP6 DUP2 GT ISZERO PUSH2 0x2ED2 JUMPI PUSH2 0x2ED1 PUSH2 0x2E39 JUMP JUMPDEST JUMPDEST DUP4 JUMPDEST DUP2 DUP2 LT ISZERO PUSH2 0x2EFB JUMPI DUP1 PUSH2 0x2EE7 DUP9 DUP3 PUSH2 0x2E87 JUMP JUMPDEST DUP5 MSTORE PUSH1 0x20 DUP5 ADD SWAP4 POP POP PUSH1 0x20 DUP2 ADD SWAP1 POP PUSH2 0x2ED4 JUMP JUMPDEST POP POP POP SWAP4 SWAP3 POP POP POP JUMP JUMPDEST PUSH1 0x0 DUP3 PUSH1 0x1F DUP4 ADD SLT PUSH2 0x2F1A JUMPI PUSH2 0x2F19 PUSH2 0x2D7C JUMP JUMPDEST JUMPDEST DUP2 CALLDATALOAD PUSH2 0x2F2A DUP5 DUP3 PUSH1 0x20 DUP7 ADD PUSH2 0x2E9C JUMP JUMPDEST SWAP2 POP POP SWAP3 SWAP2 POP POP JUMP JUMPDEST PUSH1 0x0 PUSH1 0x20 DUP3 DUP5 SUB SLT ISZERO PUSH2 0x2F49 JUMPI PUSH2 0x2F48 PUSH2 0x2D72 JUMP JUMPDEST JUMPDEST PUSH1 0x0 DUP3 ADD CALLDATALOAD PUSH8 0xFFFFFFFFFFFFFFFF DUP2 GT ISZERO PUSH2 0x2F67 JUMPI PUSH2 0x2F66 PUSH2 0x2D77 JUMP JUMPDEST JUMPDEST PUSH2 0x2F73 DUP5 DUP3 DUP6 ADD PUSH2 0x2F05 JUMP JUMPDEST SWAP2 POP POP SWAP3 SWAP2 POP POP JUMP JUMPDEST PUSH1 0x0 DUP2 MLOAD SWAP1 POP SWAP2 SWAP1 POP JUMP JUMPDEST PUSH1 0x0 DUP3 DUP3 MSTORE PUSH1 0x20 DUP3 ADD SWAP1 POP SWAP3 SWAP2 POP POP JUMP JUMPDEST PUSH1 0x0 JUMPDEST DUP4 DUP2 LT ISZERO PUSH2 0x2FB6 JUMPI DUP1 DUP3 ADD MLOAD DUP2 DUP5 ADD MSTORE PUSH1 0x20 DUP2 ADD SWAP1 POP PUSH2 0x2F9B JUMP JUMPDEST DUP4 DUP2 GT ISZERO PUSH2 0x2FC5 JUMPI PUSH1 0x0 DUP5 DUP5 ADD MSTORE JUMPDEST POP POP POP POP JUMP JUMPDEST PUSH1 0x0 PUSH2 0x2FD6 DUP3 PUSH2 0x2F7C JUMP JUMPDEST PUSH2 0x2FE0 DUP2 DUP6 PUSH2 0x2F87 JUMP JUMPDEST SWAP4 POP PUSH2 0x2FF0 DUP2 DUP6 PUSH1 0x20 DUP7 ADD PUSH2 0x2F98 JUMP JUMPDEST PUSH2 0x2FF9 DUP2 PUSH2 0x2D81 JUMP JUMPDEST DUP5 ADD SWAP2 POP POP SWAP3 SWAP2 POP POP JUMP JUMPDEST PUSH1 0x0 PUSH1 0x20 DUP3 ADD SWAP1 POP DUP2 DUP2 SUB PUSH1 0x0 DUP4 ADD MSTORE PUSH2 0x301E DUP2 DUP5 PUSH2 0x2FCB JUMP JUMPDEST SWAP1 POP SWAP3 SWAP2 POP POP JUMP JUMPDEST PUSH1 0x0 DUP2 SWAP1 POP SWAP2 SWAP1 POP JUMP JUMPDEST PUSH2 0x3039 DUP2 PUSH2 0x3026 JUMP JUMPDEST DUP2 EQ PUSH2 0x3044 JUMPI PUSH1 0x0 DUP1 REVERT JUMPDEST POP JUMP JUMPDEST PUSH1 0x0 DUP2 CALLDATALOAD SWAP1 POP PUSH2 0x3056 DUP2 PUSH2 0x3030 JUMP JUMPDEST SWAP3 SWAP2 POP POP JUMP JUMPDEST PUSH1 0x0 DUP1 PUSH1 0x40 DUP4 DUP6 SUB SLT ISZERO PUSH2 0x3073 JUMPI PUSH2 0x3072 PUSH2 0x2D72 JUMP JUMPDEST JUMPDEST PUSH1 0x0 PUSH2 0x3081 DUP6 DUP3 DUP7 ADD PUSH2 0x2E87 JUMP JUMPDEST SWAP3 POP POP PUSH1 0x20 PUSH2 0x3092 DUP6 DUP3 DUP7 ADD PUSH2 0x3047 JUMP JUMPDEST SWAP2 POP POP SWAP3 POP SWAP3 SWAP1 POP JUMP JUMPDEST PUSH1 0x0 DUP2 ISZERO ISZERO SWAP1 POP SWAP2 SWAP1 POP JUMP JUMPDEST PUSH2 0x30B1 DUP2 PUSH2 0x309C JUMP JUMPDEST DUP3 MSTORE POP POP JUMP JUMPDEST PUSH1 0x0 PUSH1 0x20 DUP3 ADD SWAP1 POP PUSH2 0x30CC PUSH1 0x0 DUP4 ADD DUP5 PUSH2 0x30A8 JUMP JUMPDEST SWAP3 SWAP2 POP POP JUMP JUMPDEST PUSH1 0x0 DUP2 SWAP1 POP SWAP2 SWAP1 POP JUMP JUMPDEST PUSH1 0x0 PUSH2 0x30F7 PUSH2 0x30F2 PUSH2 0x30ED DUP5 PUSH2 0x2E3E JUMP JUMPDEST PUSH2 0x30D2 JUMP JUMPDEST PUSH2 0x2E3E JUMP JUMPDEST SWAP1 POP SWAP2 SWAP1 POP JUMP JUMPDEST PUSH1 0x0 PUSH2 0x3109 DUP3 PUSH2 0x30DC JUMP JUMPDEST SWAP1 POP SWAP2 SWAP1 POP JUMP JUMPDEST PUSH1 0x0 PUSH2 0x311B DUP3 PUSH2 0x30FE JUMP JUMPDEST SWAP1 POP SWAP2 SWAP1 POP JUMP JUMPDEST PUSH2 0x312B DUP2 PUSH2 0x3110 JUMP JUMPDEST DUP3 MSTORE POP POP JUMP JUMPDEST PUSH1 0x0 PUSH1 0x20 DUP3 ADD SWAP1 POP PUSH2 0x3146 PUSH1 0x0 DUP4 ADD DUP5 PUSH2 0x3122 JUMP JUMPDEST SWAP3 SWAP2 POP POP JUMP JUMPDEST PUSH2 0x3155 DUP2 PUSH2 0x3026 JUMP JUMPDEST DUP3 MSTORE POP POP JUMP JUMPDEST PUSH1 0x0 PUSH1 0x20 DUP3 ADD SWAP1 POP PUSH2 0x3170 PUSH1 0x0 DUP4 ADD DUP5 PUSH2 0x314C JUMP JUMPDEST SWAP3 SWAP2 POP POP JUMP JUMPDEST PUSH1 0x0 DUP1 PUSH1 0x0 PUSH1 0x60 DUP5 DUP7 SUB SLT ISZERO PUSH2 0x318F JUMPI PUSH2 0x318E PUSH2 0x2D72 JUMP JUMPDEST JUMPDEST PUSH1 0x0 PUSH2 0x319D DUP7 DUP3 DUP8 ADD PUSH2 0x2E87 JUMP JUMPDEST SWAP4 POP POP PUSH1 0x20 PUSH2 0x31AE DUP7 DUP3 DUP8 ADD PUSH2 0x2E87 JUMP JUMPDEST SWAP3 POP POP PUSH1 0x40 PUSH2 0x31BF DUP7 DUP3 DUP8 ADD PUSH2 0x3047 JUMP JUMPDEST SWAP2 POP POP SWAP3 POP SWAP3 POP SWAP3 JUMP JUMPDEST PUSH1 0x0 PUSH1 0xFF DUP3 AND SWAP1 POP SWAP2 SWAP1 POP JUMP JUMPDEST PUSH2 0x31DF DUP2 PUSH2 0x31C9 JUMP JUMPDEST DUP3 MSTORE POP POP JUMP JUMPDEST PUSH1 0x0 PUSH1 0x20 DUP3 ADD SWAP1 POP PUSH2 0x31FA PUSH1 0x0 DUP4 ADD DUP5 PUSH2 0x31D6 JUMP JUMPDEST SWAP3 SWAP2 POP POP JUMP JUMPDEST PUSH2 0x3209 DUP2 PUSH2 0x2E5E JUMP JUMPDEST DUP3 MSTORE POP POP JUMP JUMPDEST PUSH1 0x0 PUSH1 0x20 DUP3 ADD SWAP1 POP PUSH2 0x3224 PUSH1 0x0 DUP4 ADD DUP5 PUSH2 0x3200 JUMP JUMPDEST SWAP3 SWAP2 POP POP JUMP JUMPDEST PUSH1 0x0 PUSH1 0x20 DUP3 DUP5 SUB SLT ISZERO PUSH2 0x3240 JUMPI PUSH2 0x323F PUSH2 0x2D72 JUMP JUMPDEST JUMPDEST PUSH1 0x0 PUSH2 0x324E DUP5 DUP3 DUP6 ADD PUSH2 0x2E87 JUMP JUMPDEST SWAP2 POP POP SWAP3 SWAP2 POP POP JUMP JUMPDEST PUSH2 0x3260 DUP2 PUSH2 0x309C JUMP JUMPDEST DUP2 EQ PUSH2 0x326B JUMPI PUSH1 0x0 DUP1 REVERT JUMPDEST POP JUMP JUMPDEST PUSH1 0x0 DUP2 CALLDATALOAD SWAP1 POP PUSH2 0x327D DUP2 PUSH2 0x3257 JUMP JUMPDEST SWAP3 SWAP2 POP POP JUMP JUMPDEST PUSH1 0x0 PUSH1 0x20 DUP3 DUP5 SUB SLT ISZERO PUSH2 0x3299 JUMPI PUSH2 0x3298 PUSH2 0x2D72 JUMP JUMPDEST JUMPDEST PUSH1 0x0 PUSH2 0x32A7 DUP5 DUP3 DUP6 ADD PUSH2 0x326E JUMP JUMPDEST SWAP2 POP POP SWAP3 SWAP2 POP POP JUMP JUMPDEST PUSH1 0x0 PUSH1 0x20 DUP3 DUP5 SUB SLT ISZERO PUSH2 0x32C6 JUMPI PUSH2 0x32C5 PUSH2 0x2D72 JUMP JUMPDEST JUMPDEST PUSH1 0x0 PUSH2 0x32D4 DUP5 DUP3 DUP6 ADD PUSH2 0x3047 JUMP JUMPDEST SWAP2 POP POP SWAP3 SWAP2 POP POP JUMP JUMPDEST PUSH1 0x0 DUP1 PUSH1 0x0 DUP1 PUSH1 0x80 DUP6 DUP8 SUB SLT ISZERO PUSH2 0x32F7 JUMPI PUSH2 0x32F6 PUSH2 0x2D72 JUMP JUMPDEST JUMPDEST PUSH1 0x0 PUSH2 0x3305 DUP8 DUP3 DUP9 ADD PUSH2 0x3047 JUMP JUMPDEST SWAP5 POP POP PUSH1 0x20 PUSH2 0x3316 DUP8 DUP3 DUP9 ADD PUSH2 0x3047 JUMP JUMPDEST SWAP4 POP POP PUSH1 0x40 PUSH2 0x3327 DUP8 DUP3 DUP9 ADD PUSH2 0x3047 JUMP JUMPDEST SWAP3 POP POP PUSH1 0x60 PUSH2 0x3338 DUP8 DUP3 DUP9 ADD PUSH2 0x3047 JUMP JUMPDEST SWAP2 POP POP SWAP3 SWAP6 SWAP2 SWAP5 POP SWAP3 POP JUMP JUMPDEST PUSH1 0x0 DUP1 REVERT JUMPDEST PUSH1 0x0 DUP1 DUP4 PUSH1 0x1F DUP5 ADD SLT PUSH2 0x335F JUMPI PUSH2 0x335E PUSH2 0x2D7C JUMP JUMPDEST JUMPDEST DUP3 CALLDATALOAD SWAP1 POP PUSH8 0xFFFFFFFFFFFFFFFF DUP2 GT ISZERO PUSH2 0x337C JUMPI PUSH2 0x337B PUSH2 0x3344 JUMP JUMPDEST JUMPDEST PUSH1 0x20 DUP4 ADD SWAP2 POP DUP4 PUSH1 0x20 DUP3 MUL DUP4 ADD GT ISZERO PUSH2 0x3398 JUMPI PUSH2 0x3397 PUSH2 0x2E39 JUMP JUMPDEST JUMPDEST SWAP3 POP SWAP3 SWAP1 POP JUMP JUMPDEST PUSH1 0x0 DUP1 PUSH1 0x0 PUSH1 0x40 DUP5 DUP7 SUB SLT ISZERO PUSH2 0x33B8 JUMPI PUSH2 0x33B7 PUSH2 0x2D72 JUMP JUMPDEST JUMPDEST PUSH1 0x0 DUP5 ADD CALLDATALOAD PUSH8 0xFFFFFFFFFFFFFFFF DUP2 GT ISZERO PUSH2 0x33D6 JUMPI PUSH2 0x33D5 PUSH2 0x2D77 JUMP JUMPDEST JUMPDEST PUSH2 0x33E2 DUP7 DUP3 DUP8 ADD PUSH2 0x3349 JUMP JUMPDEST SWAP4 POP SWAP4 POP POP PUSH1 0x20 PUSH2 0x33F5 DUP7 DUP3 DUP8 ADD PUSH2 0x326E JUMP JUMPDEST SWAP2 POP POP SWAP3 POP SWAP3 POP SWAP3 JUMP JUMPDEST PUSH1 0x0 DUP1 PUSH1 0x40 DUP4 DUP6 SUB SLT ISZERO PUSH2 0x3416 JUMPI PUSH2 0x3415 PUSH2 0x2D72 JUMP JUMPDEST JUMPDEST PUSH1 0x0 PUSH2 0x3424 DUP6 DUP3 DUP7 ADD PUSH2 0x2E87 JUMP JUMPDEST SWAP3 POP POP PUSH1 0x20 PUSH2 0x3435 DUP6 DUP3 DUP7 ADD PUSH2 0x2E87 JUMP JUMPDEST SWAP2 POP POP SWAP3 POP SWAP3 SWAP1 POP JUMP JUMPDEST PUSH32 0x4F776E61626C653A2063616C6C6572206973206E6F7420746865206F776E6572 PUSH1 0x0 DUP3 ADD MSTORE POP JUMP JUMPDEST PUSH1 0x0 PUSH2 0x3475 PUSH1 0x20 DUP4 PUSH2 0x2F87 JUMP JUMPDEST SWAP2 POP PUSH2 0x3480 DUP3 PUSH2 0x343F JUMP JUMPDEST PUSH1 0x20 DUP3 ADD SWAP1 POP SWAP2 SWAP1 POP JUMP JUMPDEST PUSH1 0x0 PUSH1 0x20 DUP3 ADD SWAP1 POP DUP2 DUP2 SUB PUSH1 0x0 DUP4 ADD MSTORE PUSH2 0x34A4 DUP2 PUSH2 0x3468 JUMP JUMPDEST SWAP1 POP SWAP2 SWAP1 POP JUMP JUMPDEST PUSH32 0x4E487B7100000000000000000000000000000000000000000000000000000000 PUSH1 0x0 MSTORE PUSH1 0x32 PUSH1 0x4 MSTORE PUSH1 0x24 PUSH1 0x0 REVERT JUMPDEST PUSH32 0x4E487B7100000000000000000000000000000000000000000000000000000000 PUSH1 0x0 MSTORE PUSH1 0x11 PUSH1 0x4 MSTORE PUSH1 0x24 PUSH1 0x0 REVERT JUMPDEST PUSH1 0x0 PUSH2 0x3514 DUP3 PUSH2 0x3026 JUMP JUMPDEST SWAP2 POP PUSH32 0xFFFFFFFFFFFFFFFFFFFFFFFFFFFFFFFFFFFFFFFFFFFFFFFFFFFFFFFFFFFFFFFF DUP3 EQ ISZERO PUSH2 0x3547 JUMPI PUSH2 0x3546 PUSH2 0x34DA JUMP JUMPDEST JUMPDEST PUSH1 0x1 DUP3 ADD SWAP1 POP SWAP2 SWAP1 POP JUMP JUMPDEST PUSH32 0x4F776E61626C653A206E6577206F776E657220697320746865207A65726F2061 PUSH1 0x0 DUP3 ADD MSTORE PUSH32 0x6464726573730000000000000000000000000000000000000000000000000000 PUSH1 0x20 DUP3 ADD MSTORE POP JUMP JUMPDEST PUSH1 0x0 PUSH2 0x35AE PUSH1 0x26 DUP4 PUSH2 0x2F87 JUMP JUMPDEST SWAP2 POP PUSH2 0x35B9 DUP3 PUSH2 0x3552 JUMP JUMPDEST PUSH1 0x40 DUP3 ADD SWAP1 POP SWAP2 SWAP1 POP JUMP JUMPDEST PUSH1 0x0 PUSH1 0x20 DUP3 ADD SWAP1 POP DUP2 DUP2 SUB PUSH1 0x0 DUP4 ADD MSTORE PUSH2 0x35DD DUP2 PUSH2 0x35A1 JUMP JUMPDEST SWAP1 POP SWAP2 SWAP1 POP JUMP JUMPDEST PUSH32 0x45524332303A20617070726F76652066726F6D20746865207A65726F20616464 PUSH1 0x0 DUP3 ADD MSTORE PUSH32 0x7265737300000000000000000000000000000000000000000000000000000000 PUSH1 0x20 DUP3 ADD MSTORE POP JUMP JUMPDEST PUSH1 0x0 PUSH2 0x3640 PUSH1 0x24 DUP4 PUSH2 0x2F87 JUMP JUMPDEST SWAP2 POP PUSH2 0x364B DUP3 PUSH2 0x35E4 JUMP JUMPDEST PUSH1 0x40 DUP3 ADD SWAP1 POP SWAP2 SWAP1 POP JUMP JUMPDEST PUSH1 0x0 PUSH1 0x20 DUP3 ADD SWAP1 POP DUP2 DUP2 SUB PUSH1 0x0 DUP4 ADD MSTORE PUSH2 0x366F DUP2 PUSH2 0x3633 JUMP JUMPDEST SWAP1 POP SWAP2 SWAP1 POP JUMP JUMPDEST PUSH32 0x45524332303A20617070726F766520746F20746865207A65726F206164647265 PUSH1 0x0 DUP3 ADD MSTORE PUSH32 0x7373000000000000000000000000000000000000000000000000000000000000 PUSH1 0x20 DUP3 ADD MSTORE POP JUMP JUMPDEST PUSH1 0x0 PUSH2 0x36D2 PUSH1 0x22 DUP4 PUSH2 0x2F87 JUMP JUMPDEST SWAP2 POP PUSH2 0x36DD DUP3 PUSH2 0x3676 JUMP JUMPDEST PUSH1 0x40 DUP3 ADD SWAP1 POP SWAP2 SWAP1 POP JUMP JUMPDEST PUSH1 0x0 PUSH1 0x20 DUP3 ADD SWAP1 POP DUP2 DUP2 SUB PUSH1 0x0 DUP4 ADD MSTORE PUSH2 0x3701 DUP2 PUSH2 0x36C5 JUMP JUMPDEST SWAP1 POP SWAP2 SWAP1 POP JUMP JUMPDEST PUSH32 0x45524332303A207472616E736665722066726F6D20746865207A65726F206164 PUSH1 0x0 DUP3 ADD MSTORE PUSH32 0x6472657373000000000000000000000000000000000000000000000000000000 PUSH1 0x20 DUP3 ADD MSTORE POP JUMP JUMPDEST PUSH1 0x0 PUSH2 0x3764 PUSH1 0x25 DUP4 PUSH2 0x2F87 JUMP JUMPDEST SWAP2 POP PUSH2 0x376F DUP3 PUSH2 0x3708 JUMP JUMPDEST PUSH1 0x40 DUP3 ADD SWAP1 POP SWAP2 SWAP1 POP JUMP JUMPDEST PUSH1 0x0 PUSH1 0x20 DUP3 ADD SWAP1 POP DUP2 DUP2 SUB PUSH1 0x0 DUP4 ADD MSTORE PUSH2 0x3793 DUP2 PUSH2 0x3757 JUMP JUMPDEST SWAP1 POP SWAP2 SWAP1 POP JUMP JUMPDEST PUSH32 0x45524332303A207472616E7366657220746F20746865207A65726F2061646472 PUSH1 0x0 DUP3 ADD MSTORE PUSH32 0x6573730000000000000000000000000000000000000000000000000000000000 PUSH1 0x20 DUP3 ADD MSTORE POP JUMP JUMPDEST PUSH1 0x0 PUSH2 0x37F6 PUSH1 0x23 DUP4 PUSH2 0x2F87 JUMP JUMPDEST SWAP2 POP PUSH2 0x3801 DUP3 PUSH2 0x379A JUMP JUMPDEST PUSH1 0x40 DUP3 ADD SWAP1 POP SWAP2 SWAP1 POP JUMP JUMPDEST PUSH1 0x0 PUSH1 0x20 DUP3 ADD SWAP1 POP DUP2 DUP2 SUB PUSH1 0x0 DUP4 ADD MSTORE PUSH2 0x3825 DUP2 PUSH2 0x37E9 JUMP JUMPDEST SWAP1 POP SWAP2 SWAP1 POP JUMP JUMPDEST PUSH32 0x5472616E7366657220616D6F756E74206D757374206265206772656174657220 PUSH1 0x0 DUP3 ADD MSTORE PUSH32 0x7468616E207A65726F0000000000000000000000000000000000000000000000 PUSH1 0x20 DUP3 ADD MSTORE POP JUMP JUMPDEST PUSH1 0x0 PUSH2 0x3888 PUSH1 0x29 DUP4 PUSH2 0x2F87 JUMP JUMPDEST SWAP2 POP PUSH2 0x3893 DUP3 PUSH2 0x382C JUMP JUMPDEST PUSH1 0x40 DUP3 ADD SWAP1 POP SWAP2 SWAP1 POP JUMP JUMPDEST PUSH1 0x0 PUSH1 0x20 DUP3 ADD SWAP1 POP DUP2 DUP2 SUB PUSH1 0x0 DUP4 ADD MSTORE PUSH2 0x38B7 DUP2 PUSH2 0x387B JUMP JUMPDEST SWAP1 POP SWAP2 SWAP1 POP JUMP JUMPDEST PUSH32 0x544F4B454E3A2054686973206163636F756E742063616E6E6F742073656E6420 PUSH1 0x0 DUP3 ADD MSTORE PUSH32 0x746F6B656E7320756E74696C2074726164696E6720697320656E61626C656400 PUSH1 0x20 DUP3 ADD MSTORE POP JUMP JUMPDEST PUSH1 0x0 PUSH2 0x391A PUSH1 0x3F DUP4 PUSH2 0x2F87 JUMP JUMPDEST SWAP2 POP PUSH2 0x3925 DUP3 PUSH2 0x38BE JUMP JUMPDEST PUSH1 0x40 DUP3 ADD SWAP1 POP SWAP2 SWAP1 POP JUMP JUMPDEST PUSH1 0x0 PUSH1 0x20 DUP3 ADD SWAP1 POP DUP2 DUP2 SUB PUSH1 0x0 DUP4 ADD MSTORE PUSH2 0x3949 DUP2 PUSH2 0x390D JUMP JUMPDEST SWAP1 POP SWAP2 SWAP1 POP JUMP JUMPDEST PUSH32 0x544F4B454E3A204D6178205472616E73616374696F6E204C696D697400000000 PUSH1 0x0 DUP3 ADD MSTORE POP JUMP JUMPDEST PUSH1 0x0 PUSH2 0x3986 PUSH1 0x1C DUP4 PUSH2 0x2F87 JUMP JUMPDEST SWAP2 POP PUSH2 0x3991 DUP3 PUSH2 0x3950 JUMP JUMPDEST PUSH1 0x20 DUP3 ADD SWAP1 POP SWAP2 SWAP1 POP JUMP JUMPDEST PUSH1 0x0 PUSH1 0x20 DUP3 ADD SWAP1 POP DUP2 DUP2 SUB PUSH1 0x0 DUP4 ADD MSTORE PUSH2 0x39B5 DUP2 PUSH2 0x3979 JUMP JUMPDEST SWAP1 POP SWAP2 SWAP1 POP JUMP JUMPDEST PUSH32 0x544F4B454E3A20596F7572206163636F756E7420697320626C61636B6C697374 PUSH1 0x0 DUP3 ADD MSTORE PUSH32 0x6564210000000000000000000000000000000000000000000000000000000000 PUSH1 0x20 DUP3 ADD MSTORE POP JUMP JUMPDEST PUSH1 0x0 PUSH2 0x3A18 PUSH1 0x23 DUP4 PUSH2 0x2F87 JUMP JUMPDEST SWAP2 POP PUSH2 0x3A23 DUP3 PUSH2 0x39BC JUMP JUMPDEST PUSH1 0x40 DUP3 ADD SWAP1 POP SWAP2 SWAP1 POP JUMP JUMPDEST PUSH1 0x0 PUSH1 0x20 DUP3 ADD SWAP1 POP DUP2 DUP2 SUB PUSH1 0x0 DUP4 ADD MSTORE PUSH2 0x3A47 DUP2 PUSH2 0x3A0B JUMP JUMPDEST SWAP1 POP SWAP2 SWAP1 POP JUMP JUMPDEST PUSH1 0x0 PUSH2 0x3A59 DUP3 PUSH2 0x3026 JUMP JUMPDEST SWAP2 POP PUSH2 0x3A64 DUP4 PUSH2 0x3026 JUMP JUMPDEST SWAP3 POP DUP3 PUSH32 0xFFFFFFFFFFFFFFFFFFFFFFFFFFFFFFFFFFFFFFFFFFFFFFFFFFFFFFFFFFFFFFFF SUB DUP3 GT ISZERO PUSH2 0x3A99 JUMPI PUSH2 0x3A98 PUSH2 0x34DA JUMP JUMPDEST JUMPDEST DUP3 DUP3 ADD SWAP1 POP SWAP3 SWAP2 POP POP JUMP JUMPDEST PUSH32 0x544F4B454E3A2042616C616E636520657863656564732077616C6C6574207369 PUSH1 0x0 DUP3 ADD MSTORE PUSH32 0x7A65210000000000000000000000000000000000000000000000000000000000 PUSH1 0x20 DUP3 ADD MSTORE POP JUMP JUMPDEST PUSH1 0x0 PUSH2 0x3B00 PUSH1 0x23 DUP4 PUSH2 0x2F87 JUMP JUMPDEST SWAP2 POP PUSH2 0x3B0B DUP3 PUSH2 0x3AA4 JUMP JUMPDEST PUSH1 0x40 DUP3 ADD SWAP1 POP SWAP2 SWAP1 POP JUMP JUMPDEST PUSH1 0x0 PUSH1 0x20 DUP3 ADD SWAP1 POP DUP2 DUP2 SUB PUSH1 0x0 DUP4 ADD MSTORE PUSH2 0x3B2F DUP2 PUSH2 0x3AF3 JUMP JUMPDEST SWAP1 POP SWAP2 SWAP1 POP JUMP JUMPDEST PUSH1 0x0 PUSH2 0x3B41 DUP3 PUSH2 0x3026 JUMP JUMPDEST SWAP2 POP PUSH2 0x3B4C DUP4 PUSH2 0x3026 JUMP JUMPDEST SWAP3 POP DUP3 DUP3 LT ISZERO PUSH2 0x3B5F JUMPI PUSH2 0x3B5E PUSH2 0x34DA JUMP JUMPDEST JUMPDEST DUP3 DUP3 SUB SWAP1 POP SWAP3 SWAP2 POP POP JUMP JUMPDEST PUSH32 0x416D6F756E74206D757374206265206C657373207468616E20746F74616C2072 PUSH1 0x0 DUP3 ADD MSTORE PUSH32 0x65666C656374696F6E7300000000000000000000000000000000000000000000 PUSH1 0x20 DUP3 ADD MSTORE POP JUMP JUMPDEST PUSH1 0x0 PUSH2 0x3BC6 PUSH1 0x2A DUP4 PUSH2 0x2F87 JUMP JUMPDEST SWAP2 POP PUSH2 0x3BD1 DUP3 PUSH2 0x3B6A JUMP JUMPDEST PUSH1 0x40 DUP3 ADD SWAP1 POP SWAP2 SWAP1 POP JUMP JUMPDEST PUSH1 0x0 PUSH1 0x20 DUP3 ADD SWAP1 POP DUP2 DUP2 SUB PUSH1 0x0 DUP4 ADD MSTORE PUSH2 0x3BF5 DUP2 PUSH2 0x3BB9 JUMP JUMPDEST SWAP1 POP SWAP2 SWAP1 POP JUMP JUMPDEST PUSH1 0x0 DUP2 MLOAD SWAP1 POP PUSH2 0x3C0B DUP2 PUSH2 0x2E70 JUMP JUMPDEST SWAP3 SWAP2 POP POP JUMP JUMPDEST PUSH1 0x0 PUSH1 0x20 DUP3 DUP5 SUB SLT ISZERO PUSH2 0x3C27 JUMPI PUSH2 0x3C26 PUSH2 0x2D72 JUMP JUMPDEST JUMPDEST PUSH1 0x0 PUSH2 0x3C35 DUP5 DUP3 DUP6 ADD PUSH2 0x3BFC JUMP JUMPDEST SWAP2 POP POP SWAP3 SWAP2 POP POP JUMP JUMPDEST PUSH1 0x0 DUP2 SWAP1 POP SWAP2 SWAP1 POP JUMP JUMPDEST PUSH1 0x0 PUSH2 0x3C63 PUSH2 0x3C5E PUSH2 0x3C59 DUP5 PUSH2 0x3C3E JUMP JUMPDEST PUSH2 0x30D2 JUMP JUMPDEST PUSH2 0x3026 JUMP JUMPDEST SWAP1 POP SWAP2 SWAP1 POP JUMP JUMPDEST PUSH2 0x3C73 DUP2 PUSH2 0x3C48 JUMP JUMPDEST DUP3 MSTORE POP POP JUMP JUMPDEST PUSH1 0x0 DUP2 MLOAD SWAP1 POP SWAP2 SWAP1 POP JUMP JUMPDEST PUSH1 0x0 DUP3 DUP3 MSTORE PUSH1 0x20 DUP3 ADD SWAP1 POP SWAP3 SWAP2 POP POP JUMP JUMPDEST PUSH1 0x0 DUP2 SWAP1 POP PUSH1 0x20 DUP3 ADD SWAP1 POP SWAP2 SWAP1 POP JUMP JUMPDEST PUSH2 0x3CAE DUP2 PUSH2 0x2E5E JUMP JUMPDEST DUP3 MSTORE POP POP JUMP JUMPDEST PUSH1 0x0 PUSH2 0x3CC0 DUP4 DUP4 PUSH2 0x3CA5 JUMP JUMPDEST PUSH1 0x20 DUP4 ADD SWAP1 POP SWAP3 SWAP2 POP POP JUMP JUMPDEST PUSH1 0x0 PUSH1 0x20 DUP3 ADD SWAP1 POP SWAP2 SWAP1 POP JUMP JUMPDEST PUSH1 0x0 PUSH2 0x3CE4 DUP3 PUSH2 0x3C79 JUMP JUMPDEST PUSH2 0x3CEE DUP2 DUP6 PUSH2 0x3C84 JUMP JUMPDEST SWAP4 POP PUSH2 0x3CF9 DUP4 PUSH2 0x3C95 JUMP JUMPDEST DUP1 PUSH1 0x0 JUMPDEST DUP4 DUP2 LT ISZERO PUSH2 0x3D2A JUMPI DUP2 MLOAD PUSH2 0x3D11 DUP9 DUP3 PUSH2 0x3CB4 JUMP JUMPDEST SWAP8 POP PUSH2 0x3D1C DUP4 PUSH2 0x3CCC JUMP JUMPDEST SWAP3 POP POP PUSH1 0x1 DUP2 ADD SWAP1 POP PUSH2 0x3CFD JUMP JUMPDEST POP DUP6 SWAP4 POP POP POP POP SWAP3 SWAP2 POP POP JUMP JUMPDEST PUSH1 0x0 PUSH1 0xA0 DUP3 ADD SWAP1 POP PUSH2 0x3D4C PUSH1 0x0 DUP4 ADD DUP9 PUSH2 0x314C JUMP JUMPDEST PUSH2 0x3D59 PUSH1 0x20 DUP4 ADD DUP8 PUSH2 0x3C6A JUMP JUMPDEST DUP2 DUP2 SUB PUSH1 0x40 DUP4 ADD MSTORE PUSH2 0x3D6B DUP2 DUP7 PUSH2 0x3CD9 JUMP JUMPDEST SWAP1 POP PUSH2 0x3D7A PUSH1 0x60 DUP4 ADD DUP6 PUSH2 0x3200 JUMP JUMPDEST PUSH2 0x3D87 PUSH1 0x80 DUP4 ADD DUP5 PUSH2 0x314C JUMP JUMPDEST SWAP7 SWAP6 POP POP POP POP POP POP JUMP JUMPDEST PUSH32 0x4E487B7100000000000000000000000000000000000000000000000000000000 PUSH1 0x0 MSTORE PUSH1 0x12 PUSH1 0x4 MSTORE PUSH1 0x24 PUSH1 0x0 REVERT JUMPDEST PUSH1 0x0 PUSH2 0x3DCB DUP3 PUSH2 0x3026 JUMP JUMPDEST SWAP2 POP PUSH2 0x3DD6 DUP4 PUSH2 0x3026 JUMP JUMPDEST SWAP3 POP DUP3 PUSH2 0x3DE6 JUMPI PUSH2 0x3DE5 PUSH2 0x3D91 JUMP JUMPDEST JUMPDEST DUP3 DUP3 DIV SWAP1 POP SWAP3 SWAP2 POP POP JUMP JUMPDEST PUSH32 0x536166654D6174683A206164646974696F6E206F766572666C6F770000000000 PUSH1 0x0 DUP3 ADD MSTORE POP JUMP JUMPDEST PUSH1 0x0 PUSH2 0x3E27 PUSH1 0x1B DUP4 PUSH2 0x2F87 JUMP JUMPDEST SWAP2 POP PUSH2 0x3E32 DUP3 PUSH2 0x3DF1 JUMP JUMPDEST PUSH1 0x20 DUP3 ADD SWAP1 POP SWAP2 SWAP1 POP JUMP JUMPDEST PUSH1 0x0 PUSH1 0x20 DUP3 ADD SWAP1 POP DUP2 DUP2 SUB PUSH1 0x0 DUP4 ADD MSTORE PUSH2 0x3E56 DUP2 PUSH2 0x3E1A JUMP JUMPDEST SWAP1 POP SWAP2 SWAP1 POP JUMP JUMPDEST PUSH1 0x0 PUSH2 0x3E68 DUP3 PUSH2 0x3026 JUMP JUMPDEST SWAP2 POP PUSH2 0x3E73 DUP4 PUSH2 0x3026 JUMP JUMPDEST SWAP3 POP DUP2 PUSH32 0xFFFFFFFFFFFFFFFFFFFFFFFFFFFFFFFFFFFFFFFFFFFFFFFFFFFFFFFFFFFFFFFF DIV DUP4 GT DUP3 ISZERO ISZERO AND ISZERO PUSH2 0x3EAC JUMPI PUSH2 0x3EAB PUSH2 0x34DA JUMP JUMPDEST JUMPDEST DUP3 DUP3 MUL SWAP1 POP SWAP3 SWAP2 POP POP JUMP JUMPDEST PUSH32 0x536166654D6174683A206D756C7469706C69636174696F6E206F766572666C6F PUSH1 0x0 DUP3 ADD MSTORE PUSH32 0x7700000000000000000000000000000000000000000000000000000000000000 PUSH1 0x20 DUP3 ADD MSTORE POP JUMP JUMPDEST PUSH1 0x0 PUSH2 0x3F13 PUSH1 0x21 DUP4 PUSH2 0x2F87 JUMP JUMPDEST SWAP2 POP PUSH2 0x3F1E DUP3 PUSH2 0x3EB7 JUMP JUMPDEST PUSH1 0x40 DUP3 ADD SWAP1 POP SWAP2 SWAP1 POP JUMP JUMPDEST PUSH1 0x0 PUSH1 0x20 DUP3 ADD SWAP1 POP DUP2 DUP2 SUB PUSH1 0x0 DUP4 ADD MSTORE PUSH2 0x3F42 DUP2 PUSH2 0x3F06 JUMP JUMPDEST SWAP1 POP SWAP2 SWAP1 POP JUMP INVALID GASLIMIT MSTORE NUMBER ORIGIN ADDRESS GASPRICE KECCAK256 PUSH21 0x72616E7366657220616D6F756E7420657863656564 PUSH20 0x20616C6C6F77616E6365A2646970667358221220 SHL 0xBB PUSH22 0x3DCC27154C61ADAE298FDA3C4FDA0320752EF4C55D3F SWAP9 LT 0xE7 GASPRICE CALLDATACOPY 0x4C RETURNDATACOPY PUSH5 0x736F6C6343 STOP ADDMOD 0xC STOP CALLER "
		},
		"gasEstimates": {
			"creation": {
				"codeDepositCost": "3259000",
				"executionCost": "infinite",
				"totalCost": "infinite"
			},
			"external": {
				"_maxTxAmount()": "2475",
				"_maxWalletSize()": "2474",
				"_swapTokensAtAmount()": "2541",
				"allowance(address,address)": "infinite",
				"approve(address,uint256)": "infinite",
				"balanceOf(address)": "infinite",
				"blockBots(address[])": "infinite",
				"bots(address)": "2912",
				"decimals()": "389",
				"excludeMultipleAccountsFromFees(address[],bool)": "infinite",
				"launchBlock()": "2473",
				"manualsend()": "infinite",
				"manualswap()": "infinite",
				"name()": "infinite",
				"owner()": "2590",
				"renounceOwnership()": "30380",
				"setFee(uint256,uint256,uint256,uint256)": "infinite",
				"setMaxTxnAmount(uint256)": "24833",
				"setMaxWalletSize(uint256)": "24810",
				"setMinSwapTokensThreshold(uint256)": "24811",
				"setTrading(bool)": "49134",
				"symbol()": "infinite",
				"toggleSwap(bool)": "27043",
				"totalSupply()": "405",
				"transfer(address,uint256)": "infinite",
				"transferFrom(address,address,uint256)": "infinite",
				"transferOwnership(address)": "30750",
				"unblockBot(address)": "27104",
				"uniswapV2Pair()": "2582",
				"uniswapV2Router()": "infinite"
			},
			"internal": {
				"_approve(address,address,uint256)": "infinite",
				"_getCurrentSupply()": "infinite",
				"_getRValues(uint256,uint256,uint256,uint256)": "infinite",
				"_getRate()": "infinite",
				"_getTValues(uint256,uint256,uint256)": "infinite",
				"_getValues(uint256)": "infinite",
				"_reflectFee(uint256,uint256)": "infinite",
				"_takeTeam(uint256)": "infinite",
				"_tokenTransfer(address,address,uint256,bool)": "infinite",
				"_transfer(address,address,uint256)": "infinite",
				"_transferStandard(address,address,uint256)": "infinite",
				"removeAllFee()": "62723",
				"restoreAllFee()": "48437",
				"sendETHToFee(uint256)": "infinite",
				"swapTokensForEth(uint256)": "infinite",
				"tokenFromReflection(uint256)": "infinite"
			}
		},
		"methodIdentifiers": {
			"_maxTxAmount()": "7d1db4a5",
			"_maxWalletSize()": "8f9a55c0",
			"_swapTokensAtAmount()": "2fd689e3",
			"allowance(address,address)": "dd62ed3e",
			"approve(address,uint256)": "095ea7b3",
			"balanceOf(address)": "70a08231",
			"blockBots(address[])": "00b8cf2a",
			"bots(address)": "bfd79284",
			"decimals()": "313ce567",
			"excludeMultipleAccountsFromFees(address[],bool)": "c492f046",
			"launchBlock()": "d00efb2f",
			"manualsend()": "6fc3eaec",
			"manualswap()": "c3c8cd80",
			"name()": "06fdde03",
			"owner()": "8da5cb5b",
			"renounceOwnership()": "715018a6",
			"setFee(uint256,uint256,uint256,uint256)": "a2a957bb",
			"setMaxTxnAmount(uint256)": "74010ece",
			"setMaxWalletSize(uint256)": "ea1644d5",
			"setMinSwapTokensThreshold(uint256)": "98a5c315",
			"setTrading(bool)": "8f70ccf7",
			"symbol()": "95d89b41",
			"toggleSwap(bool)": "6d8aa8f8",
			"totalSupply()": "18160ddd",
			"transfer(address,uint256)": "a9059cbb",
			"transferFrom(address,address,uint256)": "23b872dd",
			"transferOwnership(address)": "f2fde38b",
			"unblockBot(address)": "6b999053",
			"uniswapV2Pair()": "49bd5a5e",
			"uniswapV2Router()": "1694505e"
		}
	},
	"abi": [
		{
			"inputs": [],
			"stateMutability": "nonpayable",
			"type": "constructor"
		},
		{
			"anonymous": false,
			"inputs": [
				{
					"indexed": true,
					"internalType": "address",
					"name": "owner",
					"type": "address"
				},
				{
					"indexed": true,
					"internalType": "address",
					"name": "spender",
					"type": "address"
				},
				{
					"indexed": false,
					"internalType": "uint256",
					"name": "value",
					"type": "uint256"
				}
			],
			"name": "Approval",
			"type": "event"
		},
		{
			"anonymous": false,
			"inputs": [
				{
					"indexed": false,
					"internalType": "uint256",
					"name": "_maxTxAmount",
					"type": "uint256"
				}
			],
			"name": "MaxTxAmountUpdated",
			"type": "event"
		},
		{
			"anonymous": false,
			"inputs": [
				{
					"indexed": true,
					"internalType": "address",
					"name": "previousOwner",
					"type": "address"
				},
				{
					"indexed": true,
					"internalType": "address",
					"name": "newOwner",
					"type": "address"
				}
			],
			"name": "OwnershipTransferred",
			"type": "event"
		},
		{
			"anonymous": false,
			"inputs": [
				{
					"indexed": true,
					"internalType": "address",
					"name": "from",
					"type": "address"
				},
				{
					"indexed": true,
					"internalType": "address",
					"name": "to",
					"type": "address"
				},
				{
					"indexed": false,
					"internalType": "uint256",
					"name": "value",
					"type": "uint256"
				}
			],
			"name": "Transfer",
			"type": "event"
		},
		{
			"inputs": [],
			"name": "_maxTxAmount",
			"outputs": [
				{
					"internalType": "uint256",
					"name": "",
					"type": "uint256"
				}
			],
			"stateMutability": "view",
			"type": "function"
		},
		{
			"inputs": [],
			"name": "_maxWalletSize",
			"outputs": [
				{
					"internalType": "uint256",
					"name": "",
					"type": "uint256"
				}
			],
			"stateMutability": "view",
			"type": "function"
		},
		{
			"inputs": [],
			"name": "_swapTokensAtAmount",
			"outputs": [
				{
					"internalType": "uint256",
					"name": "",
					"type": "uint256"
				}
			],
			"stateMutability": "view",
			"type": "function"
		},
		{
			"inputs": [
				{
					"internalType": "address",
					"name": "owner",
					"type": "address"
				},
				{
					"internalType": "address",
					"name": "spender",
					"type": "address"
				}
			],
			"name": "allowance",
			"outputs": [
				{
					"internalType": "uint256",
					"name": "",
					"type": "uint256"
				}
			],
			"stateMutability": "view",
			"type": "function"
		},
		{
			"inputs": [
				{
					"internalType": "address",
					"name": "spender",
					"type": "address"
				},
				{
					"internalType": "uint256",
					"name": "amount",
					"type": "uint256"
				}
			],
			"name": "approve",
			"outputs": [
				{
					"internalType": "bool",
					"name": "",
					"type": "bool"
				}
			],
			"stateMutability": "nonpayable",
			"type": "function"
		},
		{
			"inputs": [
				{
					"internalType": "address",
					"name": "account",
					"type": "address"
				}
			],
			"name": "balanceOf",
			"outputs": [
				{
					"internalType": "uint256",
					"name": "",
					"type": "uint256"
				}
			],
			"stateMutability": "view",
			"type": "function"
		},
		{
			"inputs": [
				{
					"internalType": "address[]",
					"name": "bots_",
					"type": "address[]"
				}
			],
			"name": "blockBots",
			"outputs": [],
			"stateMutability": "nonpayable",
			"type": "function"
		},
		{
			"inputs": [
				{
					"internalType": "address",
					"name": "",
					"type": "address"
				}
			],
			"name": "bots",
			"outputs": [
				{
					"internalType": "bool",
					"name": "",
					"type": "bool"
				}
			],
			"stateMutability": "view",
			"type": "function"
		},
		{
			"inputs": [],
			"name": "decimals",
			"outputs": [
				{
					"internalType": "uint8",
					"name": "",
					"type": "uint8"
				}
			],
			"stateMutability": "pure",
			"type": "function"
		},
		{
			"inputs": [
				{
					"internalType": "address[]",
					"name": "accounts",
					"type": "address[]"
				},
				{
					"internalType": "bool",
					"name": "excluded",
					"type": "bool"
				}
			],
			"name": "excludeMultipleAccountsFromFees",
			"outputs": [],
			"stateMutability": "nonpayable",
			"type": "function"
		},
		{
			"inputs": [],
			"name": "launchBlock",
			"outputs": [
				{
					"internalType": "uint256",
					"name": "",
					"type": "uint256"
				}
			],
			"stateMutability": "view",
			"type": "function"
		},
		{
			"inputs": [],
			"name": "manualsend",
			"outputs": [],
			"stateMutability": "nonpayable",
			"type": "function"
		},
		{
			"inputs": [],
			"name": "manualswap",
			"outputs": [],
			"stateMutability": "nonpayable",
			"type": "function"
		},
		{
			"inputs": [],
			"name": "name",
			"outputs": [
				{
					"internalType": "string",
					"name": "",
					"type": "string"
				}
			],
			"stateMutability": "pure",
			"type": "function"
		},
		{
			"inputs": [],
			"name": "owner",
			"outputs": [
				{
					"internalType": "address",
					"name": "",
					"type": "address"
				}
			],
			"stateMutability": "view",
			"type": "function"
		},
		{
			"inputs": [],
			"name": "renounceOwnership",
			"outputs": [],
			"stateMutability": "nonpayable",
			"type": "function"
		},
		{
			"inputs": [
				{
					"internalType": "uint256",
					"name": "redisFeeOnBuy",
					"type": "uint256"
				},
				{
					"internalType": "uint256",
					"name": "redisFeeOnSell",
					"type": "uint256"
				},
				{
					"internalType": "uint256",
					"name": "taxFeeOnBuy",
					"type": "uint256"
				},
				{
					"internalType": "uint256",
					"name": "taxFeeOnSell",
					"type": "uint256"
				}
			],
			"name": "setFee",
			"outputs": [],
			"stateMutability": "nonpayable",
			"type": "function"
		},
		{
			"inputs": [
				{
					"internalType": "uint256",
					"name": "maxTxAmount",
					"type": "uint256"
				}
			],
			"name": "setMaxTxnAmount",
			"outputs": [],
			"stateMutability": "nonpayable",
			"type": "function"
		},
		{
			"inputs": [
				{
					"internalType": "uint256",
					"name": "maxWalletSize",
					"type": "uint256"
				}
			],
			"name": "setMaxWalletSize",
			"outputs": [],
			"stateMutability": "nonpayable",
			"type": "function"
		},
		{
			"inputs": [
				{
					"internalType": "uint256",
					"name": "swapTokensAtAmount",
					"type": "uint256"
				}
			],
			"name": "setMinSwapTokensThreshold",
			"outputs": [],
			"stateMutability": "nonpayable",
			"type": "function"
		},
		{
			"inputs": [
				{
					"internalType": "bool",
					"name": "_tradingOpen",
					"type": "bool"
				}
			],
			"name": "setTrading",
			"outputs": [],
			"stateMutability": "nonpayable",
			"type": "function"
		},
		{
			"inputs": [],
			"name": "symbol",
			"outputs": [
				{
					"internalType": "string",
					"name": "",
					"type": "string"
				}
			],
			"stateMutability": "pure",
			"type": "function"
		},
		{
			"inputs": [
				{
					"internalType": "bool",
					"name": "_swapEnabled",
					"type": "bool"
				}
			],
			"name": "toggleSwap",
			"outputs": [],
			"stateMutability": "nonpayable",
			"type": "function"
		},
		{
			"inputs": [],
			"name": "totalSupply",
			"outputs": [
				{
					"internalType": "uint256",
					"name": "",
					"type": "uint256"
				}
			],
			"stateMutability": "pure",
			"type": "function"
		},
		{
			"inputs": [
				{
					"internalType": "address",
					"name": "recipient",
					"type": "address"
				},
				{
					"internalType": "uint256",
					"name": "amount",
					"type": "uint256"
				}
			],
			"name": "transfer",
			"outputs": [
				{
					"internalType": "bool",
					"name": "",
					"type": "bool"
				}
			],
			"stateMutability": "nonpayable",
			"type": "function"
		},
		{
			"inputs": [
				{
					"internalType": "address",
					"name": "sender",
					"type": "address"
				},
				{
					"internalType": "address",
					"name": "recipient",
					"type": "address"
				},
				{
					"internalType": "uint256",
					"name": "amount",
					"type": "uint256"
				}
			],
			"name": "transferFrom",
			"outputs": [
				{
					"internalType": "bool",
					"name": "",
					"type": "bool"
				}
			],
			"stateMutability": "nonpayable",
			"type": "function"
		},
		{
			"inputs": [
				{
					"internalType": "address",
					"name": "newOwner",
					"type": "address"
				}
			],
			"name": "transferOwnership",
			"outputs": [],
			"stateMutability": "nonpayable",
			"type": "function"
		},
		{
			"inputs": [
				{
					"internalType": "address",
					"name": "notbot",
					"type": "address"
				}
			],
			"name": "unblockBot",
			"outputs": [],
			"stateMutability": "nonpayable",
			"type": "function"
		},
		{
			"inputs": [],
			"name": "uniswapV2Pair",
			"outputs": [
				{
					"internalType": "address",
					"name": "",
					"type": "address"
				}
			],
			"stateMutability": "view",
			"type": "function"
		},
		{
			"inputs": [],
			"name": "uniswapV2Router",
			"outputs": [
				{
					"internalType": "contract IUniswapV2Router02",
					"name": "",
					"type": "address"
				}
			],
			"stateMutability": "view",
			"type": "function"
		},
		{
			"stateMutability": "payable",
			"type": "receive"
		}
	]
}